:100000000A128A15292C0A128A15CB220A128A1181
:10001000013072067304031D0E280F281328831263
:10002000031306143728023072067304031D1928BF
:100030001A281E28831203138614372803307206E9
:100040007304031D24282528292883120313061569
:100050003728043072067304031D2F2830283728F0
:100060008312031386153728372837283728C830D6
:10007000F0000030F1000A128A1507230A128A11D3
:10008000080083120313A001A101FB08031D4928E6
:100090004A284C282B292B297A087904031D51283A
:1000A00052285B283030FC007B0884007C088313D6
:1000B00080002B292B29FA1F5E285F288828FF3013
:1000C000F000FF30F1007A08F301F3077908F2013C
:1000D000F2070A128A15FF230A128A117108FA011F
:1000E000FA077008F901F9072D30FC007B0884003D
:1000F0007C08831380000130FC007C08FB07013082
:1001000083120313A0070318A10A0030A10788284F
:100110007A08A301A3077908A201A2072308803A5D
:10012000FF0080307F02031D972801302202031850
:100130009A289B289D28C828C8280A30F00000303B
:10014000F100831203132308F301F3072208F201DD
:10015000F2070A128A15D6250A128A11710883122B
:100160000313A301A3077008A201A2070130FC003A
:100170007C08FB072308803AFF0080307F02031DC4
:10018000C328013022020318C628C7289D28C82882
:100190007B088400831380017A0883120313A30170
:1001A000A3077908A201A2072308803AFF00803044
:1001B0007F02031DDD28013022020318E028E12818
:1001C000E3282B292B290A30F0000030F10083129C
:1001D00003132308F301F3072208F201F2070A12BE
:1001E0008A1570250A128A117008303EFC00013011
:1001F000FB027B0884007C0883138000013083129B
:100200000313A0070318A10A0030A1070A30F00069
:100210000030F1002308F301F3072208F201F2078E
:100220000A128A15D6250A128A117108831203133D
:10023000A301A3077008A201A2072308803AFF00C8
:1002400080307F02031D262901302202031829294C
:100250002A29E3282B29080083120313C001C101B6
:10026000013084000A128A150A200A128A11F2004B
:100270000A128A150A200A128A11F3004108803AEC
:10028000F4007308803A7402031D48297208400282
:10029000031C4B294C294E298F298F2983120313C4
:1002A000400AF2007108F4007008F3005A290310A4
:1002B000F30DF40DF20B57290030F41B0130F5005B
:1002C000F6014008F7007707203E84007508831385
:1002D0008000840A760880000130C0070318C10A34
:1002E0000030C107013084000A128A150A200A1260
:1002F0008A11F2000A128A150A200A128A11F300E2
:100300004108803AF4007308803A7402031D8A2978
:1003100072084002031C8D298E294E298F29013035
:1003200084000A128A150A200A128A11F200720742
:10033000FE3E203E840083130008F300840A000878
:10034000F4007318A429A829831203130814AB29F5
:10035000831203130810013084000A128A150A2040
:100360000A128A11F2007207FC3E203E84008313B9
:100370000008F300840A0008F4007318C029C42997
:10038000831203138814C7298312031388100130C2
:1003900084000A128A150A200A128A11F2007207D2
:1003A000FA3E203E840083130008F300840A00080C
:1003B000F4007318DC29E029831203130815E329DC
:1003C000831203130811013084000A128A150A20CF
:1003D0000A128A11F2007207F83E203E840083134D
:1003E0000008F300840A0008F4007318F829FC29B7
:1003F000831203138815FF29831203138811013018
:1004000084000A128A150A200A128A11F200720761
:10041000F63E203E840083130008F300840A00089F
:10042000F4007318142A182A8312031308161B2ABF
:10043000831203130812013084000A128A150A205D
:100440000A128A11F2007207F43E203E84008313E0
:100450000008F300840A0008F4007318302A342AD4
:10046000831203138816372A83120313881201306C
:1004700084000A128A150A200A128A11F2007207F1
:10048000F23E203E840083130008F300840A000833
:10049000F40073184C2A502A831203130817532AA6
:1004A000831203130813013084000A128A150A20EC
:1004B0000A128A11F2007207F03E203E8400831374
:1004C0000008F300840A0008F4007318682A6C2AF4
:1004D0008312031388176F2A8312031388130800EB
:1004E0006030F0000030F100E9300A128A15AD23C7
:1004F0000A128A117E30F0008030F10060300A125A
:100500008A15AD230A128A1183120313071E892A42
:100510008A2A8F2A3130C8004808E0008F2A871EB7
:10052000922A932A982A3130C8004808E100982A74
:10053000071F9B2A9C2AA12A3130C8004808E200E4
:10054000A12A071CA42AA52AAA2A3130C8004808D3
:10055000E400AA2A6B08EF01EF076A08EE01EE0734
:10056000EA01EB01E930F0000030F10060300A12DE
:100570008A158A240A128A11710870040319C12A83
:10058000C22A102C7E30F0008030F10060300A1258
:100590008A158A240A128A11710870040319D12A53
:1005A000D22A102C653083120313C8004808F000CB
:1005B00060300A128A15C3240A128A117108700465
:1005C0000319E32AE42AED2A0130831203136A0493
:1005D000EA0000306B04EB00F62A0E30831203139E
:1005E0006A05EA0000306B05EB00F62ADA30C80035
:1005F0004808F00060300A128A15C3240A128A11D2
:10060000710870040319052B062B0F2B023083127F
:1006100003136A04EA0000306B04EB00182B0D3062
:10062000831203136A05EA0000306B05EB00182BF8
:10063000DF30C8004808F00060300A128A15C32471
:100640000A128A11710870040319272B282B312BE9
:100650000430831203136A04EA0000306B04EB00D9
:100660003A2B0B30831203136A05EA0000306B0546
:10067000EB003A2BE430C8004808F00060300A1262
:100680008A15C3240A128A11710870040319492BB0
:100690004A2B532B0830831203136A04EA000030FC
:1006A0006B04EB005B2B0730831203136A05EA002F
:1006B00000306B05EB006A088500102C102C102C04
:1006C0006530F0000030F10060300A128A158A248B
:1006D0000A128A1171087004031D6F2B702B772B7F
:1006E000013083120313EA000030EB00772BDA307D
:1006F000F0000030F10060300A128A158A240A12D4
:100700008A1171087004031D862B872B902B0230F1
:10071000831203136A04EA0000306B04EB00902B91
:10072000DF30F0000030F10060300A128A158A24B0
:100730000A128A1171087004031D9F2BA02BA92B8C
:100740000430831203136A04EA0000306B04EB00E8
:10075000A92BE430F0000030F10060300A128A1555
:100760008A240A128A1171087004031DB82BB92B50
:10077000C22B0830831203136A04EA0000306B04B2
:10078000EB00C22B603083120313C2000030C300A1
:100790000130C4000030C5000130C6000030C70081
:1007A0000A128A150C250A128A11831203136B0888
:1007B0006F06031DDD2B6A086E060319E02BE12B83
:1007C000F72B6030C2000030C3000130C40000309D
:1007D000C5000130C6000030C7000A128A150C257A
:1007E0000A128A11831203136A088500F72B8330DB
:1007F000F0008030F10060300A128A158A240A1253
:100800008A1171087004031D062C072C0C2C0F3064
:10081000831203138500102C831203138501102CFF
:100820000800003083120313C8000030C9000330F1
:100830000A128A154A260A128A11C23084009030A0
:1008400083120313DC000408DD001030DE005C08B6
:10085000840083170008DF00DC0A5D08840083132E
:100860005F088000DD0ADE0B272C83160313D401FA
:10087000D501D201D301C001C101D601D701402C5D
:10088000D401D501D601D7012930F0008030F10024
:10089000A0300A128A15AD230A128A11A0308312E1
:1008A0000313C2000030C3000130C4000030C50093
:1008B0000130C6000030C7000A128A150C250A1242
:1008C0008A11653083120313C2000030C300023066
:1008D000C4000030C5000030C6000030C7000A1256
:1008E0008A150C250A128A11752C0A128A151827E6
:1008F0000A128A11750883160313D901D9077408DF
:10090000D801D8070130580659040319882C892CBE
:10091000902C59085804031D8E2C8F2CF92C902CE8
:1009200055085404031D952C962CFC2C570856048E
:10093000031D9B2C9C2CA62C3C30F0008030F10039
:1009400065300A128A15AD230A128A117930831292
:100950000313C2008030C3000230C4000030C50061
:100960000030C6000030C7000A128A150C250A1292
:100970008A11831603135908FA01FA075808F90176
:10098000F907C23083120313DC005C08FB000A1273
:100990008A1141200A128A11C23083120313DC002B
:1009A0005C08F00065300A128A15D6230A128A11F3
:1009B000653083120313C2000030C3000230C4004C
:1009C0000030C5000030C6000030C7000A128A158A
:1009D0000C250A128A11013083160313D40000304B
:1009E000D5000130D6070318D70A0030D707FC2CF2
:1009F000FC2CD401D501FC2C5708803AFF00803034
:100A00007F02031D052D04305602031C082D092DFD
:100A10000B2D2D2D2D2D023083160313580659044E
:100A2000031D132D142D202D53085204031D192DC1
:100A30001A2D752C0130D2000030D3002D2D752CCD
:100A4000633058065904031D262D272D752CD2011D
:100A5000D301752C752C752C752C83160313D401BA
:100A6000D501D601D7013D30F0008030F100A03033
:100A70000A128A15AD230A128A11A03083120313B9
:100A8000C2000030C3000130C4000030C500013096
:100A9000C6000030C7000A128A150C250A128A11F6
:100AA000DA3083120313C2000030C3000230C400E6
:100AB0000030C5000030C6000030C7000A128A1599
:100AC0000C250A128A11642D0A128A1518270A1297
:100AD0008A11750883160313D901D9077408D80140
:100AE000D8070130580659040319772D782D7F2D2A
:100AF00059085804031D7D2D7E2DE82D7F2D5508A6
:100B00005404031D842D852DEB2D57085604031D19
:100B10008A2D8B2D952D3C30F0008030F100DA309D
:100B20000A128A15AD230A128A117930831203132F
:100B3000C2008030C3000230C4000030C500003065
:100B4000C6000030C7000A128A150C250A128A1145
:100B5000831603135908FA01FA075808F901F9072F
:100B6000C23083120313DC005C08FB000A128A11F6
:100B700041200A128A11C23083120313DC005C0880
:100B8000F000DA300A128A15D6230A128A11DA30F6
:100B900083120313C2000030C3000230C4000030CF
:100BA000C5000030C6000030C7000A128A150C25A7
:100BB0000A128A11013083160313D4000030D500C5
:100BC0000130D6070318D70A0030D707EB2DEB2DDD
:100BD000D401D501EB2D5708803AFF0080307F0209
:100BE000031DF42D04305602031CF72DF82DFA2DA9
:100BF0001C2E1C2E02308316031358065904031DA5
:100C0000022E032E0F2E53085204031D082E092E08
:100C1000642D0130D2000030D3001C2E642D6330CF
:100C200058065904031D152E162E642DD201D3012A
:100C3000642D642D642D642D83160313D401D50116
:100C4000D601D7015130F0008030F100A0300A12F7
:100C50008A15AD230A128A11A03083120313C20031
:100C60000030C3000130C4000030C5000130C600B0
:100C70000030C7000A128A150C250A128A11DF30CB
:100C800083120313C2000030C3000230C4000030DE
:100C9000C5000030C6000030C7000A128A150C25B6
:100CA0000A128A11532E0A128A1518270A128A115B
:100CB000750883160313D901D9077408D801D8071A
:100CC0000130580659040319662E672E6E2E5908F6
:100CD0005804031D6C2E6D2ED72E6E2E550854040D
:100CE000031D732E742EDA2E57085604031D792E19
:100CF0007A2E842E3C30F0008030F100DF300A1272
:100D00008A15AD230A128A11793083120313C200A7
:100D10008030C3000230C4000030C5000030C6007F
:100D20000030C7000A128A150C250A128A11831690
:100D300003135908FA01FA075808F901F907C230F4
:100D400083120313DC005C08FB000A128A114120A5
:100D50000A128A11C23083120313DC005C08F0000F
:100D6000DF300A128A15D6230A128A11DF30831265
:100D70000313C2000030C3000230C4000030C500BD
:100D80000030C6000030C7000A128A150C250A126E
:100D90008A11013083160313D4000030D5000130CE
:100DA000D6070318D70A0030D707DA2EDA2ED40177
:100DB000D501DA2E5708803AFF0080307F02031DEC
:100DC000E32E04305602031CE62EE72EE92E0B2FED
:100DD0000B2F02308316031358065904031DF12EFE
:100DE000F22EFE2E53085204031DF72EF82E532E1A
:100DF0000130D2000030D3000B2F532E6330580641
:100E00005904031D042F052F532ED201D301532E55
:100E1000532E532E532E83160313D401D501D6011E
:100E2000D7016530F0008030F100A0300A128A1539
:100E3000AD230A128A11A03083120313C2000030BE
:100E4000C3000130C4000030C5000130C6000030CE
:100E5000C7000A128A150C250A128A11E43083127F
:100E60000313C2000030C3000230C4000030C500CC
:100E70000030C6000030C7000A128A150C250A127D
:100E80008A11422F0A128A1518270A128A11750828
:100E900083160313D901D9077408D801D807013084
:100EA000580659040319552F562F5D2F5908580419
:100EB000031D5B2F5C2FC62F5D2F55085404031DA7
:100EC000622F632FC92F57085604031D682F692FFF
:100ED000732F3C30F0008030F100E4300A128A15A4
:100EE000AD230A128A11793083120313C2008030B5
:100EF000C3000230C4000030C5000030C60000301E
:100F0000C7000A128A150C250A128A1183160313C8
:100F10005908FA01FA075808F901F907C230831293
:100F20000313DC005C08FB000A128A1141200A123C
:100F30008A11C23083120313DC005C08F000E43035
:100F40000A128A15D6230A128A11E4308312031377
:100F5000C2000030C3000230C4000030C5000030C1
:100F6000C6000030C7000A128A150C250A128A1121
:100F7000013083160313D4000030D5000130D607AA
:100F80000318D70A0030D707C92FC92FD401D501BC
:100F9000C92F5708803AFF0080307F02031DD22FEF
:100FA00004305602031CD52FD62FD82FFA2FFA2F34
:100FB00002308316031358065904031DE02FE12F56
:100FC000ED2F53085204031DE62FE72F422F013067
:100FD000D2000030D300FA2F422F63305806590454
:100FE000031DF32FF42F422FD201D301422F422FA2
:100FF000422F422F0A128A1170220A128A11080007
:10100000FF1B0A2883137F1883170008840A03191B
:10101000FF0A080008308A000408840A82070034A6
:1010200010340034573445344C3443344F344D3449
:10103000453420342134203454344F342034503457
:1010400052344F344734523441344D3441344234B5
:101050004C344534203448344F344D3445342034F6
:101060004134553454344D34413454344E340034C6
:1010700045346E3474346534723420344C346F34F7
:10108000673469346334203444344534563431345D
:101090003A3420342034003445346E3474346534AA
:1010A000723420344C346F34673469346334203400
:1010B00044344534563432343A3420342034003405
:1010C00045346E3474346534723420344C346F34A7
:1010D000673469346334203444344534563433340B
:1010E0003A3420342034003445346E34743465345A
:1010F000723420344C346F346734693463342034B0
:1011000044344534563434343A34203420340034B2
:101110002D342D342D342D340034303430343034EB
:1011200030340034313430343034303400343034FE
:1011300031343034303400343134313430343034BC
:1011400000343034303431343034003431343034DD
:1011500031343034003430343134313430340034CC
:10116000313431343134303400343034303430348C
:1011700031340034313430343034313400343034AC
:10118000313430343134003431343134303431346A
:10119000003430343034313431340034313430348C
:1011A000313431340034303431343134313400347A
:0A11B000313431343134313400346D
:10159600831203130711871106138613080083129B
:1015A60003138601C0308316031386000800640007
:1015B6008001840A0406031900340406DB2A01307C
:1015C600F8000030F9000A128A1563230A128A15F8
:1015D6000800303430343034303400343134303470
:1015E6003034313400347E088A007F088200F622C7
:1015F6000A128A158000840A04087D06031900343D
:10160600FF0A0319FE0AFA2A092B092B0130F002F8
:101616000030031CF103F102FF307106031D152B88
:10162600FF307006031D182B192B092B1A2B0800E7
:1016360031343034313431340034303431343134AF
:1016460030340034313430343034303400343034D3
:1016560030343034303400340A128A1557240A12D2
:101666008A150A128A15D2220A128A150A128A15B0
:1016760048230A128A150A128A1111240A128A1597
:101686003E2B3E2B0A128A110028831203136D0883
:101696006C04031D4F2B502B622B30308316031323
:1016A6008500831203138501831603139111981283
:1016B600013083120313EC000030ED00622B0800AA
:1016C6007908F101F1077808F001F0070A128A118A
:1016D6002C210A128A15831203130710871414305B
:1016E600F0000030F1000A128A1507230A128A1543
:1016F6008312031387101430F0000030F1000A1231
:101706008A1507230A128A1508007908F101F107DC
:101716007808F001F0070A128A112C210A128A159C
:1017260083120313071487141430F0000030F100FD
:101736000A128A1507230A128A15831203138710C1
:101746001430F0000030F1000A128A1507230A123D
:101756008A150800F5007508F2007208F600B42B29
:10176600B42B7108F3007008F2000130F00703187B
:10177600F10A730883120313FF00720884000A1229
:101786008A1500200A128A15F400760884000130B2
:10179600F6077408831380008008031DD32BD42B0F
:1017A600B42BD52B0800F2007208F1007108F30083
:1017B600E12B0130F1007108F307E12B7308840077
:1017C60083138008031DE82BE92BDC2BEC2BEC2B79
:1017D600EC2B700884000130F0070008F100730854
:1017E60084000130F307710880008008031DFC2B7C
:1017F600FD2BEC2BFE2B0800F401F501022C701CCE
:10180600052C062C0C2C7208F4070318F50A73082D
:10181600F50701300310F20DF30DFF3E031D0D2CED
:1018260001300310F10CF00CFF3E031D142C71085F
:101836007004031D1F2C202C022C212C7508F1018D
:10184600F1077408F001F007282C0800EA01EB0103
:10185600EC01ED01EE01EF01831790308400A0301A
:101866000A128A15DA220A128A158313EE30FD004F
:101876000B30FE001B30FF00DA3084000A128A1596
:10188600FA220A128A156A30FD000A30FE00EC3090
:10189600FF00603084000A128A15FA220A128A159D
:1018A60083010A128A152F2B3F30831603138700F4
:1018B60088013830F8000030F9000A128A156323CF
:1018C6000A128A150C30F8000030F9000A128A153F
:1018D60063230A128A150130F8000030F9000A1253
:1018E6008A1563230A128A158030F8000030F90041
:1018F6000A128A1563230A128A150F30F80000307F
:10190600F9000A128A1563230A128A150800F700DD
:101916008D2C8D2C7708840083130008F200710843
:10192600F4007008F3000130F0070318F10A740898
:1019360083120313FF00730884000A128A1500201D
:101946000A128A15FF3A013E7207F5007508F6007D
:10195600F608031DAF2CB02CBC2C77088400013090
:10196600F70783138008031DB92CBA2C8D2CBC2CC9
:10197600BC2C7608F000F101F01BF103C22C080024
:10198600F300F401F501F401F5017508803AFF0052
:1019960080307F02031DD12C04307402031CD42C2A
:1019A600D52CD72C062D062D74087307F200720865
:1019B600840083130008303A031DE22CE32CF22C3A
:1019C60074087007F200720884000008313A031D9B
:1019D600ED2CEE2CF22CF001F1010B2D0B2D01302C
:1019E600F4070318F50A0030F5077508803AFF007A
:1019F60080307F02031D012D04307402031C042D68
:101A0600052DD72C062D0130F0000030F1000B2DEE
:101A1600080001308312031346064704031D142DE4
:101A2600152D1B2D0A128A15E2220A128A151B2D64
:101A360002308312031344064504031D232D242D6F
:101A46002E2DC030F8000030F9000A128A156323E3
:101A56000A128A15382D0230F8000030F9000A12F1
:101A66008A1563230A128A15382DFC01FD015B2DA8
:101A76007C08831203134207840043080318430AB1
:101A8600FF000A128A1500200A128A15FA00FB01C5
:101A96007A08F8007B08F9000A128A1588230A12C8
:101AA6008A150130FC070318FD0A0030FD075B2D7F
:101AB6007C08831203134207840043080318430A71
:101AC600FF000A128A1500200A128A150038031D23
:101AD6006D2D6E2D3B2D6F2D0800F601F31F742D15
:101AE600752D7E2DF209F309F20A0319F30AF601A0
:101AF6000314F60D7E2DF11F812D822D882DF00900
:101B0600F109F00A0319F10A882D71087004031906
:101B16008D2D8E2DC42DF5010314F50D9E2D01304E
:101B26000310F00DF10DFF3E031D932D0130F4005F
:101B36007408F5079E2DF11FA12DA22D922DA42D1F
:101B4600A42D71087302031DAA2D70087202031CCE
:101B5600AD2DAE2DB52D7008F2027108031CF303EE
:101B6600F302B52D01300310F10CF00CFF3E031DFE
:101B7600B62D0130F502031DC12DC22DA42DC42D95
:101B8600C42D7608031DC82DCE2DF209F309F20ADD
:101B96000319F30ACE2D7308F101F1077208F0015B
:101BA600F007D52D0800F601F11FDA2DDB2DE42D07
:101BB600F009F109F00A0319F10AF6010314F60D0A
:101BC600E42DF31FE72DE82DF22DF209F309F20AB1
:101BD6000319F30A0130F4007408F606F22DF70132
:101BE600F801710870040319F92DFA2D382EF50144
:101BF6000314F50D0A2E01300310F00DF10DFF3E12
:101C0600031DFF2D0130F4007408F5070A2EF11F9D
:101C16000D2E0E2EFE2D102E102E01300310F70D58
:101C2600F80DFF3E031D112E71087302031D1D2EB4
:101C360070087202031C202E212E292E7008F20233
:101C46007108031CF303F3027714292E01300310E5
:101C5600F10CF00CFF3E031D2A2E0130F502031D88
:101C6600352E362E102E382E382E7608031D3C2E95
:101C7600422EF709F809F70A0319F80A422E7808DE
:101C8600F101F1077708F001F007492E08008312E9
:101C96000313D7005708C2008030C3000130C400C8
:101CA6000030C5000030C6000030C7000A128A1591
:101CB6000C250A128A1583120313D501D601D80101
:101CC600D901CD01CE01742E0130DA070318DB0AE3
:101CD6000030DB070130D8070318D90A0030D907CE
:101CE600742E5A08570784000A128A150A200A1207
:101CF6008A150038031D802E812E672E822E5808E5
:101D0600FF3ECF0059080318013EFF3ED000590898
:101D1600803AFF0080307F02031D932E2130580247
:101D2600031C962E972E172F83120313D101D2016F
:101D36001F30D3000030D400A02E83120313DA0123
:101D4600DB01B82EB830F0000B30F1000A128A150C
:101D560007230A128A151E30F8000030F9000A120D
:101D66008A1563230A128A15B82E013083120313CB
:101D7600DA070318DB0A0030DB075B08803AFF004E
:101D860080307F02031DC92E21305A02031CCC2E3F
:101D9600CD2EA52ECE2E83120313DA01DB01E62EFD
:101DA600B830F0000B30F1000A128A1507230A1228
:101DB6008A151830F8000030F9000A128A156323D4
:101DC6000A128A15E62E013083120313DA07031866
:101DD600DB0A0030DB075B08803AFF0080307F02B9
:101DE600031DF72E21305A02031CFA2EFB2ED32E8A
:101DF600FC2E831203135608CB005508CA00013087
:101E0600D5070318D60A4B08803ACC004908803A11
:101E16004C02031D102F48084A020318132F142FD3
:101E2600172FA02EA02E172F08000130F200003029
:101E3600F3000A128A1103200A128A158312031369
:101E4600071D262F272F2C2FF401F501FF2FFF2F1B
:101E56004F2F871D2F2F302F372F0130F4000030E2
:101E6600F500FF2FFF2F4F2F061F3A2F3B2F422F34
:101E76000230F4000030F500FF2FFF2F4F2F861F92
:101E8600452F462F4F2F0430F4000030F500FF2F6A
:101E9600FF2F4F2F4F2F4F2F0230F2000030F3004D
:101EA6000A128A1103200A128A1583120313071DC8
:101EB6005D2F5E2F652F0530F4000030F500FF2FF3
:101EC600FF2F882F871D682F692F702F0630F4008B
:101ED6000030F500FF2FFF2F882F061F732F742F5A
:101EE6007B2F0730F4000030F500FF2FFF2F882FDF
:101EF600861F7E2F7F2F882F0830F4000030F500D4
:101F0600FF2FFF2F882F882F882F0330F2000030F5
:101F1600F3000A128A1103200A128A158312031388
:101F2600071D962F972F9E2F0930F4000030F500DD
:101F3600FF2FFF2FC12F871DA12FA22FA92F0A30F8
:101F4600F4000030F500FF2FFF2FC12F061FAC2F26
:101F5600AD2FB42F0B30F4000030F500FF2FFF2F0C
:101F6600C12F861FB72FB82FC12F0C30F4000030B9
:101F7600F500FF2FFF2FC12FC12FC12F0430F20014
:101F86000030F3000A128A1103200A128A158312FE
:101F96000313071DCF2FD02FD72F0D30F40000309D
:101FA600F500FF2FFF2FFA2F871DDA2FDB2FE22FE9
:101FB6000E30F4000030F500FF2FFF2FFA2F061F1A
:101FC600E52FE62FED2F0F30F4000030F500FF2F40
:101FD600FF2FFA2F861FF02FF12FFA2F1030F40063
:101FE6000030F500FF2FFF2FFA2FFA2FFA2F63305C
:0A1FF600F4000030F500FF2F080092
:00000001FF
