:060000000A128A11E62E2F
:100DAA007E088A007F088200D5260A128A118000EE
:100DBA00840A04087D0603190034FF0A0319FE0A8F
:100DCA00D92E83135930FD000730FE004030FF0052
:100DDA00203084000A128A11D9260A128A11830144
:100DEA000A128A11792FFA2EFA2E0130F0020030F7
:100DFA00031CF103F102FF307106031D062FFF30B9
:100E0A007006031D092F0A2FFA2E0B2F08008312D2
:100E1A000313081488143230F0000030F1000A126B
:100E2A008A11F8260A128A118312031388103230A3
:100E3A00F0000030F1000A128A11F8260A128A110B
:100E4A00080083120313081088143230F0000030AF
:100E5A00F1000A128A11F8260A128A118312031360
:100E6A0088103230F0000030F1000A128A11F82698
:100E7A000A128A110800773465346C3463346F348B
:100E8A006D346534203474346F34203445344D3431
:100E9A005434453443344834203446344F3455347A
:100EAA004E3444344134543449344F344E3420346B
:100EBA0043344834203446344F3455344E34443461
:100ECA004134543449344F344E3420344334483452
:100EDA00203446344F3455344E3444344134543437
:100EEA0049344F344E340034903084002030F200BC
:100EFA000408F3003930F4007208840083130008F0
:100F0A00F500F20A73088400831775088000F30A53
:100F1A00F40B812F8316031387018801383083125B
:100F2A00031387000A128A1126270A128A110C3023
:100F3A008312031387000A128A1126270A128A11BA
:100F4A0001308312031387000A128A1126270A1214
:100F5A008A118030831203138700803087000A12B7
:100F6A008A1126270A128A11013083160317E9000B
:100F7A000030EA00EB01EC016C08803AFF00803097
:100F8A007F02031DCA2F19306B02031CCD2FCE2FEF
:100F9A00D02FF22FF22F831603176B086907903EA2
:100FAA00840083170008F2006B08C93E84007208A7
:100FBA0080000130EB070318EC0A0030EC076C08DC
:100FCA00803AFF0080307F02031DED2F19306B023B
:100FDA00031CF02FF12FD02FF22F6130831203134D
:100FEA0087000A128A110C270A128A11FC2FFC2F79
:060FFA000A128A11002812
:00000001FF
