:100000000A128A15402CFF1B0D2883137F188317B3
:100010000008840A0319FF0A080000308A00040857
:10002000840A8207003410340034573445344C3489
:1000300043344F344D344534203421342034543447
:100040004F342034503452344F34473452344134D6
:100050004D34413442344C344534203448344F34E8
:100060004D34453420344134553454344D344134C6
:1000700054344E34003445346E3474346534723440
:1000800020344C346F34673469346334203444345E
:100090004534563431343A34203420340034453435
:1000A0006E3474346534723420344C346F346734B5
:1000B00069346334203444344534563432343A3469
:1000C00020342034003445346E3474346534723452
:1000D00020344C346F34673469346334203444340E
:1000E0004534563433343A342034203400344534E3
:1000F0006E3474346534723420344C346F34673465
:1001000069346334203444344534563434343A3416
:100110002034203400342D342D342D342D3400344B
:1001200030343034303430340034313430343034DE
:1001300030340034303431343034303400343134FD
:1001400031343034303400343034303431343034BD
:1001500000343134303431343034003430343134DC
:1001600031343034003431343134313430340034CB
:10017000303430343034313400343134303430348D
:1001800031340034303431343034313400343134AB
:10019000313430343134003430343034313431346B
:1001A000003431343034313431340034303431348B
:1001B0003134313400343134313431343134003479
:1001C200303430343034303400340130F200003016
:1001D200F3000A128A1527250A128A1183120313C1
:1001E200071DF428F528FA28F401F501CD29CD29B7
:1001F2001D29871DFD28FE2805290130F400003045
:10020200F500CD29CD291D29061F08290929102904
:100212000230F4000030F500CD29CD291D29861FBA
:10022200132914291D290430F4000030F500CD29CA
:10023200CD291D291D291D290230F2000030F300AD
:100242000A128A1527250A128A1183120313071D1F
:100252002B292C2933290530F4000030F500CD2953
:10026200CD295629871D362937293E290630F40023
:100272000030F500CD29CD295629061F41294229F2
:1002820049290730F4000030F500CD29CD2956293F
:10029200861F4C294D2956290830F4000030F500FC
:1002A200CD29CD295629562956290330F20000308E
:1002B200F3000A128A1527250A128A1183120313E0
:1002C200071D642965296C290930F4000030F50006
:1002D200CD29CD298F29871D6F29702977290A30C9
:1002E200F4000030F500CD29CD298F29061F7A2987
:1002F2007B2982290B30F4000030F500CD29CD296D
:100302008F29861F852986298F290C30F400003019
:10031200F500CD29CD298F298F298F290430F200AC
:100322000030F3000A128A1527250A128A11831255
:100332000313071D9D299E29A5290D30F4000030C5
:10034200F500CD29CD29C829871DA829A929B029B9
:100352000E30F4000030F500CD29CD29C829061F42
:10036200B329B429BB290F30F4000030F500CD29A0
:10037200CD29C829861FBE29BF29C8291030F400FB
:100382000030F500CD29CD29C829C829C8296330F4
:10039200F4000030F500CD29080083120313A001F8
:1003A200A101FB08031DD629D729D929B82AB82AC1
:1003B2007A087904031DDE29DF29E8293030FC00A0
:1003C2007B0884007C0883138000B82AB82AFA1FAD
:1003D200EB29EC29152AFF30F000FF30F1007A08F2
:1003E200F301F3077908F201F2070A128A15912440
:1003F2000A128A117108FA01FA077008F901F9075D
:100402002D30FC007B0884007C08831380000130BF
:10041200FC007C08FB07013083120313A0070318BA
:10042200A10A0030A107152A7A08A301A3077908B7
:10043200A201A2072308803AFF0080307F02031D39
:10044200242A013022020318272A282A2A2A552A76
:10045200552A0A30F0000030F100831203132308FA
:10046200F301F3072208F201F2070A128A152F2676
:100472000A128A11710883120313A301A3077008D9
:10048200A201A2070130FC007C08FB072308803A86
:10049200FF0080307F02031D502A01302202031820
:1004A200532A542A2A2A552A7B088400831380015E
:1004B2007A0883120313A301A3077908A201A207F2
:1004C2002308803AFF0080307F02031D6A2A013030
:1004D200220203186D2A6E2A702AB82AB82A0A3014
:1004E200F0000030F100831203132308F301F30735
:1004F2002208F201F2070A128A15C9250A128A1184
:100502007008303EFC000130FB027B0884007C084E
:1005120083138000013083120313A0070318A10A7A
:100522000030A1070A30F0000030F1002308F30187
:10053200F3072208F201F2070A128A152F260A127D
:100542008A11710883120313A301A3077008A20181
:10055200A2072308803AFF0080307F02031DB32ADE
:10056200013022020318B62AB72A702AB82A0800D4
:1005720083120313C001C101013084000A128A11DF
:100582000D200A128A11F2000A128A110D200A1293
:100592008A11F3004108803AF4007308803A740229
:1005A200031DD52A72084002031CD82AD92ADB2A45
:1005B2001C2B1C2B83120313400AF2007108F40057
:1005C2007008F300E72A0310F30DF40DF20BE42A8E
:1005D2000030F41B0130F500F6014008F700770700
:1005E200203E8400750883138000840A7608800008
:1005F2000130C0070318C10A0030C107013084006E
:100602000A128A110D200A128A11F2000A128A11A4
:100612000D200A128A11F3004108803AF40073088F
:10062200803A7402031D172B72084002031C1A2B16
:100632001B2BDB2A1C2B013084000A128A110D208D
:100642000A128A11F2007207FE3E203E84008313D2
:100652000008F300840A0008F4007318312B352BCC
:10066200831203130814382B83120313081001306A
:1006720084000A128A110D200A128A11F2007207EE
:10068200FC3E203E840083130008F300840A000825
:10069200F40073184D2B512B831203138814542B1F
:1006A200831203138810013084000A128A110D206C
:1006B2000A128A11F2007207FA3E203E8400831366
:1006C2000008F300840A0008F4007318692B6D2BEC
:1006D200831203130815702B8312031308110130C0
:1006E20084000A128A110D200A128A11F20072077E
:1006F200F83E203E840083130008F300840A0008B9
:10070200F4007318852B892B8312031388158C2B05
:10071200831203138811013084000A128A110D20FA
:100722000A128A11F2007207F63E203E84008313F9
:100732000008F300840A0008F4007318A12BA52B0B
:10074200831203130816A82B831203130812013015
:1007520084000A128A110D200A128A11F20072070D
:10076200F43E203E840083130008F300840A00084C
:10077200F4007318BD2BC12B831203138816C42BEC
:10078200831203138812013084000A128A110D2089
:100792000A128A11F2007207F23E203E840083138D
:1007A2000008F300840A0008F4007318D92BDD2B2B
:1007B200831203130817E02B83120313081301306B
:1007C20084000A128A110D200A128A11F20072079D
:1007D200F03E203E840083130008F300840A0008E0
:1007E200F4007318F52BF92B831203138817FC2BD3
:1007F2008312031388130800003083120313C80006
:100802000030C90003300A128A1532270A128A11EF
:10081200C2308400903083120313DC000408DD0030
:100822001030DE005C08840083170008DF00DC0A59
:100832005D08840083135F088000DD0ADE0B132C41
:1008420083160313D401D501D201D301C001C10122
:10085200D601D7012C2CD401D501D601D7012930DC
:1008620083120313DC005C08F000A0300A128A1520
:10087200D6230A128A11A03083120313C200003059
:10088200C3000130C4000030C5000130C600003092
:10089200C7000A128A1565250A128A11DA308312F4
:1008A2000313C2000030C3000230C4000030C50090
:1008B2000030C6000030C7000A128A1565250A12E8
:1008C2008A11632C0A128A11E6200A128A1175080B
:1008D20083160313D901D9077408D801D807013048
:1008E200580659040319762C772C7E2C5908580483
:1008F200031D7C2C7D2CEA2C7E2C55085404031DF0
:10090200832C842CED2C57085604031D892C8A2C29
:10091200972C3C3083120313DC005C08F000DA30C1
:100922000A128A15D6230A128A11972C7930831259
:100932000313C2008030C3000230C4000030C5007F
:100942000030C6000030C7000A128A1565250A1257
:100952008A11831603135908FA01FA075808F90194
:10096200F907C23083120313DC005C08FB000A1291
:100972008A11CE210A128A11C23083120313DC00BB
:100982005C08F000DA300A128A1568240A128A1109
:10099200DA3083120313C2000030C3000230C400F5
:1009A2000030C5000030C6000030C7000A128A15A8
:1009B20065250A128A11013083160313D400003010
:1009C200D5000130D6070318D70A0030D707ED2C1F
:1009D200ED2CD401D501ED2C5708803AFF00803070
:1009E2007F02031DF62C04305602031CF92CFA2C4C
:1009F200FC2C1E2D1E2D023083160313580659049B
:100A0200031D042D052D112D53085204031D0A2D1B
:100A12000B2D632C0130D2000030D3001E2D632C2D
:100A2200633058065904031D172D182D632CD2016B
:100A3200D301632C632C632C632C83160313D40120
:100A4200D501D601D7013D3083120313DC005C08C7
:100A5200F000A0300A128A15D6230A128A11A03099
:100A620083120313C2000030C3000130C4000030FF
:100A7200C5000130C6000030C7000A128A1565257C
:100A82000A128A11DF3083120313C2000030C3003E
:100A92000230C4000030C5000030C6000030C7007C
:100AA2000A128A1565250A128A11572D0A128A110D
:100AB200E6200A128A11750883160313D901D90791
:100AC2007408D801D80701305806590403196A2D51
:100AD2006B2D722D59085804031D702D712DDE2DBA
:100AE200722D55085404031D772D782DE12D5708DA
:100AF2005604031D7D2D7E2D8B2D3C308312031356
:100B0200DC005C08F000DF300A128A15D6230A12D4
:100B12008A118B2D793083120313C2008030C300F7
:100B22000230C4000030C5000030C6000030C700EB
:100B32000A128A1565250A128A11831603135908A7
:100B4200FA01FA075808F901F907C23083120313B0
:100B5200DC005C08FB000A128A11CE210A128A11FB
:100B6200C23083120313DC005C08F000DF300A128B
:100B72008A1568240A128A11DF3083120313C20015
:100B82000030C3000230C4000030C5000030C6008F
:100B92000030C7000A128A1565250A128A1101302F
:100BA20083160313D4000030D5000130D607031892
:100BB200D70A0030D707E12DE12DD401D501E12D6F
:100BC2005708803AFF0080307F02031DEA2D04306F
:100BD2005602031CED2DEE2DF02D122E122E023098
:100BE2008316031358065904031DF82DF92D052EFB
:100BF20053085204031DFE2DFF2D572D0130D20044
:100C02000030D300122E572D633058065904031DAD
:100C12000B2E0C2E572DD201D301572D572D572DA8
:100C2200572D83160313D401D501D601D7015130B4
:100C320083120313DC005C08F000A0300A128A154C
:100C4200D6230A128A11A03083120313C200003085
:100C5200C3000130C4000030C5000130C6000030BE
:100C6200C7000A128A1565250A128A11E430831216
:100C72000313C2000030C3000230C4000030C500BC
:100C82000030C6000030C7000A128A1565250A1214
:100C92008A114B2E0A128A11E6200A128A1175084D
:100CA20083160313D901D9077408D801D807013074
:100CB2005806590403195E2E5F2E662E59085804F1
:100CC200031D642E652ED22E662E55085404031D74
:100CD2006B2E6C2ED52E57085604031D712E722EC4
:100CE2007F2E3C3083120313DC005C08F000E430FA
:100CF2000A128A15D6230A128A117F2E793083129C
:100D02000313C2008030C3000230C4000030C500AB
:100D12000030C6000030C7000A128A1565250A1283
:100D22008A11831603135908FA01FA075808F901C0
:100D3200F907C23083120313DC005C08FB000A12BD
:100D42008A11CE210A128A11C23083120313DC00E7
:100D52005C08F000E4300A128A1568240A128A112B
:100D6200E43083120313C2000030C3000230C40017
:100D72000030C5000030C6000030C7000A128A15D4
:100D820065250A128A11013083160313D40000303C
:100D9200D5000130D6070318D70A0030D707D52E61
:100DA200D52ED401D501D52E5708803AFF008030C8
:100DB2007F02031DDE2E04305602031CE12EE22EBA
:100DC200E42E062F062F0230831603135806590409
:100DD200031DEC2EED2EF92E53085204031DF22EA4
:100DE200F32E4B2E0130D2000030D300062F4B2EB3
:100DF200633058065904031DFF2E002F4B2ED201DB
:100E0200D3014B2E4B2E4B2E4B2E83160313D401A4
:100E1200D501D601D701653083120313DC005C08CB
:100E2200F000A0300A128A15D6230A128A11A030C5
:100E320083120313C2000030C3000130C40000302B
:100E4200C5000130C6000030C7000A128A156525A8
:100E52000A128A11E93083120313C2000030C30060
:100E62000230C4000030C5000030C6000030C700A8
:100E72000A128A1565250A128A113F2F0A128A114F
:100E8200E6200A128A11750883160313D901D907BD
:100E92007408D801D8070130580659040319522F93
:100EA200532F5A2F59085804031D582F592FC62F54
:100EB2005A2F55085404031D5F2F602FC92F57085E
:100EC2005604031D652F662F732F3C3083120313C4
:100ED200DC005C08F000E9300A128A15D6230A12F7
:100EE2008A11732F793083120313C2008030C3003A
:100EF2000230C4000030C5000030C6000030C70018
:100F02000A128A1565250A128A11831603135908D3
:100F1200FA01FA075808F901F907C23083120313DC
:100F2200DC005C08FB000A128A11CE210A128A1127
:100F3200C23083120313DC005C08F000E9300A12AD
:100F42008A1568240A128A11E93083120313C20037
:100F52000030C3000230C4000030C5000030C600BB
:100F62000030C7000A128A1565250A128A1101305B
:100F720083160313D4000030D5000130D6070318BE
:100F8200D70A0030D707C92FC92FD401D501C92FDD
:100F92005708803AFF0080307F02031DD22F0430B1
:100FA2005602031CD52FD62FD82FFA2FFA2F023034
:100FB2008316031358065904031DE02FE12FED2F6A
:100FC20053085204031DE62FE72F3F2F0130D200B2
:100FD2000030D300FA2F3F2F633058065904031D07
:100FE200F32FF42F3F2FD201D3013F2F3F2F3F2F5B
:0E0FF2003F2F0A128A15A3260A128A11080040
:1016CE008312031307118711061386130800831262
:1016DE0003138601C03083160313860008006400CE
:1016EE008001840A0406031900340406772B0130A6
:1016FE00F8000030F9000A128A15F6230A128A152C
:10170E0008007E088A007F08820088230A128A1544
:10171E008000840A04087D0603190034FF0A0319A9
:10172E00FE0A8C2B9B2B9B2B0130F0020030031CEE
:10173E00F103F102FF307106031DA72BFF30700677
:10174E00031DAA2BAB2B9B2BAC2B08003134303452
:10175E0030343134003431343034313431340034B7
:10176E003134313431343134003431343034303476
:10177E00303400340A128A15BB240A128A150A1252
:10178E008A156E230A128A15CC2B0A128A11FD2392
:10179E000A128A15CC2BCC2B0A128A110028F200C1
:1017AE007208F1007108F300DD2BDD2B0130F0071C
:1017BE00FF30700784000A128A110D200A128A1552
:1017CE00F100730884000130F30771088313800061
:1017DE008008031DF32BF42BDD2BF52B0800790865
:1017EE00F101F1077808F001F0070A128A11B92207
:1017FE000A128A1583120313071087141430F0008F
:10180E000030F1000A128A1599230A128A158312E2
:10181E00031387101430F0000030F1000A128A15FD
:10182E0099230A128A1508007908F101F107780840
:10183E00F001F0070A128A11B9220A128A158312D0
:10184E000313071487141430F0000030F1000A124D
:10185E008A1599230A128A158312031387101430DE
:10186E00F0000030F1000A128A1599230A128A1527
:10187E000800831790308400A0300A128A15762350
:10188E000A128A158313EE30FD000B30FE00AD30C8
:10189E00FF00DA3084000A128A158C230A128A1588
:1018AE006530FD000030FE00E130FF006030840046
:1018BE000A128A158C230A128A1583010A128A15B6
:1018CE00C12BF2007208F1007108F300732C013085
:1018DE00F1007108F307732C7308840083138008DA
:1018EE00031D7A2C7B2C6E2C7E2C7E2C7E2C70086D
:1018FE0084000130F0070008F10073088400013005
:10190E00F307710880008008031D8E2C8F2C7E2C0F
:10191E00902C0800F401F501942C701C972C982C37
:10192E009E2C7208F4070318F50A7308F5070130A8
:10193E000310F20DF30DFF3E031D9F2C013003101B
:10194E00F10CF00CFF3E031DA62C71087004031D54
:10195E00B12CB22C942CB32C7508F101F10774083C
:10196E00F001F007BA2C0800FC3083160313870031
:10197E0088013830F8000030F9000A128A15F62373
:10198E000A128A150C30F8000030F9000A128A1576
:10199E00F6230A128A150130F8000030F9000A12F7
:1019AE008A15F6230A128A158030F8000030F900E5
:1019BE000A128A15F6230A128A150F30F800003023
:1019CE00F9000A128A15F6230A128A150800F70082
:1019DE00F12CF12C7708840083130008F2007108B3
:1019EE00F4007008F3000130F0070318F10A7408D0
:1019FE0083120313FF00730884000A128A11032056
:101A0E000A128A15FF3A013E7207F5007508F600B4
:101A1E00F608031D132D142D202D77088400013098
:101A2E00F70783138008031D1D2D1E2DF12C202D6D
:101A3E00202D7608F000F101F01BF103262D080091
:101A4E000A128A1567230A128A1501307206730468
:101A5E00031D322D332D372D8312031306145B2DE8
:101A6E00023072067304031D3D2D3E2D422D83124E
:101A7E00031386145B2D033072067304031D482D69
:101A8E00492D4D2D8312031306155B2D043072065E
:101A9E007304031D532D542D5B2D831203138615D2
:101AAE005B2D5B2D5B2D5B2DC830F0000030F100FF
:101ABE000A128A1599230A128A1508000130831218
:101ACE00031346064704031D6D2D6E2D742D0A1249
:101ADE008A157E230A128A15742D0230831203137F
:101AEE0044064504031D7C2D7D2D872DC030F80046
:101AFE000030F9000A128A15F6230A128A15912D62
:101B0E000230F8000030F9000A128A15F6230A1284
:101B1E008A15912DFC01FD01B42D7C08831203134F
:101B2E004207840043080318430AFF000A128A1171
:101B3E0003200A128A15FA00FB017A08F8007B08C6
:101B4E00F9000A128A151B240A128A150130FC07A5
:101B5E000318FD0A0030FD07B42D7C088312031311
:101B6E004207840043080318430AFF000A128A1131
:101B7E0003200A128A150038031DC62DC72D942D79
:101B8E00C82D0800F601F31FCD2DCE2DD72DF2094D
:101B9E00F309F20A0319F30AF6010314F60DD72D11
:101BAE00F11FDA2DDB2DE12DF009F109F00A0319F1
:101BBE00F10AE12D710870040319E62DE72D1D2E93
:101BCE00F5010314F50DF72D01300310F00DF10D95
:101BDE00FF3E031DEC2D0130F4007408F507F72DC0
:101BEE00F11FFA2DFB2DEB2DFD2DFD2D710873022E
:101BFE00031D032E70087202031C062E072E0E2ED6
:101C0E007008F2027108031CF303F3020E2E01306A
:101C1E000310F10CF00CFF3E031D0F2E0130F502E8
:101C2E00031D1A2E1B2EFD2D1D2E1D2E7608031D97
:101C3E00212E272EF209F309F20A0319F30A272E91
:101C4E007308F101F1077208F001F0072E2E08005B
:101C5E00F601F11F332E342E3D2EF009F109F00A54
:101C6E000319F10AF6010314F60D3D2EF31F402E53
:101C7E00412E4B2EF209F309F20A0319F30A013031
:101C8E00F4007408F6064B2EF701F8017108700483
:101C9E000319522E532E912EF5010314F50D632EBA
:101CAE0001300310F00DF10DFF3E031D582E0130D3
:101CBE00F4007408F507632EF11F662E672E572E5B
:101CCE00692E692E01300310F70DF80DFF3E031D2E
:101CDE006A2E71087302031D762E70087202031CA1
:101CEE00792E7A2E822E7008F2027108031CF303ED
:101CFE00F3027714822E01300310F10CF00CFF3E2C
:101D0E00031D832E0130F502031D8E2E8F2E692E9C
:101D1E00912E912E7608031D952E9B2EF709F8090C
:101D2E00F70A0319F80A9B2E7808F101F1077708D4
:101D3E00F001F007A22E0800303083160313850041
:101D4E00831203138501071EAD2EAE2EB32E313036
:101D5E00F8007808E000B32E871EB62EB72EBC2EE4
:101D6E003130F8007808E100BC2E851EBF2EC02E43
:101D7E00C52E3130F8007808E200C52E871FC82E18
:101D8E00C92ECE2E3130F8007808E400CE2EF9019F
:101D9E00FA01DA30F0000030F10060300A128A15D4
:101DAE00EE240A128A1571087004031DDF2EE02E30
:101DBE00E72E01307904F90000307A04FA00E72E9C
:101DCE00DF30F0000030F10060300A128A15EE2488
:101DDE000A128A1571087004031DF62EF72EFE2EB8
:101DEE0002307904F90000307A04FA00FE2EE43055
:101DFE00F0000030F10060300A128A15EE240A124B
:101E0E008A1571087004031D0D2F0E2F152F043027
:101E1E007904F90000307A04FA00152FE930F00049
:101E2E000030F10060300A128A15EE240A128A156B
:101E3E0071087004031D242F252F2B2F08307904D1
:101E4E00F90000307A04FA00790883120313850032
:101E5E00302F302F080083120313D7005708C2000B
:101E6E008030C3000130C4000030C5000030C60011
:101E7E000030C7000A128A1565250A128A158312C8
:101E8E000313D501D601D801D901CD01CE015C2FA6
:101E9E000130DA070318DB0A0030DB070130D80700
:101EAE000318D90A0030D9075C2F5A085707840047
:101EBE000A128A110D200A128A150038031D682F86
:101ECE00692F4F2F6A2F5808FF3ECF00590803186D
:101EDE00013EFF3ED0005908803AFF0080307F025D
:101EEE00031D7B2F21305802031C7E2F7F2FFF2FC7
:101EFE0083120313D101D2011F30D3000030D4005E
:101F0E00882F83120313DA01DB01A02FB830F00003
:101F1E000B30F1000A128A1599230A128A151E3007
:101F2E00F8000030F9000A128A15F6230A128A15F3
:101F3E00A02F013083120313DA070318DB0A0030D7
:101F4E00DB075B08803AFF0080307F02031DB12F54
:101F5E0021305A02031CB42FB52F8D2FB62F8312AA
:101F6E000313DA01DB01CE2FB830F0000B30F10095
:101F7E000A128A1599230A128A151830F8000030B1
:101F8E00F9000A128A15F6230A128A15CE2F01308D
:101F9E0083120313DA070318DB0A0030DB075B0832
:101FAE00803AFF0080307F02031DDF2F21305A025E
:101FBE00031CE22FE32FBB2FE42F831203135608CB
:101FCE00CB005508CA000130D5070318D60A4B08B6
:101FDE00803ACC004908803A4C02031DF82F48087D
:101FEE004A020318FB2FFC2FFF2F882F882FFF2F5D
:021FFE000800D9
:00000001FF
