:100000000A128A15082DFF1B0D2883137F188317EA
:100010000008840A0319FF0A080000308A00040857
:10002000840A8207003410340034573445344C3489
:1000300043344F344D344534203421342034543447
:100040004F342034503452344F34473452344134D6
:100050004D34413442344C344534203448344F34E8
:100060004D34453420344134553454344D344134C6
:1000700054344E34003445346E3474346534723440
:1000800020344C346F34673469346334203444345E
:100090004534563431343A34203420340034453435
:1000A0006E3474346534723420344C346F346734B5
:1000B00069346334203444344534563432343A3469
:1000C00020342034003445346E3474346534723452
:1000D00020344C346F34673469346334203444340E
:1000E0004534563433343A342034203400344534E3
:1000F0006E3474346534723420344C346F34673465
:1001000069346334203444344534563434343A3416
:100110002034203400342D342D342D342D3400344B
:100124007E088A007F08820092200A128A118000C9
:10013400840A04087D0603190034FF0A0319FE0A21
:1001440096280130F2000030F3000A128A15B62511
:100154000A128A1183120313071DB128B228B72883
:10016400F401F5018A298A29DA28871DBA28BB28CF
:10017400C2280130F4000030F5008A298A29DA28DF
:10018400061FC528C628CD280330F4000030F5002A
:100194008A298A29DA28861FD028D128DA28043027
:1001A400F4000030F5008A298A29DA28DA28DA28C6
:1001B4000230F2000030F3000A128A15B6250A1242
:1001C4008A1183120313071DE828E928F028053053
:1001D400F4000030F5008A298A291329871DF328A1
:1001E400F428FB280630F4000030F5008A298A2917
:1001F4001329061FFE28FF2806290730F4000030C3
:10020400F5008A298A291329861F09290A2913290D
:100214000830F4000030F5008A298A2913291329AB
:1002240013290330F2000030F3000A128A15B625B0
:100234000A128A1183120313071D2129222929294D
:100244000930F4000030F5008A298A294C29871DD9
:100254002C292D2934290A30F4000030F5008A298C
:100264008A294C29061F372938293F290B30F400E5
:100274000030F5008A298A294C29861F42294329FE
:100284004C290C30F4000030F5008A298A294C29C5
:100294004C294C290430F2000030F3000A128A156C
:1002A400B6250A128A1183120313071D5A295B29E2
:1002B40062290D30F4000030F5008A298A29852945
:1002C400871D652966296D290E30F4000030F5007C
:1002D4008A298A298529061F7029712978290F30CE
:1002E400F4000030F5008A298A298529861F7B2994
:1002F4007C2985291030F4000030F5008A298A29E8
:100304008529852985296330F4000030F5008A2980
:10031400080083120313A001A101FB08031D932904
:1003240094299629752A752A7A087904031D9B292C
:100334009C29A5293030FC007B0884007C088313A9
:100344008000752A752AFA1FA829A929D229FF3005
:10035400F000FF30F1007A08F301F3077908F201A5
:10036400F2070A128A1559250A128A117108FA012C
:10037400FA077008F901F9072D30FC007B088400A6
:100384007C08831380000130FC007C08FB070130EB
:1003940083120313A0070318A10A0030A107D2296E
:1003A4007A08A301A3077908A201A2072308803AC7
:1003B400FF0080307F02031DE1290130220203186F
:1003C400E429E529E729122A122A0A30F00000302C
:1003D400F100831203132308F301F3072208F20147
:1003E400F2070A128A15BE260A128A1171088312AC
:1003F4000313A301A3077008A201A2070130FC00A4
:100404007C08FB072308803AFF0080307F02031D2D
:100414000D2A013022020318102A112AE729122A70
:100424007B088400831380017A0883120313A301D9
:10043400A3077908A201A2072308803AFF008030AD
:100444007F02031D272A0130220203182A2A2B2A9D
:100454002D2A752A752A0A30F0000030F100831223
:1004640003132308F301F3072208F201F2070A1227
:100474008A1558260A128A117008303EFC00013091
:10048400FB027B0884007C08831380000130831204
:100494000313A0070318A10A0030A1070A30F000D3
:1004A4000030F1002308F301F3072208F201F207F8
:1004B4000A128A15BE260A128A11710883120313BE
:1004C400A301A3077008A201A2072308803AFF0032
:1004D40080307F02031D702A013022020318732A20
:1004E400742A2D2A752A080083120313C001C1013E
:1004F400013084000A128A110D200A128A11F200B6
:100504000A128A110D200A128A11F3004108803A56
:10051400F4007308803A7402031D922A72084002A0
:10052400031C952A962A982AD92AD92A83120313B6
:10053400400AF2007108F4007008F300A42A0310C2
:10054400F30DF40DF20BA12A0030F41B0130F50079
:10055400F6014008F7007707203E840075088313EE
:100564008000840A760880000130C0070318C10A9D
:100574000030C107013084000A128A110D200A12CA
:100584008A11F2000A128A110D200A128A11F3004C
:100594004108803AF4007308803A7402031DD42A97
:1005A40072084002031CD72AD82A982AD92A013073
:1005B40084000A128A110D200A128A11F2007207AD
:1005C400FE3E203E840083130008F300840A0008E2
:1005D400F4007318EE2AF22A831203130814F52A7E
:1005E400831203130810013084000A128A110D20AB
:1005F4000A128A11F2007207FC3E203E8400831323
:100604000008F300840A0008F40073180A2B0E2B68
:10061400831203138814112B8312031388100130DF
:1006240084000A128A110D200A128A11F20072073C
:10063400FA3E203E840083130008F300840A000875
:10064400F4007318262B2A2B8312031308152D2B61
:10065400831203130811013084000A128A110D2039
:100664000A128A11F2007207F83E203E84008313B6
:100674000008F300840A0008F4007318422B462B88
:10068400831203138815492B831203138811013035
:1006940084000A128A110D200A128A11F2007207CC
:1006A400F63E203E840083130008F300840A000809
:1006B400F40073185E2B622B831203130816652B48
:1006C400831203130812013084000A128A110D20C8
:1006D4000A128A11F2007207F43E203E840083134A
:1006E4000008F300840A0008F40073187A2B7E2BA8
:1006F400831203138816812B83120313881201308B
:1007040084000A128A110D200A128A11F20072075B
:10071400F23E203E840083130008F300840A00089C
:10072400F4007318962B9A2B8312031308179D2B2E
:10073400831203130813013084000A128A110D2056
:100744000A128A11F2007207F03E203E84008313DD
:100754000008F300840A0008F4007318B22BB62BC7
:10076400831203138817B92B831203138813080009
:10077400D230840083120313600883138000840A38
:1007840061088000840A62088000840A630880008B
:10079400840A64088000D730840065088000840AD5
:1007A40066088000840A67088000840A680880005C
:1007B400840A69088000DC3084006A088000840AA6
:1007C4006B088000840A6C088000840A6D0880002D
:1007D400840A6E088000E130840083160317200821
:1007E4008000840A21088000840A22088000840A88
:1007F40023088000840A2408800000308312031335
:10080400C8000030C90003300A128A1532270A12C0
:100814008A11C2308400903083120313DC00040870
:10082400DD001030DE005C08840083170008DF0060
:10083400DC0A5D08840083135F088000DD0ADE0B98
:10084400152C83160313E801E901E601E701C00151
:10085400C101EA01EB012E2C83160313E801E9011F
:10086400EA01EB01293083120313DC005C08F00079
:10087400A0300A128A159E240A128A11A03083120B
:100884000313C2000030C3000130C4000030C500AF
:100894000130C6000030C7000A128A15F4250A1276
:1008A4008A11D23083120313C2000030C300023015
:1008B400C4000030C5000030C6000030C7000A1272
:1008C4008A15F4250A128A11672C0A128A11A320A8
:1008D4000A128A11750883160313ED01ED077408D3
:1008E400EC01EC0701306C066D0403197A2C7B2CA7
:1008F400822C6D086C04031D802C812CEE2C822C20
:1009040069086804031D872C882CF12C6B086A0481
:10091400031D8D2C8E2C9B2C3C3083120313DC0086
:100924005C08F000D2300A128A159E240A128A1139
:100934009B2C793083120313C2008030C300023031
:10094400C4000030C5000030C6000030C7000A12E1
:100954008A15F4250A128A11831603136D08FA0105
:10096400FA076C08F901F907C23083120313DC009B
:100974005C08FB000A128A118B210A128A11C23008
:1009840083120313DC005C08F000D2300A128A15CB
:1009940030250A128A11D23083120313C2000030A8
:1009A400C3000230C4000030C5000030C60000306F
:1009B400C7000A128A15F4250A128A110130831617
:1009C4000313E8000030E9000130EA070318EB0ADA
:1009D4000030EB07F12CF12CE801E901F12C6B0854
:1009E400803AFF0080307F02031DFA2C04306A0233
:1009F400031CFD2CFE2C002D222D222D02308316EB
:100A040003136C066D04031D082D092D152D6708AD
:100A14006604031D0E2D0F2D672C0130E6000030F7
:100A2400E700222D672C63306C066D04031D1B2D1B
:100A34001C2D672CE601E701672C672C672C672CBB
:100A440083160313E801E901EA01EB013D30831247
:100A54000313DC005C08F000A0300A128A159E24FF
:100A64000A128A11A03083120313C2000030C3009B
:100A74000130C4000030C5000130C6000030C7009A
:100A84000A128A15F4250A128A11D7308312031325
:100A9400C2000030C3000230C4000030C500003082
:100AA400C6000030C7000A128A15F4250A128A11FA
:100AB4005B2D0A128A11A3200A128A117508831663
:100AC4000313ED01ED077408EC01EC0701306C062B
:100AD4006D0403196E2D6F2D762D6D086C04031DA6
:100AE400742D752DE22D762D69086804031D7B2D68
:100AF4007C2DE52D6B086A04031D812D822D8F2D1D
:100B04003C3083120313DC005C08F000D7300A1277
:100B14008A159E240A128A118F2D793083120313A9
:100B2400C2008030C3000230C4000030C500003071
:100B3400C6000030C7000A128A15F4250A128A1169
:100B4400831603136D08FA01FA076C08F901F90713
:100B5400C23083120313DC005C08FB000A128A1102
:100B64008B210A128A11C23083120313DC005C0841
:100B7400F000D7300A128A1530250A128A11D730AC
:100B840083120313C2000030C3000230C4000030DB
:100B9400C5000030C6000030C7000A128A15F425CB
:100BA4000A128A11013083160313E8000030E900A9
:100BB4000130EA070318EB0A0030EB07E52DE52DB9
:100BC400E801E901E52D6B08803AFF0080307F02DF
:100BD400031DEE2D04306A02031CF12DF22DF42DB9
:100BE400162E162E0230831603136C066D04031D95
:100BF400FC2DFD2D092E67086604031D022E032E0D
:100C04005B2D0130E6000030E700162E5B2D6330CB
:100C14006C066D04031D0F2E102E5B2DE601E701FB
:100C24005B2D5B2D5B2D5B2D83160313E801E9011E
:100C3400EA01EB01513083120313DC005C08F0007D
:100C4400A0300A128A159E240A128A11A030831237
:100C54000313C2000030C3000130C4000030C500DB
:100C64000130C6000030C7000A128A15F4250A12A2
:100C74008A11DC3083120313C2000030C300023037
:100C8400C4000030C5000030C6000030C7000A129E
:100C94008A15F4250A128A114F2E0A128A11A320EA
:100CA4000A128A11750883160313ED01ED077408FF
:100CB400EC01EC0701306C066D040319622E632EFF
:100CC4006A2E6D086C04031D682E692ED62E6A2EBA
:100CD40069086804031D6F2E702ED92E6B086A04F0
:100CE400031D752E762E832E3C3083120313DC00F5
:100CF4005C08F000DC300A128A159E240A128A115C
:100D0400832E793083120313C2008030C300023073
:100D1400C4000030C5000030C6000030C7000A120D
:100D24008A15F4250A128A11831603136D08FA0131
:100D3400FA076C08F901F907C23083120313DC00C7
:100D44005C08FB000A128A118B210A128A11C23034
:100D540083120313DC005C08F000DC300A128A15ED
:100D640030250A128A11DC3083120313C2000030CA
:100D7400C3000230C4000030C5000030C60000309B
:100D8400C7000A128A15F4250A128A110130831643
:100D94000313E8000030E9000130EA070318EB0A06
:100DA4000030EB07D92ED92EE801E901D92E6B08C2
:100DB400803AFF0080307F02031DE22E04306A0275
:100DC400031CE52EE62EE82E0A2F0A2F0230831686
:100DD40003136C066D04031DF02EF12EFD2E67081F
:100DE4006604031DF62EF72E4F2E0130E600003068
:100DF400E7000A2F4F2E63306C066D04031D032F8A
:100E0400042F4F2EE601E7014F2E4F2E4F2E4F2E6B
:100E140083160313E801E901EA01EB01653083124B
:100E24000313DC005C08F000A0300A128A159E242B
:100E34000A128A11A03083120313C2000030C300C7
:100E44000130C4000030C5000130C6000030C700C6
:100E54000A128A15F4250A128A11E1308312031347
:100E6400C2000030C3000230C4000030C5000030AE
:100E7400C6000030C7000A128A15F4250A128A1126
:100E8400432F0A128A11A3200A128A1175088316A5
:100E94000313ED01ED077408EC01EC0701306C0657
:100EA4006D040319562F572F5E2F6D086C04031D14
:100EB4005C2F5D2FCA2F5E2F69086804031D632F02
:100EC400642FCD2F6B086A04031D692F6A2F772FB7
:100ED4003C3083120313DC005C08F000E1300A129A
:100EE4008A159E240A128A11772F793083120313EC
:100EF400C2008030C3000230C4000030C50000309E
:100F0400C6000030C7000A128A15F4250A128A1195
:100F1400831603136D08FA01FA076C08F901F9073F
:100F2400C23083120313DC005C08FB000A128A112E
:100F34008B210A128A11C23083120313DC005C086D
:100F4400F000E1300A128A1530250A128A11E130C4
:100F540083120313C2000030C3000230C400003007
:100F6400C5000030C6000030C7000A128A15F425F7
:100F74000A128A11013083160313E8000030E900D5
:100F84000130EA070318EB0A0030EB07CD2FCD2F11
:100F9400E801E901CD2F6B08803AFF0080307F0221
:100FA400031DD62F04306A02031CD92FDA2FDC2F3D
:100FB4002E2C2E2C0230831603136C066D04031D95
:100FC400E42FE52FF12F67086604031DEA2FEB2FAA
:100FD400432F0130E6000030E7002E2C432F63300E
:100FE4006C066D04031DF72FF82F432FE601E7016C
:0C0FF400432F432F432F432F2E2C0800C7
:1018800031343034313430340034831203130711CF
:101890008711061386130800831203138601C030D4
:1018A000831603138600080064008001840A04067E
:1018B000031900340406552C0130F8000030F900FB
:1018C0000A128A15BE240A128A15080031343034EF
:1018D0003034313400343134303431343134003444
:1018E00031343134313431340034772C772C0130B9
:1018F000F0020030031CF103F102FF307106031DFA
:10190000832CFF307006031D862C872C772C882CA7
:1019100008000A128A1583250A128A150A128A15E6
:101920004C240A128A15942C0A128A11BA230A121C
:101930008A15942C942C0A128A110028F20072083D
:10194000F1007108F300A52CA52C0130F007FF3041
:10195000700784000A128A110D200A128A15F100FC
:10196000730884000130F307710883138000800836
:10197000031DBB2CBC2CA52CBD2C08007908F10143
:10198000F1077808F001F0070A128A1176220A128C
:101990008A1583120313071087141430F0000030E7
:1019A000F1000A128A1575240A128A15831203138C
:1019B00087101430F0000030F1000A128A157524E7
:1019C0000A128A1508007908F101F1077808F00178
:1019D000F0070A128A1176220A128A15831203135B
:1019E000071487141430F0000030F1000A128A1531
:1019F00075240A128A158312031387101430F0001D
:101A00000030F1000A128A1575240A128A1508009E
:101A1000831790308400A0300A128A1554240A12C9
:101A20008A15A530FD000C30FE004030FF00A030CC
:101A300084000A128A1196200A128A1583136F30C5
:101A4000FD000C30FE006630FF00603084000A129A
:101A50008A1196200A128A1583010A128A15892C86
:101A6000F2007208F1007108F3003B2D0130F10023
:101A70007108F3073B2D7308840083138008031D4E
:101A8000422D432D362D462D462D462D70088400BF
:101A90000130F0070008F100730884000130F307FB
:101AA000710880008008031D562D572D462D582D96
:101AB0000800F401F5015C2D701C5F2D602D662D72
:101AC0007208F4070318F50A7308F50701300310CC
:101AD000F20DF30DFF3E031D672D01300310F10CD5
:101AE000F00CFF3E031D6E2D71087004031D792D4F
:101AF0007A2D5C2D7B2D7508F101F1077408F0013A
:101B0000F007822D08000C3083160313870088012C
:101B10003830F8000030F9000A128A15BE240A1283
:101B20008A150C30F8000030F9000A128A15BE241C
:101B30000A128A150130F8000030F9000A128A15DD
:101B4000BE240A128A158030F8000030F9000A120B
:101B50008A15BE240A128A150F30F8000030F900E9
:101B60000A128A15BE240A128A1508000A128A155A
:101B700045240A128A15013072067304031DC12D13
:101B8000C22DC62D831203130614EA2D02307206ED
:101B90007304031DCC2DCD2DD12D83120313861478
:101BA000EA2D033072067304031DD72DD82DDC2DCA
:101BB000831203130615EA2D043072067304031D05
:101BC000E22DE32DEA2D831203138615EA2DEA2D6B
:101BD000EA2DEA2DC830F0000030F1000A128A1513
:101BE00075240A128A150800013083120313460671
:101BF0004704031DFC2DFD2D032E0A128A155C24BB
:101C00000A128A15032E0230831203134406450478
:101C1000031D0B2E0C2E162EC030F8000030F900DC
:101C20000A128A15BE240A128A15202E0230F800E4
:101C30000030F9000A128A15BE240A128A15202ED5
:101C4000FC01FD01432E7C0883120313420784002C
:101C500043080318430AFF000A128A1103200A12DC
:101C60008A15FA00FB017A08F8007B08F9000A12CD
:101C70008A15E3240A128A150130FC070318FD0AAD
:101C80000030FD07432E7C088312031342078400B3
:101C900043080318430AFF000A128A1103200A129C
:101CA0008A150038031D552E562E232E572E080058
:101CB000F601F31F5C2E5D2E662EF209F309F20A7F
:101CC0000319F30AF6010314F60D662EF11F692EAF
:101CD0006A2E702EF009F109F00A0319F10A702E2C
:101CE000710870040319752E762EAC2EF5010314BD
:101CF000F50D862E01300310F00DF10DFF3E031D92
:101D00007B2E0130F4007408F507862EF11F892E12
:101D10008A2E7A2E8C2E8C2E71087302031D922E21
:101D200070087202031C952E962E9D2E7008F202EA
:101D30007108031CF303F3029D2E01300310F10C14
:101D4000F00CFF3E031D9E2E0130F502031DA92E4F
:101D5000AA2E8C2EAC2EAC2E7608031DB02EB62EDD
:101D6000F209F309F20A0319F30AB62E7308F10116
:101D7000F1077208F001F007BD2E0800F601F11F0F
:101D8000C22EC32ECC2EF009F109F00A0319F10A74
:101D9000F6010314F60DCC2EF31FCF2ED02EDA2E23
:101DA000F209F309F20A0319F30A0130F400740886
:101DB000F606DA2EF701F801710870040319E12E16
:101DC000E22E202FF5010314F50DF22E0130031041
:101DD000F00DF10DFF3E031DE72E0130F4007408F5
:101DE000F507F22EF11FF52EF62EE62EF82EF82E20
:101DF00001300310F70DF80DFF3E031DF92E710899
:101E00007302031D052F70087202031C082F092F8F
:101E1000112F7008F2027108031CF303F302771408
:101E2000112F01300310F10CF00CFF3E031D122F97
:101E30000130F502031D1D2F1E2FF82E202F202FFD
:101E40007608031D242F2A2FF709F809F70A03192A
:101E5000F80A2A2F7808F101F1077708F001F00756
:101E6000312F080083120313D7005708C2008030B7
:101E7000C3000130C4000030C5000030C60000308F
:101E8000C7000A128A15F4250A128A158312031351
:101E9000D501D601D801D901CD01CE015C2F013089
:101EA000DA070318DB0A0030DB070130D807031814
:101EB000D90A0030D9075C2F5A08570784000A1244
:101EC0008A110D200A128A150038031D682F692F08
:101ED0004F2F6A2F5808FF3ECF0059080318013EC4
:101EE000FF3ED0005908803AFF0080307F02031D7A
:101EF0007B2F21305802031C7E2F7F2FFF2F831250
:101F00000313D101D2011F30D3000030D400882F39
:101F100083120313DA01DB01A02FB830F0000B307D
:101F2000F1000A128A1575240A128A151E30F8006B
:101F30000030F9000A128A15BE240A128A15A02F51
:101F4000013083120313DA070318DB0A0030DB07C2
:101F50005B08803AFF0080307F02031DB12F2130E3
:101F60005A02031CB42FB52F8D2FB62F83120313E3
:101F7000DA01DB01CE2FB830F0000B30F1000A128D
:101F80008A1575240A128A151830F8000030F900F5
:101F90000A128A15BE240A128A15CE2F0130831226
:101FA0000313DA070318DB0A0030DB075B08803A0B
:101FB000FF0080307F02031DDF2F21305A02031CF7
:101FC000E22FE32FBB2FE42F831203135608CB001D
:101FD0005508CA000130D5070318D60A4B08803AC5
:101FE000CC004908803A4C02031DF82F48084A02E9
:101FF0000318FB2FFC2FFF2F882F882FFF2F08009F
:00000001FF
