:060000000A128A11B42E61
:100D680083010A128A11122F8312031388120A129E
:100D78008A11DE260A128A110800831203138816C4
:100D88000A128A11DE260A128A110800CC2ECC2EED
:100D98000130F0020030031CF103F102FF3071064C
:100DA800031DD82EFF307006031DDB2EDC2ECC2E43
:100DB800DD2E0800831203130816FA30F000003005
:100DC800F1000A128A11CA260A128A118312031321
:100DD80008122C30F0000130F1000A128A11CA26DC
:100DE8000A128A110800F3000130F100700AFE2E81
:100DF8000310F10DFF3E031DFC2E7108F20072086E
:100E0800F40073087405F100700A0C2F0310F10C3C
:100E1800FF3E031D0A2F7108112F080083160313C4
:100E28008701C030880038300A128A115A270A12FE
:100E38008A110A128A11B8260A128A110C300A126B
:100E48008A115A270A128A110A128A11B8260A1216
:100E58008A1101300A128A115A270A128A110A12B3
:100E68008A11B8260A128A1180300A128A115A2762
:100E78000A128A110A128A11B8260A128A114130F6
:100E88000A128A115A270A128A110A128A11C126CD
:100E98000A128A11831603138601FF308312031383
:100EA8008600562F562F0A128A110028F700F001E3
:100EB80077080A128A11F7260A128A11F50075189E
:100EC800662F6A2F8312031388156D2F831203135D
:100ED8008811F0010314F00D77080A128A11F72619
:100EE8000A128A11F50075187A2F7E2F83120313C0
:100EF8000815812F8312031308110230F5007508B5
:100F0800F00077080A128A11F7260A128A11F600E9
:100F180076188F2F932F831203138814962F83121A
:100F2800031388100330F5007508F00077080A12DB
:100F38008A11F7260A128A11F6007618A42FA82F0C
:100F4800831203130814AB2F831203130810043001
:100F5800F5007508F00077080A128A11F7260A12B8
:100F68008A11F6007618B92FBD2F8312031387153F
:100F7800C02F8312031387110530F5007508F000A0
:100F880077080A128A11F7260A128A11F6007618CB
:100F9800CE2FD22F831203130715D52F83120313D5
:100FA80007110630F5007508F00077080A128A1153
:100FB800F7260A128A11F6007618E32FE72F831214
:100FC80003138714EA2F8312031387100730F500E1
:100FD8007508F00077080A128A11F7260A128A1192
:100FE800F6007618F82FFC2F831203130714FF2F2F
:080FF800831203130710080027
:00000001FF
