:060000000A128A11522FC2
:100E82007E088A007F08820041270A128A118000A8
:100E9200840A04087D0603190034FF0A0319FE0AB6
:100EA200452F83135C30FD000730FE006430FF00E5
:100EB200403084000A128A1145270A128A118301DE
:100EC2000A128A11802F3F340034063400345B3416
:100ED20000344F34003466340034ED340034FD34D1
:100EE200003487340034FF340034EF3400340134EA
:100EF2000034023400340434003408340034203026
:100F020084004030F0000408F1001430F200700850
:100F1200840083130008F300F00A71088400730848
:100F22008000F10AF20B882F343084005430F00034
:100F32000408F1000830F2007008840083130008EE
:100F4200F300F00A7108840073088000F10AF20BC2
:100F52009D2F83120313BE01BF012830BC00003055
:100F6200BD008316031387018801B72F8312031371
:100F7200BE01BF013F08803AFF0080307F02031D9F
:100F8200C42F04303E02031CC72FC82FCA2FB72F0D
:100F9200B72FFF308312031387003E08F00070075B
:100FA200343E8400831300088800D82FD82FFF30E6
:100FB200BC070318BD0AFF30BD07BD1FE12FE22F9A
:100FC200D82FE32F6430BC000030BD000130BE07D3
:100FD2000318BF0A0030BF073F08803AFF00803085
:100FE2007F02031DF62F04303E02031CF92FFA2F55
:0E0FF200CA2FB72FB72FB72F0A128A11002867
:00000001FF
