:060000000A128A11532FC1
:100E7000BF348634DB34CF34E634ED34FD3487348C
:100E8000FF34EF347E088A007F08820042270A126E
:100E90008A118000840A04087D0603190034FF0AC1
:100EA0000319FE0A462F83133630FD000730FE007B
:100EB0003830FF002C3084000A128A1146270A12AB
:100EC0008A1183010A128A11972F672F672F013029
:100ED000F4000030F5000030F6000030F700740830
:100EE000F0027508031C750F762F772FF102760834
:100EF000031C760F7C2F7D2FF2027708031C770FDF
:100F0000822F832FF302FF307306031D912FFF30D2
:100F10007206031D912FFF307106031D912FFF30C4
:100F20007006031D942F952F672F962F08002430ED
:100F3000831603139800193099008312031398172E
:100F4000203084002C30F8000408F9000A30FA0040
:100F50007808840083130008FB00F80A79088400ED
:100F60007B088000F90AFA0BA82FB62F831203130F
:100F7000AA01AB012B08803AFF0080307F02031DDD
:100F8000C32F0A302A02031CC62FC72FC92FB62F22
:100F9000B62F831203130C122A08203E84008313F9
:100FA00000089900D32F0C1ED62FD72FD32FD82F60
:100FB0000030F3000030F2002730F1001030F00074
:100FC0000A128A1165270A128A110130831203134B
:100FD000AA070318AB0A0030AB072B08803AFF00C2
:100FE00080307F02031DF62F0A302A02031CF92FDE
:100FF000FA2FC92FB62FB62FB62F0A128A11002842
:00000001FF
