:060000000A128A11E62D30
:100B9C0083120313081288120813881308007E08A6
:100BAC008A007F088200D5250A128A118000840AE7
:100BBC0004087D0603190034FF0A0319FE0AD92D17
:100BCC0083136430FD000530FE00F830FF00443024
:100BDC0084000A128A11D9250A128A1183010A1279
:100BEC008A11F42E3F340034063400345B34003464
:100BFC004F340034663400346D3400347D340034AA
:100C0C00073400347F3400346F34003477340034CC
:100C1C007C340034393400345E340034793400349C
:100C2C00713400340A128A11CE250A128A118312E9
:100C3C0003130816081C232E242E2B2E0130F00033
:100C4C000030F100F32EF32E4E2E881C2E2E2F2E5C
:100C5C00362E0230F0000030F100F32EF32E4E2E23
:100C6C00081D392E3A2E412E0330F0000030F100D1
:100C7C00F32EF32E4E2E881D442E452E4E2E043070
:100C8C00F0000030F100F32EF32E4E2E4E2E4E2E91
:100C9C000A128A11CE250A128A118312031388169E
:100CAC00081C592E5A2E612E0530F0000030F10030
:100CBC00F32EF32E842E881C642E652E6C2E06309B
:100CCC00F0000030F100F32EF32E842E081D6F2E51
:100CDC00702E772E0730F0000030F100F32EF32E3B
:100CEC00842E881D7A2E7B2E842E0830F000003046
:100CFC00F100F32EF32E842E842E842E0A128A11E8
:100D0C00CE250A128A11831203130817081C8F2E82
:100D1C00902E972E0930F0000030F100F32EF32EB8
:100D2C00BA2E881C9A2E9B2EA22E0A30F000003070
:100D3C00F100F32EF32EBA2E081DA52EA62EAD2EE5
:100D4C000B30F0000030F100F32EF32EBA2E881D7C
:100D5C00B02EB12EBA2E0C30F0000030F100F32E74
:100D6C00F32EBA2EBA2EBA2E0A128A11CE250A12D8
:100D7C008A11831203138817081CC52EC62ECD2E7C
:100D8C000D30F0000030F100F32EF32EF02E881C05
:100D9C00D02ED12ED82E0E30F0000030F100F32ED4
:100DAC00F32EF02E081DDB2EDC2EE32E0F30F00080
:100DBC000030F100F32EF32EF02E881DE62EE72ED8
:100DCC00F02E1030F0000030F100F32EF32EF02E48
:100DDC00F02EF02EF001F101F32E080020308400EB
:100DEC004430F2000408F3002030F4007208840050
:100DFC0083130008F500F20A73088400750880005C
:100E0C00F30AF40BFC2E8316031387010F308800B2
:100E1C00831203138701122F0A128A1118260A1241
:100E2C008A11710883120313C301C3077008C2012E
:100E3C00C207013042064304031D252F262F2B2FFA
:100E4C008030C0000030C100EB2F0230420643045A
:100E5C00031D312F322F372F4030C0000030C1001E
:100E6C00EB2F033042064304031D3D2F3E2F432F2F
:100E7C002030C0000030C100EB2F04304206430488
:100E8C00031D492F4A2F4F2F1030C0000030C100D6
:100E9C00EB2F053042064304031D552F562F5B2FB5
:100EAC000830C0000030C100EB2F0630420643046E
:100EBC00031D612F622F672F0430C0000030C1006A
:100ECC00EB2F073042064304031D6D2F6E2F732F3B
:100EDC000230C0000030C100EB2F08304206430442
:100EEC00031D792F7A2F7F2F0130C0000030C100F5
:100EFC00EB2F093042064304031D852F862F8B2FC1
:100F0C00C030C0000030C100EB2F0A304206430451
:100F1C00031D912F922F972F3030C0000030C1004D
:100F2C00EB2F0B3042064304031D9D2F9E2FA32F46
:100F3C000C30C0000030C100EB2F0C3042064304D3
:100F4C00031DA92FAA2FAF2F0330C0000030C10002
:100F5C00EB2F0D3042064304031DB52FB62FBB2FCC
:100F6C00E030C0000030C100EB2F0E3042064304CD
:100F7C00031DC12FC22FC72F1C30C0000030C10071
:100F8C00EB2F0F3042064304031DCD2FCE2FD12F54
:100F9C00C001C101EB2F103042064304031DD72FB3
:100FAC00D82FEB2FFF30C0000030C100EB2FEB2F00
:100FBC00EB2FEB2FEB2FEB2FEB2FEB2FEB2FEB2F55
:100FCC00EB2FEB2FEB2FEB2FEB2F430842040319E6
:100FDC00F02FF12F122F4208F2007207FE3E203E36
:100FEC008400831300088700122F122F122F0A126D
:040FFC008A1100282E
:00000001FF
