:100000000A128A15C92CFF1B0D2883137F1883172A
:100010000008840A0319FF0A080000308A00040857
:10002000840A8207003410340034573445344C3489
:1000300043344F344D344534203421342034543447
:100040004F342034503452344F34473452344134D6
:100050004D34413442344C344534203448344F34E8
:100060004D34453420344134553454344D344134C6
:1000700054344E34003445346E3474346534723440
:1000800020344C346F34673469346334203444345E
:100090004534563431343A34203420340034453435
:1000A0006E3474346534723420344C346F346734B5
:1000B00069346334203444344534563432343A3469
:1000C00020342034003445346E3474346534723452
:1000D00020344C346F34673469346334203444340E
:1000E0004534563433343A342034203400343134F7
:1000F0002E345334573454342034203432342E3494
:100100005234453450345234473400345334653417
:100110006E34733469346E3467342E342E342E3496
:10012000003433342E34523445345334453454344B
:1001300000343034303430343034003431343034FE
:1001400030343034003430343134303430340034EE
:1001500031343134303430340034303430343134AC
:1001600030340034313430343134303400343034CD
:10017000313431343034003431343134313430348A
:1001800000343034303430343134003431343034AD
:10019000303431340034303431343034313400349C
:1001A000313431343034313400343034303431345B
:1001B000313400343134303431343134003430347B
:1001C0003134313431340034313431343134313438
:1001D00000342D342D342D340034F601F11FF12874
:1001E000F228FB28F009F109F00A0319F10AF601D7
:1001F0000314F60DFB28F31FFE28FF280929F20936
:10020000F309F20A0319F30A0130F4007408F60640
:100210000929F701F801710870040319102911293F
:100220004F29F5010314F50D212901300310F00DBC
:10023000F10DFF3E031D16290130F4007408F50787
:100240002129F11F242925291529272927290130AA
:100250000310F70DF80DFF3E031D282971087302E6
:10026000031D342970087202031C372938294029DC
:100270007008F2027108031CF303F302771440299B
:1002800001300310F10CF00CFF3E031D4129013039
:10029000F502031D4C294D2927294F294F2976089E
:1002A000031D53295929F709F809F70A0319F80A10
:1002B00059297808F101F1077708F001F007602962
:1002C00008000130F2000030F3000A128A150425FC
:1002D0000A128A1183120313071D6F2970297529C9
:1002E000F401F501482A482A9829871D7829792997
:1002F00080290130F4000030F500482A482A982966
:10030000061F832984298B290230F4000030F50070
:10031000482A482A9829861F8E298F299829033030
:10032000F4000030F500482A482A9829982998298D
:100330000230F2000030F3000A128A1504250A1276
:100340008A1183120313071DA629A729AE29043099
:10035000F4000030F500482A482AD129871DB12928
:10036000B229B9290530F4000030F500482A482A9E
:10037000D129061FBC29BD29C4290630F40000304C
:10038000F500482A482AD129861FC729C829D1291A
:100390000730F4000030F500482A482AD129D12935
:1003A000D1290330F2000030F3000A128A15042527
:1003B0000A128A1183120313071DDF29E029E72996
:1003C0000830F4000030F500482A482A0A2A871D20
:1003D000EA29EB29F2290930F4000030F500482A17
:1003E000482A0A2A061FF529F629FD290A30F400B1
:1003F0000030F500482A482A0A2A861F002A012AC6
:100400000A2A0B30F4000030F500482A482A0A2A4C
:100410000A2A0A2A0430F2000030F3000A128A1570
:1004200004250A128A1183120313071D182A192A98
:10043000202A0C30F4000030F500482A482A432ACC
:10044000871D232A242A2B2A0D30F4000030F500C2
:10045000482A482A432A061F2E2A2F2A362A0E30D7
:10046000F4000030F500482A482A432A861F392A1A
:100470003A2A432A0F30F4000030F500482A482A6F
:10048000432A432A432A6330F4000030F500482A07
:10049000080083120313A001A101FB08031D512AC8
:1004A000522A542A332B332B7A087904031D592AF4
:1004B0005A2A632A3030FC007B0884007C088313AE
:1004C0008000332B332BFA1F662A672A902AFF30CD
:1004D000F000FF30F1007A08F301F3077908F20128
:1004E000F2070A128A1533240A128A117108FA01D6
:1004F000FA077008F901F9072D30FC007B08840029
:100500007C08831380000130FC007C08FB0701306D
:1005100083120313A0070318A10A0030A107902A31
:100520007A08A301A3077908A201A2072308803A49
:10053000FF0080307F02031D9F2A01302202031832
:10054000A22AA32AA52AD02AD02A0A30F0000030F5
:10055000F100831203132308F301F3072208F201C9
:10056000F2070A128A11ED200A128A117108831209
:100570000313A301A3077008A201A2070130FC0026
:100580007C08FB072308803AFF0080307F02031DB0
:10059000CB2A013022020318CE2ACF2AA52AD02A3C
:1005A0007B088400831380017A0883120313A3015C
:1005B000A3077908A201A2072308803AFF00803030
:1005C0007F02031DE52A013022020318E82AE92AE6
:1005D000EB2A332B332B0A30F0000030F10083126A
:1005E00003132308F301F3072208F201F2070A12AA
:1005F0008A15EF250A128A117008303EFC0001307E
:10060000FB027B0884007C08831380000130831286
:100610000313A0070318A10A0030A1070A30F00055
:100620000030F1002308F301F3072208F201F2077A
:100630000A128A11ED200A128A117108831203131B
:10064000A301A3077008A201A2072308803AFF00B4
:1006500080307F02031D2E2B013022020318312B24
:10066000322BEB2A332B080083120313C001C10184
:10067000013084000A128A110D200A128A11F20038
:100680000A128A110D200A128A11F3004108803AD9
:10069000F4007308803A7402031D502B7208400264
:1006A000031C532B542B562B972B972B831203137E
:1006B000400AF2007108F4007008F300622B031086
:1006C000F30DF40DF20B5F2B0030F41B0130F5003D
:1006D000F6014008F7007707203E84007508831371
:1006E0008000840A760880000130C0070318C10A20
:1006F0000030C107013084000A128A110D200A124D
:100700008A11F2000A128A110D200A128A11F300CE
:100710004108803AF4007308803A7402031D922B5A
:1007200072084002031C952B962B562B972B0130F9
:1007300084000A128A110D200A128A11F20072072F
:10074000FE3E203E840083130008F300840A000864
:10075000F4007318AC2BB02B831203130814B32BC3
:10076000831203130810013084000A128A110D202D
:100770000A128A11F2007207FC3E203E84008313A5
:100780000008F300840A0008F4007318C82BCC2B6F
:10079000831203138814CF2B8312031388100130A4
:1007A00084000A128A110D200A128A11F2007207BF
:1007B000FA3E203E840083130008F300840A0008F8
:1007C000F4007318E42BE82B831203130815EB2BAA
:1007D000831203130811013084000A128A110D20BC
:1007E0000A128A11F2007207F83E203E8400831339
:1007F0000008F300840A0008F4007318002C042C8D
:10080000831203138815072C8312031388110130F8
:1008100084000A128A110D200A128A11F20072074E
:10082000F63E203E840083130008F300840A00088B
:10083000F40073181C2C202C831203130816232C8D
:10084000831203130812013084000A128A110D204A
:100850000A128A11F2007207F43E203E84008313CC
:100860000008F300840A0008F4007318382C3C2CAC
:100870008312031388163F2C83120313881201304E
:1008800084000A128A110D200A128A11F2007207DE
:10089000F23E203E840083130008F300840A00081F
:1008A000F4007318542C582C8312031308175B2C74
:1008B000831203130813013084000A128A110D20D9
:1008C0000A128A11F2007207F03E203E8400831360
:1008D0000008F300840A0008F4007318702C742CCC
:1008E000831203138817772C8312031388130800CD
:1008F000003083120313C8000030C90003300A120D
:100900008A1555260A128A11C2308400903083124B
:100910000313DC000408DD001030DE005C088400F6
:1009200083170008DF00DC0A5D08840083135F087A
:100930008000DD0ADE0B8E2C83160313DA01DB0147
:10094000D801D901C001C101DC01DD01653083128C
:100950000313C2008030C3000130C4000030C50062
:100960000130C6000030C7000A128A158B250A1212
:100970008A117F3083120313C2008030C30002301B
:10098000C4000030C5000030C6000030C7000A12A5
:100990008A158B250A128A1183160313D201D301FB
:1009A000D401D501D601D701D52C0A128A116121B3
:1009B0000A128A11750883160313DF01DF07740812
:1009C000DE01DE0701305E065F04031DE82CE92C22
:1009D000F12C0130D2000030D300D401D501D60172
:1009E000D70102305E065F04031DF72CF82C002DA2
:1009F000D201D3010130D4000030D500D601D70197
:100A000003305E065F04031D062D072D102DD20155
:100A1000D301D401D5010130D6000030D700102D0C
:100A2000530852040319152D162D1C2D0A128A1570
:100A300023270A128A11D52C831603135508540450
:100A40000319232D242D272D342D342DD52C570873
:100A5000560403192C2D2D2DD52CFF2FFF2FD52C0F
:100A6000D52CD52CD52C342DDA01DB01DC01DD01B0
:100A70002930F0008030F100A0300A128A15E123FD
:100A80000A128A11A03083120313C2000030C3007F
:100A90000130C4000030C5000130C6000030C7007E
:100AA0000A128A158B250A128A11653083120313E4
:100AB000C2000030C3000230C4000030C500003066
:100AC000C6000030C7000A128A158B250A128A1147
:100AD000692D0A128A1161210A128A11750883167A
:100AE0000313DF01DF077408DE01DE0701305E0655
:100AF0005F0403197C2D7D2D842D5F085E04031D8A
:100B0000822D832DED2D842D5B085A04031D892D24
:100B10008A2DF02D5D085C04031D8F2D902D9A2DDC
:100B20003C30F0008030F10065300A128A15E12374
:100B30000A128A11D73083120313C2008030C30017
:100B40000230C4000030C5000030C6000030C700CD
:100B50000A128A158B250A128A11831603135F085D
:100B6000FA01FA075E08F901F907C230831203138C
:100B7000DC005C08FB000A128A1149220A128A1161
:100B8000C23083120313DC005C08F00065300A12E7
:100B90008A150A240A128A11653083120313C200CF
:100BA0000030C3000230C4000030C5000030C60071
:100BB0000030C7000A128A158B250A128A110130EB
:100BC00083160313DA000030DB000130DC07031862
:100BD000DD0A0030DD07F02DF02DDA01DB01F02D0C
:100BE0005D08803AFF0080307F02031DF92D03303D
:100BF0005C02031CFC2DFD2DFF2D212E212E023029
:100C0000831603135E065F04031D072E082E142EA1
:100C100059085804031D0D2E0E2E692D0130D800E1
:100C20000030D900212E692D63305E065F04031D5C
:100C30001A2E1B2E692DD801D901692D692D692D18
:100C4000692D83160313DA01DB01DC01DD013D3080
:100C5000F0008030F100A0300A128A15E1230A1258
:100C60008A11A03083120313C2000030C300013088
:100C7000C4000030C5000130C6000030C7000A12B1
:100C80008A158B250A128A11E03083120313C200E1
:100C90000030C3000230C4000030C5000030C60080
:100CA0000030C7000A128A158B250A128A11582EA5
:100CB0000A128A1161210A128A1175088316031318
:100CC000DF01DF077408DE01DE0701305E065F0426
:100CD00003196B2E6C2E732E5F085E04031D712E9C
:100CE000722EDC2E732E5B085A04031D782E792E8B
:100CF000DF2E5D085C04031D7E2E7F2E892E3C3086
:100D0000F0008030F100E0300A128A15E1230A1267
:100D10008A11D73083120313C2008030C30002301F
:100D2000C4000030C5000030C6000030C7000A1201
:100D30008A158B250A128A11831603135F08FA019C
:100D4000FA075E08F901F907C23083120313DC00C9
:100D50005C08FB000A128A1149220A128A11C23069
:100D600083120313DC005C08F000E0300A128A15DD
:100D70000A240A128A11E03083120313C2000030E1
:100D8000C3000230C4000030C5000030C60000308F
:100D9000C7000A128A158B250A128A1101308316A0
:100DA0000313DA000030DB000130DC070318DD0A32
:100DB0000030DD07DF2EDF2EDA01DB01DF2E5D08DC
:100DC000803AFF0080307F02031DE82E03305C0272
:100DD000031CEB2EEC2EEE2E102F102F023083165C
:100DE00003135E065F04031DF62EF72E032F59082A
:100DF0005804031DFC2EFD2E582E0130D800003063
:100E0000D900102F582E63305E065F04031D092F92
:100E10000A2F582ED801D901582E582E582E582E48
:100E200083160313DA01DB01DC01DD015130F00030
:100E30008030F100A0300A128A15E1230A128A11CB
:100E4000A03083120313C2000030C3000130C4007D
:100E50000030C5000130C6000030C7000A128A15F4
:100E60008B250A128A11E53083120313C200003069
:100E7000C3000230C4000030C5000030C60000309E
:100E8000C7000A128A158B250A128A11472F0A12E7
:100E90008A1161210A128A11750883160313DF0172
:100EA000DF077408DE01DE0701305E065F04031908
:100EB0005A2F5B2F622F5F085E04031D602F612F86
:100EC000CB2F622F5B085A04031D672F682FCE2F8C
:100ED0005D085C04031D6D2F6E2F782F3C30F000F1
:100EE0008030F100E5300A128A15E1230A128A11D6
:100EF000D73083120313C2008030C3000230C40015
:100F00000030C5000030C6000030C7000A128A1544
:100F10008B250A128A11831603135F08FA01FA0758
:100F20005E08F901F907C23083120313DC005C0884
:100F3000FB000A128A1149220A128A11C230831256
:100F40000313DC005C08F000E5300A128A150A245D
:100F50000A128A11E53083120313C2000030C30065
:100F60000230C4000030C5000030C6000030C700A9
:100F70000A128A158B250A128A110130831603136F
:100F8000DA000030DB000130DC070318DD0A003036
:100F9000DD07CE2FCE2FDA01DB01CE2F5D08803AA0
:100FA000FF0080307F02031DD72F03305C02031C3B
:100FB000DA2FDB2FDD2FFF2FFF2F023083160313D5
:100FC0005E065F04031DE52FE62FF22F5908580433
:100FD000031DEB2FEC2F472F0130D8000030D90034
:100FE000FF2F472F63305E065F04031DF82FF92F94
:100FF000472FD801D901472F472F472F472F0800E8
:1015F0003134303430340034003483120313071193
:101600008711061386130800831203138601C03066
:10161000831603138600080064008001840A040610
:101620000319003404060D2B0130F8000030F900D6
:101630000A128A1571230A128A15080030343034D0
:101640003034303400343134303430340034003409
:1016500030343134303400340034303431343034C8
:1016600000340034303430343034303400347E08C8
:101670008A007F08820037230A128A158000840AB4
:1016800004087D0603190034FF0A0319FE0A3B2BE8
:101690004A2B4A2B0130F0020030031CF103F10207
:1016A000FF307106031D562BFF307006031D592BAA
:1016B0005A2B4A2B5B2B08000A128A155D240A124A
:1016C0008A150A128A1504230A128A15672B0A1230
:1016D0008A1178240A128A15672B672B0A128A113D
:1016E00000287908F101F1077808F001F0070A12E3
:1016F0008A1134230A128A158312031307108714E0
:101700001430F0000030F1000A128A1548230A1242
:101710008A158312031387101430F0000030F10093
:101720000A128A1548230A128A1508007908F1015D
:10173000F1077808F001F0070A128A1134230A121F
:101740008A1583120313071487141430F000003035
:10175000F1000A128A1548230A128A15831203130C
:1017600087101430F0000030F1000A128A15482367
:101770000A128A150800831203136D086C04031DF6
:10178000C22BC32BE02B303083160313850083124A
:10179000031385010130EC000030ED007430C2000D
:1017A0008030C3000130C4000030C5000130C600E5
:1017B0000030C7000A128A158B250A128A15E02B01
:1017C0000800F5007508F2007208F600E82BE82B17
:1017D0007108F3007008F2000130F0070318F10AF5
:1017E000730883120313FF00720884000A128A111F
:1017F00003200A128A15F400760884000130F607E7
:101800007408831380008008031D072C082CE82B24
:10181000092C0800F2007208F1007108F300152C81
:101820000130F1007108F307152C7308840083134D
:101830008008031D1C2C1D2C102C202C202C202C4F
:10184000700884000130F0070008F100730884007C
:101850000130F307710880008008031D302C312C03
:10186000202C322C0800F401F501362C701C392C88
:101870003A2C402C7208F4070318F50A7308F50790
:1018800001300310F20DF30DFF3E031D412C01301A
:101890000310F10CF00CFF3E031D482C710870047E
:1018A000031D532C542C362C552C7508F101F107CF
:1018B0007408F001F0075C2C0800FC308316031359
:1018C000870088013830F8000030F9000A128A15C4
:1018D00071230A128A150C30F8000030F9000A1240
:1018E0008A1571230A128A150130F8000030F900B8
:1018F0000A128A1571230A128A158030F800003006
:10190000F9000A128A1571230A128A150F30F8009D
:101910000030F9000A128A1571230A128A1508008C
:10192000F700932C932C7708840083130008F200AF
:101930007108F4007008F3000130F0070318F10A91
:10194000740883120313FF00730884000A128A11BB
:1019500003200A128A15FF3A013E7207F500750846
:10196000F600F608031DB52CB62CC22C77088400AF
:101970000130F70783138008031DBF2CC02C932C64
:10198000C22CC22C7608F000F101F01BF103C82C28
:101990000800EA01EB01EC01ED01EE01EF01831714
:1019A00090308400A0300A128A150C230A128A157E
:1019B000A530FD000A30FE00F830FF00A0308400A2
:1019C0000A128A153B230A128A158313EF30FD0091
:1019D0000B30FE002830FF00E03084000A128A1528
:1019E0003B230A128A156A30FD000B30FE001E30C0
:1019F000FF00603084000A128A153B230A128A1500
:101A000083010A128A155C2B0A128A15FD220A121A
:101A10008A15013072067304031D0F2D102D142D2D
:101A2000831203130614382D023072067304031D4B
:101A30001A2D1B2D1F2D831203138614382D0330EE
:101A400072067304031D252D262D2A2D83120313E0
:101A50000615382D043072067304031D302D312D08
:101A6000382D831203138615382D382D382D382D37
:101A7000C830F0000030F1000A128A1548230A121B
:101A80008A150800F300F401F501F401F501750869
:101A9000803AFF0080307F02031D502D0430740215
:101AA000031C532D542D562D852D852D7408730739
:101AB000F2007208840083130008303A031D612D80
:101AC000622D712D74087007F200720884000008FE
:101AD000313A031D6C2D6D2D712DF001F1018A2D10
:101AE0008A2D0130F4070318F50A0030F507750850
:101AF000803AFF0080307F02031D802D0430740285
:101B0000031C832D842D562D852D0130F0000030CF
:101B1000F1008A2D080001308312031346064704A2
:101B2000031D932D942D9A2D0A128A1514230A123F
:101B30008A159A2D02308312031344064504031DAF
:101B4000A22DA32DAD2DC030F8000030F9000A12EF
:101B50008A1571230A128A15B72D0230F800003059
:101B6000F9000A128A1571230A128A15B72DFC0191
:101B7000FD01DA2D7C088312031342078400430819
:101B80000318430AFF000A128A1103200A128A1559
:101B9000FA00FB017A08F8007B08F9000A128A159E
:101BA00096230A128A150130FC070318FD0A00303B
:101BB000FD07DA2D7C0883120313420784004308D3
:101BC0000318430AFF000A128A1103200A128A1519
:101BD0000038031DEC2DED2DBA2DEE2D0800F60179
:101BE000F31FF32DF42DFD2DF209F309F20A031969
:101BF000F30AF6010314F60DFD2DF11F002E012E40
:101C0000072EF009F109F00A0319F10A072E7108ED
:101C1000700403190C2E0D2E432EF5010314F50D3F
:101C20001D2E01300310F00DF10DFF3E031D122E8D
:101C30000130F4007408F5071D2EF11F202E212E0F
:101C4000112E232E232E71087302031D292E7008D6
:101C50007202031C2C2E2D2E342E7008F2027108F5
:101C6000031CF303F302342E01300310F10CF00CCB
:101C7000FF3E031D352E0130F502031D402E412E7F
:101C8000232E432E432E7608031D472E4D2EF20998
:101C9000F309F20A0319F30A4D2E7308F101F10753
:101CA0007208F001F007542E080083120313D700C6
:101CB0005708C2008030C3000130C4000030C500A6
:101CC0000030C6000030C7000A128A158B250A12A0
:101CD0008A1583120313D501D601D801D901CD018C
:101CE000CE017F2E0130DA070318DB0A0030DB0754
:101CF0000130D8070318D90A0030D9077F2E5A08B7
:101D0000570784000A128A110D200A128A1500381A
:101D1000031D8B2E8C2E722E8D2E5808FF3ECF0069
:101D200059080318013EFF3ED0005908803AFF00D1
:101D300080307F02031D9E2E21305802031CA12EED
:101D4000A22E222F83120313D101D2011F30D30000
:101D50000030D400AB2E83120313DA01DB01C32E53
:101D6000B830F0000B30F1000A128A1548230A122D
:101D70008A151E30F8000030F9000A128A15712306
:101D80000A128A15C32E013083120313DA070318CF
:101D9000DB0A0030DB075B08803AFF0080307F02FF
:101DA000031DD42E21305A02031CD72ED82EB02E5C
:101DB000D92E83120313DA01DB01F12EB830F000C3
:101DC0000B30F1000A128A1548230A128A151830BE
:101DD000F8000030F9000A128A1571230A128A15D8
:101DE000F12E013083120313DA070318DB0A0030E7
:101DF000DB075B08803AFF0080307F02031D022F63
:101E000021305A02031C052F062FDE2E072F8312C6
:101E100003135608CB005508CA000130D507031834
:101E2000D60A4B08803ACC004908803A4C02031D80
:101E30001B2F48084A0203181E2F1F2F222FAB2EDC
:101E4000AB2E222F08000A128A15BB230A128A150C
:101E50006030F0000030F100EA300A128A15E12308
:101E60000A128A158830F0008030F10060300A12C2
:101E70008A15E1230A128A1583120313071E412FC4
:101E8000422F472F3130C8004808E000472F871EF7
:101E90004A2F4B2F502F3130C8004808E100502FF7
:101EA000071F532F542F592F3130C8004808E20024
:101EB000592F6B08EF01EF076A08EE01EE07EA0100
:101EC000EB01EA30F0000030F10060300A128A15B0
:101ED00090240A128A15710870040319702F712F4B
:101EE000FF2F8830F0008030F10060300A128A1530
:101EF00090240A128A15710870040319802F812F0B
:101F0000FF2F603083120313C2000030C300013082
:101F1000C4000030C5000130C6000030C7000A12FE
:101F20008A158B250A128A15653083120313C8009F
:101F30004808F00060300A128A1542250A128A15F4
:101F4000710870040319A52FA62FAF2F013083123B
:101F500003136A04EA0000306B04EB00B82F06306C
:101F6000831203136A05EA0000306B05EB00B82FFB
:101F7000E030C8004808F00060300A128A15422597
:101F80000A128A15710870040319C72FC82FD12FA0
:101F90000230831203136A04EA0000306B04EB0082
:101FA000DA2F0530831203136A05EA0000306B054F
:101FB000EB00DA2FE530C8004808F00060300A1264
:101FC0008A1542250A128A15710870040319E92F2F
:101FD000EA2FF32F0430831203136A04EA0000305F
:101FE0006B04EB00FB2F0330831203136A05EA0036
:101FF00000306B05EB006A088500FF2FFF2F0800FB
:00000001FF
