:100000000A128A110D28313430343034003400346F
:1000100030343134303400340034E101E201E301A2
:10002000E401E501E601E7018313E4308400EC30EC
:100030000A128A1520230A128A118317903084002D
:10004000A0300A128A1520230A128A11AF30FD004F
:100050000B30FE003230FF00A03084000A128A15F7
:1000600045230A128A118313E430FD000030FE009C
:100070000330FF00DA3084000A128A1545230A1281
:100080008A116D30FD000B30FE000C30FF0068302F
:1000900084000A128A1545230A128A1183010A1262
:1000A0008A15662BF601F11F562857286028F0099B
:1000B000F109F00A0319F10AF6010314F60D60289C
:1000C000F31F632864286E28F209F309F20A031962
:1000D000F30A0130F4007408F6066E28F701F801FF
:1000E00071087004031975287628B428F5010314E3
:1000F000F50D862801300310F00DF10DFF3E031DB4
:100100007B280130F4007408F5078628F11F892840
:100110008A287A288C288C2801300310F70DF80DD6
:10012000FF3E031D8D2871087302031D9928700876
:100130007202031C9C289D28A5287008F2027108F1
:10014000031CF303F3027714A52801300310F10C0C
:10015000F00CFF3E031DA6280130F502031DB12857
:10016000B2288C28B428B4287608031DB828BE28E5
:10017000F709F809F70A0319F80ABE287808F10107
:10018000F1077708F001F007C52808008312031370
:10019000A001A101FB08031DCE28CF28D128B0293A
:1001A000B0297A087904031DD628D728E0283030F2
:1001B000FC007B0884007C0883138000B029B029F0
:1001C000FA1FE328E4280D29FF30F000FF30F1008A
:1001D0007A08F301F3077908F201F2070A128A1587
:1001E000F1230A128A117108FA01FA077008F9015D
:1001F000F9072D30FC007B0884007C088313800005
:100200000130FC007C08FB07013083120313A007B8
:100210000318A10A0030A1070D297A08A301A3073A
:100220007908A201A2072308803AFF0080307F02EC
:10023000031D1C290130220203181F29202922290D
:100240004D294D290A30F0000030F10083120313CC
:100250002308F301F3072208F201F2070A128A11B8
:1002600052200A128A11710883120313A301A307F3
:100270007008A201A2070130FC007C08FB072308DC
:10028000803AFF0080307F02031D4829013022029E
:1002900003184B294C2922294D297B0884008313FC
:1002A00080017A0883120313A301A3077908A2012E
:1002B000A2072308803AFF0080307F02031D6229D5
:1002C000013022020318652966296829B029B0295E
:1002D0000A30F0000030F100831203132308F30109
:1002E000F3072208F201F2070A128A15DF250A1223
:1002F0008A117008303EFC000130FB027B0884004C
:100300007C0883138000013083120313A0070318B5
:10031000A10A0030A1070A30F0000030F1002308E4
:10032000F301F3072208F201F2070A128A115220A0
:100330000A128A11710883120313A301A30770081C
:10034000A201A2072308803AFF0080307F02031D2C
:10035000AB29013022020318AE29AF296829B02940
:1003600008000A128A15C9230A128A11AA30F0005D
:100370000130F1006830F2000030F3000A128A15F3
:1003800045240A128A116830F0000030F100CA30AA
:10039000F2008830F3000A128A1545240A128A11E5
:1003A00083120313051CD529D629DB293130C80057
:1003B0004808E800DB29851CDE29DF29E4293130E3
:1003C000C8004808E900E429051DE729E829ED29C6
:1003D0003130C8004808EA00ED296208E601E60766
:1003E0006108E501E507E101E2019630C2008830CD
:1003F000C3000230C4000030C5000030C600003029
:10040000C7000A128A157B250A128A11AA30F00049
:100410000130F10068300A128A15AF240A128A11DD
:10042000710870040319152A162AC52A6830831228
:100430000313C2000030C3000130C4000030C50007
:100440000130C6000030C7000A128A157B250A1247
:100450008A11DA30F0000030F10068300A128A1593
:1004600026250A128A11710870040319382A392ABC
:10047000422A0130831203136104E1000030620458
:10048000E2004B2A0630831203136105E1000030BD
:100490006205E2004B2ADF30F0000030F1006830E6
:1004A0000A128A1526250A128A1171087004031986
:1004B0005A2A5B2A642A0230831203136104E10082
:1004C00000306204E2006D2A0530831203136105D7
:1004D000E10000306205E2006D2AA530F000013035
:1004E000F10068300A128A1526250A128A1171084D
:1004F000700403197C2A7D2A862A04308312031390
:100500006104E10000306204E2008F2A03308312AC
:1005100003136105E10000306205E2008F2A6118D3
:10052000922A962A831203130716992A8312031319
:1005300007126208C9006108C8000130FF00490DB8
:10054000C90CC80CFF0B9F2A4818A72AAB2A831294
:1005500003138716AE2A8312031387126208C90099
:100560006108C8000230FF00490DC90CC80CFF0B20
:10057000B42A4818BC2AC02A831203130717C32AB7
:10058000831203130713C52AC52A08008312031315
:10059000C001C101173084008830FF000A128A159B
:1005A00000200A128A11F2000A128A1500200A128B
:1005B0008A11F3004108803AF4007308803A74020B
:1005C000031DE42A72084002031CE72AE82AEA2AEB
:1005D0002D2B2D2B83120313400AF2007108F40017
:1005E0007008F300F62A0310F30DF40DF20BF32A52
:1005F0000030F41B0130F500F6014008F7007707E2
:10060000203E8400750883138000840A76088000E9
:100610000130C0070318C10A0030C1071730840039
:100620008830FF000A128A1500200A128A11F2008F
:100630000A128A1500200A128A11F3004108803A32
:10064000F4007308803A7402031D282B72084002DC
:10065000031C2B2B2C2BEA2A2D2B173084008830DF
:1006600083120313FF000A128A1500200A128A114E
:10067000F2007207FE3E203E840083130008F30060
:10068000840A0008F4007318462B4A2B83120313C4
:1006900008144D2B83120313081017308400883080
:1006A000FF000A128A1500200A128A11F20072074E
:1006B000FC3E203E840083130008F300840A0008F7
:1006C000F4007318642B682B8312031388146B2BAC
:1006D000831203138810173084008830FF000A1239
:1006E0008A1500200A128A11F2007207FA3E203E93
:1006F000840083130008F300840A0008F4007318D0
:10070000822B862B831203130815892B8312031364
:100710000811173084008830FF000A128A15002063
:100720000A128A11F2007207F83E203E84008313F9
:100730000008F300840A0008F4007318A02BA42B0F
:10074000831203138815A72B831203138811173004
:1007500084008830FF000A128A1500200A128A11CC
:10076000F2007207F63E203E840083130008F30077
:10077000840A0008F4007318BE2BC22B83120313E3
:100780000816C52B83120313081217308400883013
:10079000FF000A128A1500200A128A11F20072075D
:1007A000F43E203E840083130008F300840A00080E
:1007B000F4007318DC2BE02B831203138816E32B51
:1007C000831203138812173084008830FF000A1246
:1007D0008A1500200A128A11F2007207F23E203EAA
:1007E000840083130008F300840A0008F4007318DF
:1007F000FA2BFE2B831203138714012C831203138D
:100800008710173084008830FF000A128A150020F4
:100810000A128A11F2007207F03E203E8400831310
:100820000008F300840A0008F4007318182C1C2C2C
:100830008312031307151F2C8312031307110800DB
:10084000193083120313C8008830C9000030CA0071
:100850000030CB000A128A1545260A128A11C230CE
:100860008400903083120313DD000408DE00103092
:10087000DF005D08840083170008E000DD0A5E08E1
:100880008400831360088000DE0ADF0B392C831696
:100890000313D401D501D201D301C001C101D60196
:1008A000D701A73083120313C2008830C300013080
:1008B000C4000030C5000130C6000030C7000A1275
:1008C0008A157B250A128A11C13083120313C200D4
:1008D0008830C3000230C4000030C5000030C600BC
:1008E0000030C7000A128A157B250A128A11782C5B
:1008F0000130831603136A066B04031D802C812CC0
:100900008B2CEA01EB01E401E501E601E701E801D6
:10091000E901FF2FFF2F0A128A1518270A128A11E0
:10092000750883160313D901D9077408D801D807AD
:10093000013058065904031D9E2C9F2CA72C013012
:10094000E4000030E500E601E701E801E9010230DA
:1009500058065904031DAD2CAE2CB62CE401E5015C
:100960000130E6000030E700E801E90103305806F5
:100970005904031DBC2CBD2CCA2CE401E501E60181
:10098000E7010130E8000030E9000130EA00003002
:10099000EB00CA2C650864040319CF2CD02CD62C8C
:1009A0000A128A11B1210A128A11782C83160313B4
:1009B000670866040319DD2CDE2CE62CE401E50152
:1009C000E601E701E801E901FC2C782C69086804DC
:1009D0000319EB2CEC2C782CE401E501E601E7018E
:1009E000E801E9010130EA000030EB00782C782CB6
:1009F000782C782C782CFC2C3F3083120313C20007
:100A00008830C3000130C4000030C5000130C6008A
:100A10000030C7000A128A157B250A128A11883015
:100A2000F0001330F1000A128A1552230A128A11BB
:100A300083160313D401D501D601D701A030F000ED
:100A40000030F1005A30F2008830F3000A128A15A3
:100A500045240A128A11A03083120313C200003009
:100A6000C3000130C4000030C5000130C6000030B2
:100A7000C7000A128A157B250A128A11DA308312FE
:100A80000313C2000030C3000230C4000030C500B0
:100A90000030C6000030C7000A128A157B250A12F2
:100AA0008A110A128A1518270A128A1175088316E4
:100AB0000313D901D9077408D801D80701305806A3
:100AC00059040319642D652D6C2D59085804031D14
:100AD0006A2D6B2DDB2D6C2D55085404031D712DD3
:100AE000722DDE2D57085604031D772D782D852D88
:100AF000DA30F0000030F1006D30F2008830F300A1
:100B00000A128A1545240A128A1119308312031316
:100B1000C2008930C3000230C4000030C50000307C
:100B2000C6000030C7000A128A157B250A128A11F6
:100B3000831603135908FA01FA075808F901F9074F
:100B4000C23083120313DD005D08FB000A128A1114
:100B5000C6200A128A11DA30F0000030F100C230EB
:100B600083120313DD005D08F2000A128A15772450
:100B70000A128A11DA3083120313C2000030C30054
:100B80000230C4000030C5000030C6000030C7008D
:100B90000A128A157B250A128A1101308316031363
:100BA000D4000030D5000130D6070318D70A003032
:100BB000D707DE2DDE2DD401D501DE2D5708803A72
:100BC000FF0080307F02031DE72D03305602031C17
:100BD000EA2DEB2DED2D0F2E0F2E02308316031371
:100BE00058065904031DF52DF62D022E5308520404
:100BF000031DFB2DFC2D512D0130D2000030D30000
:100C00000F2E512D633058065904031D082E092E4E
:100C1000512DD201D301512D512D512D512D83161E
:100C20000313D401D501D601D701A030F000003064
:100C3000F1006E30F2008830F3000A128A15452464
:100C40000A128A11A03083120313C2000030C300BD
:100C50000130C4000030C5000130C6000030C700BC
:100C60000A128A157B250A128A11DF3083120313B8
:100C7000C2000030C3000230C4000030C5000030A4
:100C8000C6000030C7000A128A157B250A128A1195
:100C9000492E0A128A1518270A128A117508831616
:100CA0000313D901D9077408D801D80701305806B1
:100CB000590403195C2E5D2E642E59085804031D37
:100CC000622E632ED32E642E55085404031D692E04
:100CD0006A2ED62E57085604031D6F2E702E7D2EB9
:100CE000DF30F0000030F1006D30F2008830F300AA
:100CF0000A128A1545240A128A1119308312031325
:100D0000C2008930C3000230C4000030C50000308A
:100D1000C6000030C7000A128A157B250A128A1104
:100D2000831603135908FA01FA075808F901F9075D
:100D3000C23083120313DD005D08FB000A128A1122
:100D4000C6200A128A11DF30F0000030F100C230F4
:100D500083120313DD005D08F2000A128A1577245E
:100D60000A128A11DF3083120313C2000030C3005D
:100D70000230C4000030C5000030C6000030C7009B
:100D80000A128A157B250A128A1101308316031371
:100D9000D4000030D5000130D6070318D70A003040
:100DA000D707D62ED62ED401D501D62E5708803A95
:100DB000FF0080307F02031DDF2E03305602031C2C
:100DC000E22EE32EE52E072F072F023083160313A2
:100DD00058065904031DED2EEE2EFA2E5308520428
:100DE000031DF32EF42E492E0130D2000030D30023
:100DF000072F492E633058065904031D002F012F79
:100E0000492ED201D301492E492E492E492E83164F
:100E10000313D401D501D601D701A030F000003072
:100E2000F1008230F2008830F3000A128A1545245E
:100E30000A128A11A03083120313C2000030C300CB
:100E40000130C4000030C5000130C6000030C700CA
:100E50000A128A157B250A128A11A5308312031300
:100E6000C2000130C3000230C4000030C5000030B1
:100E7000C6000030C7000A128A157B250A128A11A3
:100E8000412F0A128A1518270A128A11750883162B
:100E90000313D901D9077408D801D80701305806BF
:100EA00059040319542F552F5C2F59085804031D5A
:100EB0005A2F5B2FCB2F5C2F55085404031D612F35
:100EC000622FCE2F57085604031D672F682F752FEA
:100ED000A530F0000130F1006D30F2008830F300F1
:100EE0000A128A1545240A128A1119308312031333
:100EF000C2008930C3000230C4000030C500003099
:100F0000C6000030C7000A128A157B250A128A1112
:100F1000831603135908FA01FA075808F901F9076B
:100F2000C23083120313DD005D08FB000A128A1130
:100F3000C6200A128A11A530F0000130F100C2303B
:100F400083120313DD005D08F2000A128A1577246C
:100F50000A128A11A53083120313C2000130C300A4
:100F60000230C4000030C5000030C6000030C700A9
:100F70000A128A157B250A128A110130831603137F
:100F8000D4000030D5000130D6070318D70A00304E
:100F9000D707CE2FCE2FD401D501CE2F5708803AB8
:100FA000FF0080307F02031DD72F03305602031C41
:100FB000DA2FDB2FDD2FFF2FFF2F023083160313D5
:100FC00058065904031DE52FE62FF22F530852044B
:100FD000031DEB2FEC2F412F0130D2000030D30046
:100FE000FF2F412F633058065904031DF82FF92FA6
:100FF000412FD201D301412F412F412F412F080012
:10100000FF1B0A2883137F1883170008840A03191B
:10101000FF0A08007F087F398A000408840A031940
:10102000FF0A82000034043408340C340F341034C6
:101030000034573445344C3443344F344D34453404
:1010400020342134203454344F342034503452343A
:101050004F344734523441344D34413442344C34AB
:101060004534203448344F344D34453420344134F1
:10107000553454344D34413454344E3400345034A7
:101080007234653473347334203432342E34203463
:101090002D34203453346B34693470342034663446
:1010A0006F347234203444346534763469346334B4
:1010B0006534003445346E3474346534723420340D
:1010C0004C346F34673469346334203444344534E9
:1010D000563431343A3420342034003445346E34BC
:1010E00074346534723420344C346F34673469346A
:1010F0006334203444344534563432343A34203462
:101100002034003445346E34743465347234203401
:101110004C346F3467346934633420344434453498
:10112000563433343A34203420340034503472345A
:1011300065347334733420343234203474346F346F
:10114000203452344534503452344734003431342E
:101150002E345334573454342034203432342E3423
:1011600052344534503452344734003453346534A7
:101170006E34733469346E3467342E342E342E3426
:10118000003433342E3452344534533445345434DB
:10119000003430343034303430340034313430348E
:1011A000303430340034303431343034303400347E
:1011B000313431343034303400343034303431343C
:1011C000303400343134303431343034003430345D
:1011D000313431343034003431343134313430341A
:1011E000003430343034303431340034313430343D
:1011F000303431340034303431343034313400342C
:1012000031343134303431340034303430343134EA
:10121000313400343134303431343134003430340A
:1012200031343134313400343134313431343134C7
:0A12300000342D342D342D34003429
:101618003034303430343034003483120313081338
:101628008813061386130800831203138601D0302B
:10163800831603138600080064008001840A0406E8
:10164800031900340406212B0130F8000030F9009A
:101658000A128A157F230A128A1508003134303499
:101668003034003400343034313430340034003411
:10167800303430343034303400347E088A007F0807
:10168800820041230A128A158000840A04087D0614
:1016980003190034FF0A0319FE0A452B542B542B57
:1016A8000130F0020030031CF103F102FF30710633
:1016B800031D602BFF307006031D632B642B542B16
:1016C800652B08000F308316031386000A128A154B
:1016D8001B240A128A150A128A1518230A128A1557
:1016E800752B0A128A1120240A128A15752B752B5C
:1016F8000A128A1100287908F101F1077808F00127
:10170800F0070A128A11C6220A128A1583120313D5
:10171800071087151430F0000030F1000A128A15FE
:1017280052230A128A158312031387111430F0000A
:101738000030F1000A128A1552230A128A1508008D
:101748007908F101F1077808F001F0070A128A1107
:10175800C6220A128A158312031307148715143038
:10176800F0000030F1000A128A1552230A128A1575
:101778008312031387111430F0000030F1000A12AD
:101788008A1552230A128A15080083120313640863
:101798006304031DD02BD12BF02B0F3083160313BA
:1017A8008500831603178801013083120313E300B1
:1017B8000030E400B630C2008830C3000130C400F5
:1017C8000030C5000130C6000030C7000A128A1573
:1017D8007B250A128A15F02B0800F401F501F42B79
:1017E800701CF72BF82BFE2B7208F4070318F50A68
:1017F8007308F50701300310F20DF30DFF3E031DCA
:10180800FF2B01300310F10CF00CFF3E031D062CDA
:1018180071087004031D112C122CF42B132C75085D
:10182800F101F1077408F001F0071A2C080083167B
:1018380003138701C03088003830F8000030F90001
:101848000A128A157F230A128A150C30F800003014
:10185800F9000A128A157F230A128A150130F80046
:101868000030F9000A128A157F230A128A1580307F
:10187800F8000030F9000A128A157F230A128A1527
:1018880008007108FA01FA077008F901F9074D2CE8
:101898004D2C7308F5007208F4000130F2070318A4
:1018A800F30A750883120313FF00740884000A12F0
:1018B8008A1500200A128A15F6007A08F8007908B5
:1018C800F7000130F9070318FA0A7708840083172C
:1018D800781C8313760880008008031D742C752CEF
:1018E8004D2C762C08007108F701F7077008F601EF
:1018F800F607852C0130F6070318F70A0030F707BA
:10190800852C760884008317771C83138008031DB1
:101918008E2C8F2C7E2C922C922C922C7208840068
:101928000130F20783130008F3007708F500760802
:10193800F4000130F6070318F70A740884008317C7
:10194800751C8313730880008008031DAC2CAD2C14
:10195800922CAE2C0800F700B22CB22C7708840029
:1019680083130008F2007108F4007008F3000130D6
:10197800F0070318F10A740883120313FF007308B1
:1019880084000A128A1500200A128A15FF3A013EBD
:101998007207F5007508F600F608031DD42CD52C3F
:1019A800E12C770884000130F70783138008031DB2
:1019B800DE2CDF2CB22CE12CE12C7608F000F101B2
:1019C800F01BF103E72C08000A128A1511230A12EA
:1019D8008A15013072067304031DF32CF42CF82CBD
:1019E8008312031386151C2D023072067304031D1F
:1019F800FE2CFF2C032D8312031306151C2D033018
:101A080072067304031D092D0A2D0E2D831203136C
:101A180086141C2D043072067304031D142D152D15
:101A28001C2D8312031306141C2D1C2D1C2D1C2D7C
:101A3800C830F0000030F1000A128A1552230A1249
:101A48008A150800F500F601F701F601F701770895
:101A5800803AFF0080307F02031D342D0430760267
:101A6800031C372D382D3A2D752D752D76087507E1
:101A7800F2007208840083130008303A031D452DD4
:101A8800462D612D76087007F3007108F2000318DF
:101A9800F20AF61F502DF2037208F400730884004E
:101AA8008317741C83130008313A031D5C2D5D2DC8
:101AB800612DF001F1017A2D7A2D0130F607031816
:101AC800F70A0030F7077708803AFF0080307F0276
:101AD800031D702D04307602031C732D742D3A2DCE
:101AE800752D0130F0000030F1007A2D080001302A
:101AF8008312031346064704031D832D842D8A2D64
:101B08000A128A1528230A128A158A2D023083128E
:101B1800031344064504031D922D932D9D2DC030BB
:101B2800F8000030F9000A128A157F230A128A1574
:101B3800A72D0230F8000030F9000A128A157F2319
:101B48000A128A15A72DFC01FD01CA2D7C088312F3
:101B580003134207840043080318430AFF000A12CC
:101B68008A1500200A128A15FA00FB017A08F80083
:101B78007B08F9000A128A15A4230A128A15013073
:101B8800FC070318FD0A0030FD07CA2D7C088312E4
:101B980003134207840043080318430AFF000A128C
:101BA8008A1500200A128A150038031DDC2DDD2D48
:101BB800AA2DDE2D0800F601F31FE32DE42DED2DEF
:101BC800F209F309F20A0319F30AF6010314F60DF0
:101BD800ED2DF11FF02DF12DF72DF009F109F00A87
:101BE8000319F10AF72D710870040319FC2DFD2D56
:101BF800332EF5010314F50D0D2E01300310F00DF1
:101C0800F10DFF3E031D022E0130F4007408F507A4
:101C18000D2EF11F102E112E012E132E132E7108CA
:101C28007302031D192E70087202031C1C2E1D2E30
:101C3800242E7008F2027108031CF303F302242E09
:101C480001300310F10CF00CFF3E031D252E01306E
:101C5800F502031D302E312E132E332E332E760827
:101C6800031D372E3D2EF209F309F20A0319F30A70
:101C78003D2E7308F101F1077208F001F007442EB8
:101C88000800831203134908C301C3074808C201A7
:101C9800C2070130C4000030C5000030C600003063
:101CA800C7000A128A157B250A128A1583120313A4
:101CB800D701D801D901DA01CF01D001702E013046
:101CC800DB070318DC0A0030DC070130D9070318EA
:101CD800DA0A0030DA07702E5B08480784004908E2
:101CE8000318490AFF000A128A1500200A128A15E9
:101CF8000038031D802E812E632E822E5908FF3E48
:101D0800D1005A080318013EFF3ED2005A08803A13
:101D1800FF0080307F02031D932E21305902031CDF
:101D2800962E972E172F83120313D301D4011F3039
:101D3800D5000030D600A02E83120313DB01DC018E
:101D4800B82EB830F0000B30F1000A128A15522371
:101D58000A128A151E30F8000030F9000A128A1596
:101D68007F230A128A15B82E013083120313DB076A
:101D78000318DC0A0030DC075C08803AFF0080307A
:101D88007F02031DC92E21305B02031CCC2ECD2EF1
:101D9800A52ECE2E83120313DB01DC01E62EB8300C
:101DA800F0000B30F1000A128A1552230A128A1524
:101DB8001830F8000030F9000A128A157F230A1239
:101DC8008A15E62E013083120313DB070318DC0A99
:101DD8000030DC075C08803AFF0080307F02031D7A
:101DE800F72E21305B02031CFA2EFB2ED32EFC2E7D
:101DF800831203135808CD005708CC000130D707C9
:101E08000318D80A4D08803ACE004B08803A4E0293
:101E1800031D102F4A084C020318132F142F172FD5
:101E2800A02EA02E172F08000130F2000030F3007A
:101E38000A128A15E8240A128A1583120313081F46
:101E4800262F272F2C2FF401F501FF2FFF2F4F2FBF
:101E5800881F2F2F302F372F0130F4000030F50066
:101E6800FF2FFF2F4F2F061F3A2F3B2F422F0230F5
:101E7800F4000030F500FF2FFF2F4F2F861F452F4E
:101E8800462F4F2F0330F4000030F500FF2FFF2FAF
:101E98004F2F4F2F4F2F0230F2000030F3000A125D
:101EA8008A15E8240A128A1583120313081F5D2F66
:101EB8005E2F652F0430F4000030F500FF2FFF2F50
:101EC800882F881F682F692F702F0530F400003085
:101ED800F500FF2FFF2F882F061F732F742F7B2FDE
:101EE8000630F4000030F500FF2FFF2F882F861FE3
:101EF8007E2F7F2F882F0730F4000030F500FF2F4A
:101F0800FF2F882F882F882F0330F2000030F3002E
:101F18000A128A15E8240A128A1583120313081F65
:101F2800962F972F9E2F0830F4000030F500FF2FD2
:101F3800FF2FC12F881FA12FA22FA92F0930F4002E
:101F48000030F500FF2FFF2FC12F061FAC2FAD2F3C
:101F5800B42F0A30F4000030F500FF2FFF2FC12FF7
:101F6800861FB72FB82FC12F0B30F4000030F500B3
:101F7800FF2FFF2FC12FC12FC12F0430F2000030D7
:101F8800F3000A128A15E8240A128A158312031329
:101F9800081FCF2FD02FD72F0C30F4000030F500BA
:101FA800FF2FFF2FFA2F881FDA2FDB2FE22F0D309C
:101FB800F4000030F500FF2FFF2FFA2F061FE52F42
:101FC800E62FED2F0E30F4000030F500FF2FFF2F25
:101FD800FA2F861FF02FF12FFA2F0F30F400003060
:101FE800F500FF2FFF2FFA2FFA2FFA2F6330F40096
:081FF8000030F500FF2F080086
:00000001FF
