:100000000A128A152E2BF3000130F100700A0A281B
:100010000310F10DFF3E031D08287108F20072085D
:10002000F40073087405F100700A18280310F10C2D
:10003000FF3E031D162871081D280800F030F90046
:100040000030FA000A128A153A240A128A11583A24
:1000500003192B282C285728F030F2000030F30029
:100060005830FD007D08F4000A128A156F230A1229
:100070008A11AE3083120313A0008830A100013032
:10008000A2000030A3000130A4000030A5000A1235
:100090008A155C250A128A11D030F0000730F10071
:1000A0000A128A15CD220A128A11C328C328BB302E
:1000B00083120313A0008830A1000130A200003099
:1000C000A3000130A4000030A5000A128A155C25A7
:1000D0000A128A11D030F0000730F1000A128A1596
:1000E000CD220A128A11003083120313A2000030BD
:1000F000A3000A128A157B260A128A11F200003028
:10010000F300AA300A128A15BE230A128A1101309E
:1001100083120313A2000030A3000A128A157B2663
:100120000A128A11F2000030F300AF300A128A1569
:10013000BE230A128A11023083120313A200003078
:10014000A3000A128A157B260A128A11F2000030D7
:10015000F300B4300A128A15BE230A128A11033042
:1001600083120313A2000030A3000A128A157B2613
:100170000A128A11F2000030F300B9300A128A150F
:10018000BE230A128A1108000130F2000030F30089
:100190000A128A15D5240A128A1183120313081F22
:1001A000D228D328D828F401F501A929A929F928AA
:1001B000881FDB28DC28E3280130F4000030F5003C
:1001C000A929A929F928061FE628E728EE280230E0
:1001D000F4000030F500A929A929F928861FF12883
:1001E000F228F928F401F501A929A929F928F92803
:1001F000F9280230F2000030F3000A128A15D524E3
:100200000A128A1183120313081F072908290F29CC
:100210000430F4000030F500A929A9293229881FEB
:10022000122913291A290530F4000030F500A929F4
:10023000A9293229061F1D291E2925290630F40067
:100240000030F500A929A9293229861F2829292942
:1002500032290130F4000030F500A929A9293229FA
:10026000322932290330F2000030F3000A128A15D5
:10027000D5240A128A1183120313081F4029412929
:1002800048290830F4000030F500A929A9296B2974
:10029000881F4B294C2953290930F4000030F50000
:1002A000A929A9296B29061F562957295E290A3031
:1002B000F4000030F500A929A9296B29861F6129BE
:1002C00062296B290230F4000030F500A929A92920
:1002D0006B296B296B290430F2000030F3000A12FD
:1002E0008A15D5240A128A1183120313081F79294B
:1002F0007A2981290C30F4000030F500A929A929B8
:10030000A429881F842985298C290D30F400003008
:10031000F500A929A929A429061F8F299029972921
:100320000E30F4000030F500A929A929A429861F60
:100330009A299B29A4290330F4000030F500A9294B
:10034000A929A429A429A4296330F4000030F500C8
:10035000A929080083160313D301D4019030831216
:100360000313A0008830A1000130A2000030A300D8
:100370000130A4000030A5000A128A155C250A127B
:100380008A116E3083120313A0008830A10002305E
:10039000A2000030A3000030A4000030A5000A1223
:1003A0008A155C250A128A11D629D6290A128A11C1
:1003B000C4200A128A1175087404031DE029E1297A
:1003C000D629E2299F3083120313A0008830A100B0
:1003D0000130A2000030A3000130A4000030A500CD
:1003E0000A128A155C250A128A11D230831203136D
:1003F000A0008830A1000230A2000030A30000302D
:10040000A4000030A5000A128A155C250A128A1180
:10041000092A0A128A11C4200A128A117508831245
:100420000313EE01EE077408ED01ED076E08F1010C
:10043000F1076D08F001F0070A128A15AC220A12C2
:100440008A110130831203136D066E04031D292ADD
:100450002A2A342A013083160313D5000030D6002F
:10046000D701D801D901DA01023083126D066E047A
:10047000031D3B2A3C2A462A83160313D501D601C5
:100480000130D7000030D800D901DA0103308312DF
:100490006D066E04031D4D2A4E2A5D2A8316031332
:1004A000D501D601D701D8010130D9000030DA00DA
:1004B0000130DD000030DE005D2A8316031356088C
:1004C00055040319642A652A6B2A0A128A117E23AD
:1004D0000A128A11092A83160313580857040319AC
:1004E000722A732A7F2AD501D601D701D801D901F2
:1004F000DA010A128A11C1240A128A11092A831602
:1005000003135A0859040319862A872A092AD50190
:10051000D601D701D801D901DA01AA29092A092A65
:10052000092A092A080083120313A001A101FB086C
:10053000031D9B2A9C2A9E2A7D2B7D2B7A087904F9
:10054000031DA32AA42AAD2A3030FC007B088400B6
:100550007C08831380007D2B7D2BFA1FB02AB12AE3
:10056000DA2AFF30F000FF30F1007A08F301F307D8
:100570007908F201F2070A128A1510240A128A1168
:100580007108FA01FA077008F901F9072D30FC002B
:100590007B0884007C08831380000130FC007C0809
:1005A000FB07013083120313A0070318A10A0030D0
:1005B000A107DA2A7A08A301A3077908A201A207F2
:1005C0002308803AFF0080307F02031DE92A0130B2
:1005D00022020318EC2AED2AEF2A1A2B1A2B0A30D2
:1005E000F0000030F100831203132308F301F30736
:1005F0002208F201F2070A128A15E6260A128A1167
:10060000710883120313A301A3077008A201A207B4
:100610000130FC007C08FB072308803AFF00803093
:100620007F02031D152B013022020318182B192BF2
:10063000EF2A1A2B7B088400831380017A08831227
:100640000313A301A3077908A201A2072308803A94
:10065000FF0080307F02031D2F2B01302202031880
:10066000322B332B352B7D2B7D2B0A30F0000030C5
:10067000F100831203132308F301F3072208F201A8
:10068000F2070A128A1515260A128A117008303EDE
:10069000FC000130FB027B0884007C08831380008F
:1006A000013083120313A0070318A10A0030A10729
:1006B0000A30F0000030F1002308F301F3072208AC
:1006C000F201F2070A128A15E6260A128A11710847
:1006D00083120313A301A3077008A201A207230832
:1006E000803AFF0080307F02031D782B0130220208
:1006F00003187B2B7C2B352B7D2B08000A128A15C7
:1007000096230A128A11A530F2000030F300BE30A1
:100710000A128A15BE230A128A11DB30F2008830D1
:10072000F300A5300A128A15BE230A128A11831219
:100730000313051C9C2B9D2BA42B3130FB007B0845
:1007400083160313A500A42B8312851CA82BA92BA9
:10075000B02B3130FB007B0883160313A600B02BAF
:100760008312051DB42BB52BBC2B3130FB007B084D
:1007700083160313A700BC2B83126C088316031384
:10078000DC01DC07831203136B0883160313DB0100
:10079000DB0783120313EB01EC017F30A0008830EC
:1007A000A1000230A2000030A3000030A4000030FD
:1007B000A5000A128A155C250A128A116330F0001E
:1007C0000030F1000A128A15AC220A128A11BE30DA
:1007D000F0000030F100A5300A128A159C240A129C
:1007E0008A11710870040319F62BF72BC02CA53061
:1007F00083120313A0000030A1000130A2000030DA
:10080000A3000130A4000030A5000A128A155C255F
:100810000A128A110730F0000030F1000A128A151E
:10082000AC220A128A11B830F0000B30F1000A1223
:100830008A15CD220A128A11AA30FB007B08F0002B
:10084000A5300A128A1513250A128A11710870043C
:1008500003192B2C2C2C352C0130831203136B0421
:10086000EB0000306C04EC003E2C063083120313C6
:100870006B05EB0000306C05EC003E2CAF30FB004C
:100880007B08F000A5300A128A1513250A128A1176
:100890007108700403194D2C4E2C572C0230831212
:1008A00003136B04EB0000306C04EC00602C05308B
:1008B000831203136B05EB0000306C05EC00602C19
:1008C000B430FB007B08F000A5300A128A1513250E
:1008D0000A128A117108700403196F2C702C792C7C
:1008E0000430831203136B04EB0000306C04EC0043
:1008F000822C0330831203136B05EB0000306C0570
:10090000EC00822C6B18852C892C8312031307169C
:100910008C2C8312031307126C08FC006B08FB007D
:100920000130FF007C0DFC0CFB0CFF0B922C7B18A4
:100930009A2C9E2C831203138716A12C8312031367
:1009400087126C08FC006B08FB000230FF007C0D76
:10095000FC0CFB0CFF0BA72C7B18AF2CB32C8312C9
:1009600003130717B62C831203130713C830F000C4
:100970000030F1000A128A15CD220A128A11C02C09
:10098000080053308400C33083120313AD00040801
:10099000AE001030AF002D08840083130008B000B3
:1009A000AD0A2E08840030088000AE0AAF0BCB2CB5
:1009B000E501E601E301E401D101D201E701E8012B
:1009C0000A128A111E200A128A11E62C173083128D
:1009D0000313A0008830A1000130A2000030A30062
:1009E0000130A4000030A5000A128A155C250A1205
:1009F0008A118830F0001330F1000A128A15CD22D6
:100A00000A128A1183120313E501E601E701E801E6
:100A10003230F2008830F30031300A128A15BE23DA
:100A20000A128A11313083120313A0000030A10092
:100A30000130A2000030A3000130A4000030A50066
:100A40000A128A155C250A128A11AA30831203132E
:100A5000A0000030A1000230A2000030A30000304E
:100A6000A4000030A5000A128A155C250A128A111A
:100A7000392D0A128A11C4200A128A1175088312AC
:100A80000313EA01EA077408E901E9076A08F101BA
:100A9000F1076908F001F0070A128A15AC220A1260
:100AA0008A1101308312031369066A040319592D50
:100AB0005A2D612D6A086904031D5F2D602DC82D14
:100AC000612D66086504031D662D672DCB2D680812
:100AD0006704031D6C2D6D2D772D4530F200883095
:100AE000F300AA300A128A15BE230A128A112A308C
:100AF00083120313A0008930A1000230A20000304D
:100B0000A3000030A4000030A5000A128A155C255D
:100B10000A128A11831203136A08FA01FA07690894
:100B2000F901F9075330AD002D08FB000A128A11B4
:100B300093220A128A11533083120313AD002D0839
:100B4000F000AA300A128A15E7230A128A11AA3085
:100B500083120313A0000030A1000230A200003075
:100B6000A3000030A4000030A5000A128A155C25FD
:100B70000A128A11013083120313E5000030E600E7
:100B80000130E7070318E80A0030E807CB2DCB2D2A
:100B9000E501E601CB2D6808803AFF0080307F0236
:100BA000031DD42D03306702031CD72DD82DDA2D59
:100BB000FC2DFC2D02308312031369066A04031D09
:100BC000E22DE32DEF2D64086304031DE82DE92DCC
:100BD000392D0130E3000030E400FC2D392D633065
:100BE00069066A04031DF52DF62D392DE301E40194
:100BF000392D392D392D392D83120313E501E601E5
:100C0000E701E8014630F2008830F30031300A1283
:100C10008A15BE230A128A11313083120313A000F1
:100C20000030A1000130A2000030A3000130A40078
:100C30000030A5000A128A155C250A128A11AF300D
:100C400083120313A0000030A1000230A200003084
:100C5000A3000030A4000030A5000A128A155C250C
:100C60000A128A11332E0A128A11C4200A128A111A
:100C7000750883120313EA01EA077408E901E9071A
:100C80006A08F101F1076908F001F0070A128A15F4
:100C9000AC220A128A1101308312031369066A0416
:100CA0000319532E542E5B2E6A086904031D592E16
:100CB0005A2EC22E5B2E66086504031D602E612E1F
:100CC000C52E68086704031D662E672E712E4530F9
:100CD000F2008830F300AF300A128A15BE230A12E0
:100CE0008A112A3083120313A0008930A100023038
:100CF000A2000030A3000030A4000030A5000A12BA
:100D00008A155C250A128A11831203136A08FA01F4
:100D1000FA076908F901F9075330AD002D08FB0007
:100D20000A128A1193220A128A1153308312031372
:100D3000AD002D08F000AF300A128A15E7230A1221
:100D40008A11AF3083120313A0000030A1000230DB
:100D5000A2000030A3000030A4000030A5000A1259
:100D60008A155C250A128A11013083120313E500EB
:100D70000030E6000130E7070318E80A0030E80712
:100D8000C52EC52EE501E601C52E6808803AFF0094
:100D900080307F02031DCE2E03306702031CD12E4C
:100DA000D22ED42EF62EF62E0230831203136906AD
:100DB0006A04031DDC2EDD2EE92E64086304031D86
:100DC000E22EE32E332E0130E3000030E400F62E55
:100DD000332E633069066A04031DEF2EF02E332E86
:100DE000E301E401332E332E332E332E831203130B
:100DF000E501E601E701E8015A30F2008830F3002E
:100E000031300A128A15BE230A128A113130831238
:100E10000313A0000030A1000130A2000030A300A5
:100E20000130A4000030A5000A128A155C250A12C0
:100E30008A11B43083120313A0000030A1000230E5
:100E4000A2000030A3000030A4000030A5000A1268
:100E50008A155C250A128A112D2F0A128A11C420C4
:100E60000A128A11750883120313EA01EA0774084B
:100E7000E901E9076A08F101F1076908F001F007E3
:100E80000A128A15AC220A128A1101308312031346
:100E900069066A0403194D2F4E2F552F6A086904FD
:100EA000031D532F542FBC2F552F66086504031DB7
:100EB0005A2F5B2FBF2F68086704031D602F612F17
:100EC0006B2F4530F2008830F300B4300A128A15D7
:100ED000BE230A128A112A3083120313A00089301C
:100EE000A1000230A2000030A3000030A4000030B6
:100EF000A5000A128A155C250A128A1183120313AF
:100F00006A08FA01FA076908F901F9075330AD00D8
:100F10002D08FB000A128A1193220A128A115330FB
:100F200083120313AD002D08F000B4300A128A15A5
:100F3000E7230A128A11B43083120313A000003091
:100F4000A1000230A2000030A3000030A400003055
:100F5000A5000A128A155C250A128A110130831233
:100F60000313E5000030E6000130E7070318E80A44
:100F70000030E807BF2FBF2FE501E601BF2F68084B
:100F8000803AFF0080307F02031DC82F03306702C4
:100F9000031CCB2FCC2FCE2FF02FF02F023083123B
:100FA000031369066A04031DD62FD72FE32F6408A5
:100FB0006304031DDC2FDD2F2D2F0130E3000030F3
:100FC000E400F02F2D2F633069066A04031DE92F1A
:100FD000EA2F2D2FE301E4012D2F2D2F2D2F2D2F63
:100FE0000A128A1567240A128A1183160313D5017F
:100FF000D601D701D8010130D9000030DA0008004D
:10100000FF1B0A2883137F1883170008840A03191B
:10101000FF0A08007F087F398A000408840A031940
:10102000FF0A82000034043408340C340F34503486
:101030007234653473347334203432342E342034B3
:101040002D34203453346B34693470342034663496
:101050006F34723420344434653476346934633404
:101060006534003445346E3474346534723420345D
:101070004C346F3467346934633420344434453439
:10108000563431343A3420342034003445346E340C
:1010900074346534723420344C346F3467346934BA
:1010A0006334203444344534563432343A342034B2
:1010B0002034003445346E34743465347234203452
:1010C0004C346F34673469346334203444344534E9
:1010D000563433343A3420342034003450347234AB
:1010E00065347334733420343034203474346F34C2
:1010F000203443346F346E3474342E34003450341E
:10110000723465347334733420343234203474349C
:101110006F34203452344534503452344734003420
:1011200046345034203448346F346D3465342034C0
:10113000413474346F346D346E342E3400343134B1
:101140002E345334573454342034203432342E3433
:1011500052344534503452344734003443344F34DD
:101160004E3446344934473455345234453444348B
:101170002034213400345234453441344434493429
:101180004E3447342E342E3420342134003453343A
:1011900065346E34733469346E3467342E342E34CF
:1011A0002E34003433342E345234453453344534E1
:1011B000543400343034303430343034003431344A
:1011C000303430343034003430343134303430342E
:1011D000003431343134303430340034303430344D
:1011E000313430340034313430343134303400343C
:1011F00030343134313430340034313431343134FA
:10120000303400343034303430343134003431341C
:1012100030343034313400343034313430343134DB
:1012200000343134313430343134003430343034FB
:1012300031343134003431343034313431340034E9
:1012400030343134313431340034313431343134A8
:0C125000313400342D342D342D340034A2
:1014C40083120313081388130613861308000130CC
:1014D4000A128A1592220A128A150800831203132B
:1014E4008601D0308316031386000800640080014F
:1014F400840A0406031900340406792A83120313A8
:1015040088160A128A15F7220A128A15080083120D
:10151400031388120A128A15F7220A128A15080080
:10152400F80078080A128A155A270A128A150A122C
:101534008A1589220A128A150800F80078080A1206
:101544008A155A270A128A150A128A1580220A1243
:101554008A1508006330700671040319B22AB32A8D
:10156400B72A831203138616BB2A83120313861227
:10157400BB2A08007E088A007F088200BC220A1267
:101584008A158000840A04087D0603190034FF0AC2
:101594000319FE0AC02ACF2ACF2A0130F0020030F4
:1015A400031CF103F102FF307106031DDB2AFF3037
:1015B4007006031DDE2ADF2ACF2AE02A08000F3036
:1015C4008316031386000A128A1510230A128A1539
:1015D4000A128A1570220A128A150A128A11AA217D
:1015E4000A128A150A128A11002883120313081694
:1015F400FA30F0000030F1000A128A15CD220A12E6
:101604008A158312031308122C30F0000130F10004
:101614000A128A15CD220A128A15080083160313AA
:101624008701C030880038300A128A1592220A12C3
:101634008A150C300A128A1592220A128A15013070
:101644000A128A1592220A128A1580300A128A1501
:1016540092220A128A150800EB01EC01ED01EE0159
:101664008313C3308400DF300A128A1578220A12E9
:101674008A15C330FD000B30FE004C30FF00A03053
:1016840084000A128A15C0220A128A1583010A12DA
:101694008A15E12A30343034303430340034303474
:1016A4003034303430340034313430343034003475
:1016B4000034303431343034003400343034303495
:1016C40031340034003431343034303400340034B4
:1016D40030343034303430340034831603178C13F0
:1016E4007208831203178D0074088C008316031785
:1016F4008C110C1555308D00AA308D008C14822B62
:101704008C18852B862B822B8C1D892B8A2B8C2B5A
:101714006F2B6F2BC830F0000030F1000A128A15CD
:10172400CD220A128A1508008316031354085304A1
:10173400031D9D2B9E2BBD2B0F3085008316031795
:101744008801013083160313D3000030D400C7305E
:1017540083120313A0008830A1000130A2000030DE
:10176400A3000130A4000030A5000A128A155C25EC
:101774000A128A15BD2B0800F7007708F4007408D4
:10178400F800C52BC52B7308F5007208F40001306E
:10179400F2070318F30A750883120313FF00740891
:1017A40084000A128A1500200A128A15F6007808A5
:1017B40084000130F8077608831380008008031D35
:1017C400E42BE52BC52BE62B0800F2007208F10090
:1017D4007108F300F22B0130F1007108F307F22BCA
:1017E4007308840083138008031DF92BFA2BED2B57
:1017F400FD2BFD2BFD2B700884000130F007000841
:10180400F100730884000130F30771088000800838
:10181400031D0D2C0E2CFD2B0F2C0800F401F501DB
:10182400132C701C162C172C1D2C7208F40703188B
:10183400F50A7308F50701300310F20DF30DFF3EAE
:10184400031D1E2C01300310F10CF00CFF3E031D90
:10185400252C71087004031D302C312C132C322CD0
:101864007508F101F1077408F001F007392C08003C
:101874007908831203178D00831603178C138312C0
:1018840003130D12831603170C140C11492C0C1896
:101894004C2C4D2C492C4E2C831203170C08FB00A6
:1018A400FC017B0883120313A0007C08A100C8304C
:1018B400F0000030F1000A128A15CD220A128A15AE
:1018C400831203132008662C08000030F500003052
:1018D400F600AA30FC007C08F7000A128A15B42529
:1018E4000A128A150130F5000030F600AF30FC0012
:1018F4007C08F7000A128A15B4250A128A150230E8
:10190400F5000030F600B430FC007C08F7000A1241
:101914008A15B4250A128A150330F5000030F60042
:10192400B930FC007C08F7000A128A15B4250A12A3
:101934008A150800F7009F2C9F2C770884008313D6
:101944000008F2007108F4007008F3000130F00799
:101954000318F10A740883120313FF007308840048
:101964000A128A1500200A128A15FF3A013E7207EC
:10197400F5007508F600F608031DC12CC22CCE2C08
:10198400770884000130F70783138008031DCB2CEC
:10199400CC2C9F2CCE2CCE2C7608F000F101F01B21
:1019A400F103D42C08000A128A1562220A128A153D
:1019B400013072067304031DE02CE12CE52C831224
:1019C40003138615092D023072067304031DEB2CD4
:1019D400EC2CF02C831203130615092D0330720628
:1019E4007304031DF62CF72CFB2C831203138614AB
:1019F400092D043072067304031D012D022D092DD7
:101A0400831203130614092D092D092D092DC8303D
:101A1400F0000030F1000A128A15CD220A128A154C
:101A24000800F300F401F501F401F5017508803AAA
:101A3400FF0080307F02031D212D04307402031C3B
:101A4400242D252D272D562D562D74087307F200AD
:101A54007208840083130008303A031D322D332D9D
:101A6400422D74087007F200720884000008313AAD
:101A7400031D3D2D3E2D422DF001F1015B2D5B2D0B
:101A84000130F4070318F50A0030F5077508803AA9
:101A9400FF0080307F02031D512D04307402031CAB
:101AA400542D552D272D562D0130F0000030F10016
:101AB4005B2D080001308312031324062504031D43
:101AC400642D652D6B2D0A128A1569220A128A1556
:101AD4006B2D02308312031322062304031D732D7E
:101AE400742D7B2DC0300A128A1592220A128A158F
:101AF400822D02300A128A1592220A128A15822D28
:101B0400F901FA019F2D7908831203132007840039
:101B140021080318210AFF000A128A1500200A125C
:101B24008A150A128A159F220A128A150130F907AA
:101B34000318FA0A0030FA079F2D79088312031359
:101B44002007840021080318210AFF000A128A15BD
:101B540000200A128A150038031DB12DB22D852DDF
:101B6400B32D08007508123E840088300318013E26
:101B740083120313FF000A128A1500200A128A1521
:101B8400F8007808FB007B08F800F9017808F200F7
:101B94007908F3007708840083130008FA007A08B0
:101BA400F4000A128A156F230A128A157B08013E73
:101BB400F200003003180130F3007708013E84007E
:101BC40083130008F8007808F4000A128A156F23BA
:101BD4000A128A157B08023EF20000300318013015
:101BE400F3007708023E840083130008F8007808A5
:101BF400F4000A128A156F230A128A157B08033E21
:101C0400F200003003180130F3007708033E84002B
:101C140083130008F8007808F4000A128A156F2369
:101C24000A128A150800F601F31F192E1A2E232E04
:101C3400F209F309F20A0319F30AF6010314F60D83
:101C4400232EF11F262E272E2D2EF009F109F00A3E
:101C54000319F10A2D2E710870040319322E332E44
:101C6400692EF5010314F50D432E01300310F00D18
:101C7400F10DFF3E031D382E0130F4007408F50702
:101C8400432EF11F462E472E372E492E492E71081A
:101C94007302031D4F2E70087202031C522E532E22
:101CA4005A2E7008F2027108031CF303F3025A2E31
:101CB40001300310F10CF00CFF3E031D5B2E0130CC
:101CC400F502031D662E672E492E692E692E7608AD
:101CD400031D6D2E732EF209F309F20A0319F30A98
:101CE400732E7308F101F1077208F001F0077A2EE0
:101CF4000800273084008316031320088313800010
:101D0400840A21088000840A22088000840A2308A7
:101D14008000840A24088000831203132208123EE0
:101D2400840088300318013EFF000A128A1500203F
:101D34000A128A15A4002408AC002C08A400A501EA
:101D44002408F9002508FA000A128A153A240A120E
:101D54008A1583120313A6002608A7002C08013E47
:101D6400F900003003180130FA000A128A153A24E7
:101D74000A128A1583120313A4002408A8002C084D
:101D8400023EF900003003180130FA000A128A15E5
:101D94003A240A128A1583120313A4002408A90002
:101DA4002C08033EF900003003180130FA000A122F
:101DB4008A153A240A128A1583120313A4002408EC
:101DC400AA002730E52E0800F601F11FEA2EEB2EBB
:101DD400F42EF009F109F00A0319F10AF6010314CB
:101DE400F60DF42EF31FF72EF82E022FF209F30945
:101DF400F20A0319F30A0130F4007408F606022FFC
:101E0400F701F801710870040319092F0A2F482FEC
:101E1400F5010314F50D1A2F01300310F00DF10D27
:101E2400FF3E031D0F2F0130F4007408F5071A2F2D
:101E3400F11F1D2F1E2F0E2F202F202F01300310D6
:101E4400F70DF80DFF3E031D212F71087302031DCA
:101E54002D2F70087202031C302F312F392F700878
:101E6400F2027108031CF303F3027714392F0130D3
:101E74000310F10CF00CFF3E031D3A2F0130F50264
:101E8400031D452F462F202F482F482F7608031D6A
:101E94004C2F522FF709F809F70A0319F80A522FA1
:101EA4007808F101F1077708F001F007592F0800CD
:101EB400F700F00177080A128A1103200A128A1522
:101EC400F5007518662F6A2F8312031388156D2F7A
:101ED400831203138811F0010314F00D77080A121A
:101EE4008A1103200A128A15F50075187A2F7E2F9D
:101EF400831203130815812F831203130811023070
:101F0400F5007508F00077080A128A1103200A12F6
:101F14008A15F60076188F2F932F831203138814D3
:101F2400962F8312031388100330F5007508F00010
:101F340077080A128A1103200A128A15F600761805
:101F4400A42FA82F831203130814AB2F8312031397
:101F540008100430F5007508F00077080A128A1199
:101F640003200A128A15F6007618B92FBD2F8312A2
:101F740003138715C02F8312031387110530F5004F
:101F84007508F00077080A128A1103200A128A15CC
:101F9400F6007618CE2FD22F831203130715D52FF0
:101FA4008312031307110630F5007508F000770853
:101FB4000A128A1103200A128A15F6007618E32FF2
:101FC400E72F831203138714EA2F83120313871056
:101FD4000730F5007508F00077080A128A1103200B
:101FE4000A128A15F6007618F82FFC2F83120313B1
:0C1FF4000714FF2F8312031307100800CE
:00000001FF
