:060000000A128A11892D8D
:1008E600831203138601C0308316031386000800A3
:1008F60064008001840A04060319003404067C2C73
:100906000130F8000030F9000A128A1113250A1284
:100916008A11080031343034303400340034303435
:1009260030343034303400347E088A007F08820048
:1009360097240A128A118000840A04087D06031986
:100946000034FF0A0319FE0A9B2CAA2CAA2C01309C
:10095600F0020030031CF103F102FF307106031DA3
:10096600B62CFF307006031DB92CBA2CAA2CBB2C52
:1009760008003034303430343034003431343034DC
:100986003034003400343034313430340034003400
:1009960030343134303400340034F1008316031718
:1009A6008C137108831203178D00831603170C111D
:1009B6000C14E42C831203170C08F0007008F200E4
:1009C600E42C831603170C18E92CEA2CDD2CEB2CEF
:1009D6007208ED2C08007908F101F1077808F0019A
:1009E600F0070A128A11A6260A128A118312031325
:1009F600071486161430F0000030F1000A128A112E
:100A0600A8240A128A118312031386121430F000E6
:100A16000030F1000A128A11A8240A128A1108006D
:100A26007908F101F1077808F001F0070A128A1136
:100A3600A6260A128A11831203130710861614308B
:100A4600F0000030F1000A128A11A8240A128A1155
:100A56008312031386121430F0000030F1000A12DC
:100A66008A11A8240A128A110800F20083160317B5
:100A76008C137208831203178D0070088C0083167E
:100A860003170C158C1155308D00AA308D008C146F
:100A96004D2D0C118C18502D512D4C2D8C1D542D77
:100AA600552D5E2D7008F1007108F000720838258A
:100AB6000A128A115E2D08003E3083160313870042
:100AC60088013830F8000030F9000A128A1113251F
:100AD6000A128A110C30F8000030F9000A128A1145
:100AE60013250A128A110130F8000030F9000A12A3
:100AF6008A1113250A128A118030F8000030F90095
:100B06000A128A1113250A128A11080083135F300C
:100B160084006E300A128A117B240A128A11A030D0
:100B26008400B0300A128A117B240A128A11BA3064
:100B3600FD000430FE008D30FF00B03084000A1244
:100B46008A119B240A128A115F30FD000430FE00D0
:100B5600BC30FF004B3084000A128A119B240A1213
:100B66008A1183010A128A111C2E01308312031383
:100B760046064704031DC02DC12DC72D0A128A1132
:100B860083240A128A11C72D0230831203134406E6
:100B96004504031DCF2DD02DDA2DC030F8000030CE
:100BA600F9000A128A1113250A128A11E42D02305D
:100BB600F8000030F9000A128A1113250A128A1168
:100BC600E42DFC01FD01072E7C0883120313420766
:100BD600840043080318430AFF000A128A150020FE
:100BE6000A128A11FA00FB017A08F8007B08F9005C
:100BF6000A128A11EE240A128A110130FC07031820
:100C0600FD0A0030FD07072E7C08831203134207F6
:100C1600840043080318430AFF000A128A150020BD
:100C26000A128A110038031D192E1A2EE72D1B2EC3
:100C360008000F308316031386000A128A115F25F7
:100C46000A128A110A128A1173240A128A1158305A
:100C560083120313C8004808F0001230840088305D
:100C6600FF000A128A1500200A128A110A128A1136
:100C760038250A128A111230840088308312031331
:100C8600FF000A128A1500200A128A110A128A1116
:100C9600D0240A128A1183120313C8004808CA0016
:100CA600C130C2008830C3000130C4000030C50026
:100CB6000130C6000030C7000A128A11B8250A1290
:100CC6008A11E830F0000330F1000A128A11A824D4
:100CD6000A128A11831203134A08C800C901480878
:100CE600F8004908F9000A128A11EE240A128A113C
:100CF6008830F0001330F1000A128A11A8240A1273
:100D06008A11CC3083120313C2008830C30001302D
:100D1600C4000030C5000130C6000030C7000A120A
:100D26008A11B8250A128A11E830F0000330F10062
:100D36000A128A11A8240A128A11A32EA32EA32E00
:100D46000A128A11002883120313C001C101173049
:100D560084008830FF000A128A1500200A128A11C0
:100D6600F2000A128A1500200A128A11F3004108BD
:100D7600803AF4007308803A7402031DC42E720888
:100D86004002031CC72EC82ECA2E0D2F0D2F83120C
:100D96000313400AF2007108F4007008F300D62E1F
:100DA6000310F30DF40DF20BD32E0030F41B0130BB
:100DB600F500F6014008F7007707203E8400750825
:100DC60083138000840A760880000130C007031868
:100DD600C10A0030C107173084008830FF000A12AC
:100DE6008A1500200A128A11F2000A128A150020BA
:100DF6000A128A11F3004108803AF4007308803A17
:100E06007402031D082F72084002031C0B2F0C2FBF
:100E1600CA2E0D2F17308400883083120313FF006B
:100E26000A128A1500200A128A11F2007207FE3E83
:100E3600203E840083130008F300840A0008F400AF
:100E46007318262F2A2F8312031308142D2F8312AB
:100E560003130810173084008830FF000A128A1521
:100E660000200A128A11F2007207FC3E203E84001E
:100E760083130008F300840A0008F4007318442F53
:100E8600482F8312031388144B2F831203138810E1
:100E9600173084008830FF000A128A1500200A12D3
:100EA6008A11F2007207FA3E203E8400831300087E
:100EB600F300840A0008F4007318622F662F831269
:100EC60003130815692F83120313081117308400C2
:100ED6008830FF000A128A1500200A128A11F200D1
:100EE6007207F83E203E840083130008F300840A4C
:100EF6000008F4007318802F842F831203138815BB
:100F0600872F831203138811173084008830FF005F
:100F16000A128A1500200A128A11F2007207F63E9A
:100F2600203E840083130008F300840A0008F400BE
:100F360073189E2FA22F831203130816A52F831250
:100F460003130812173084008830FF000A128A152E
:100F560000200A128A11F2007207F43E203E840035
:100F660083130008F300840A0008F4007318BC2FEA
:100F7600C02F831203138816C32F831203138812FC
:100F8600173084008830FF000A128A1500200A12E2
:100F96008A11F2007207F23E203E84008313000895
:100FA600F300840A0008F4007318DA2FDE2F831288
:100FB60003130817E12F8312031308131730840055
:100FC6008830FF000A128A1500200A128A11F200E0
:100FD6007207F03E203E840083130008F300840A63
:100FE6000008F4007318F82FFC2F831203138817D8
:100FF600FF2F8312031388130800FF1B0A2883138D
:101006007F1883170008840A0319FF0A08007F085F
:101016007F398A000408840A0319FF0A8200003413
:10102600043408340C340F34103400345734453447
:101036004C3443344F344D34453420342134203439
:1010460054344F342034503452344F3447345234AD
:1010560041344D34413442344C34453420344834E0
:101066004F344D34453420344134553454344D34A2
:10107600413454344E34003450347234653473344D
:101086007334203432342E3420342D342034533407
:101096006B3469347034203466346F3472342034DF
:1010A6004434653476346934633465340034453405
:1010B6006E3474346534723420344C346F3467348F
:1010C60069346334203444344534563431343A3444
:1010D60020342034003445346E347434653472342C
:1010E60020344C346F3467346934633420344434E8
:1010F6004534563432343A342034203400344534BE
:101106006E3474346534723420344C346F3467343E
:1011160069346334203444344534563433343A34F1
:1011260020342034003450347234653473347334CC
:1011360020343234203474346F34203452344534FD
:10114600503452344734003431342E345334573407
:1011560054342034203432342E345234453450340E
:10116600523447340034533465346E34733469343E
:101176006E3467342E342E342E34003444346134C5
:10118600743461342034573472346F3474346534B3
:101196000034443461347434613420345234453478
:1011A60041344434003433342E34523445345334C9
:1011B6004534543400343034303430343034003430
:1011C6003134303430343034003430343134303427
:1011D6003034003431343134303430340034303447
:1011E6003034313430340034313430343134303406
:1011F6000034303431343134303400343134313425
:101206003134303400343034303430343134003416
:1012160031343034303431340034303431343034D5
:1012260031340034313431343034313400343034F4
:1012360030343134313400343134303431343134B3
:1012460000343034313431343134003431343134D3
:0E1256003134313400342D342D342D34003435
:00000001FF
