:060000000A128A15562DBC
:10000E003134303430340034003430343134303420
:10001E00003400340A128A15FB230A128A11AA3000
:10002E00F0000130F1006730F2000030F3000A12E8
:10003E008A1575240A128A116730F0000030F1001B
:10004E00C530F2008830F3000A128A1575240A12A0
:10005E008A1183120313071E352836283B283130A8
:10006E00C8004808E7003B28871E3E283F28442842
:10007E003130C8004808E8004428871C4728482823
:10008E004D283130C8004808E9004D286208E601C5
:10009E00E6076108E501E507E101E2019130C200E2
:1000AE008830C3000230C4000030C5000030C600E6
:1000BE000030C7000A128A15EF250A128A11AA30DB
:1000CE00F0000130F10067300A128A15DF240A129F
:1000DE008A1171087004031975287628F228673082
:1000EE0083120313C2000030C3000130C40000307D
:1000FE00C5000130C6000030C7000A128A15EF2570
:10010E000A128A11DA30F0000030F10067300A125C
:10011E008A159A250A128A117108700403199828F3
:10012E009928A2280130831203136104E1000030E4
:10013E006204E200AB280630831203136105E1006E
:10014E0000306205E200AB28DF30F0000030F10035
:10015E0067300A128A159A250A128A1171087004DC
:10016E000319BA28BB28C428023083120313610472
:10017E00E10000306204E200CD2805308312031343
:10018E006105E10000306205E200CD28A530F000E7
:10019E000130F10067300A128A159A250A128A1167
:1001AE00710870040319DC28DD28E6280430831258
:1001BE0003136104E10000306204E200EE28033014
:1001CE00831203136105E10000306205E20061084D
:1001DE008500F228F22808000130F2000030F3000A
:1001EE000A128A1518250A128A1183120313071D83
:1001FE00012902290729F401F501DA29DA292A2928
:10020E00871D0A290B2912290130F4000030F50050
:10021E00DA29DA292A29061F152916291D2902305D
:10022E00F4000030F500DA29DA292A29861F202960
:10023E0021292A290330F4000030F500DA29DA29C1
:10024E002A292A292A290230F2000030F3000A1244
:10025E008A1518250A128A1183120313071D3829CD
:10026E00392940290430F4000030F500DA29DA2962
:10027E006329871D432944294B290530F40000309A
:10028E00F500DA29DA296329061F4E294F29562946
:10029E000630F4000030F500DA29DA296329861FCA
:1002AE0059295A2963290730F4000030F500DA295C
:1002BE00DA296329632963290330F2000030F30041
:1002CE000A128A1518250A128A1183120313071DA2
:1002DE007129722979290830F4000030F500DA29E5
:1002EE00DA299C29871D7C297D2984290930F4006F
:1002FE000030F500DA29DA299C29061F872988297A
:10030E008F290A30F4000030F500DA29DA299C2909
:10031E00861F922993299C290B30F4000030F5009A
:10032E00DA29DA299C299C299C290430F200003014
:10033E00F3000A128A1518250A128A118312031362
:10034E00071DAA29AB29B2290C30F4000030F500A4
:10035E00DA29DA29D529871DB529B629BD290D3007
:10036E00F4000030F500DA29DA29D529061FC02954
:10037E00C129C8290E30F4000030F500DA29DA2937
:10038E00D529861FCB29CC29D5290F30F400003072
:10039E00F500DA29DA29D529D529D5296330F400D3
:1003AE000030F500DA29080083120313A001A10121
:1003BE00FB08031DE329E429E629C52AC52A7A0884
:1003CE007904031DEB29EC29F5293030FC007B085C
:1003DE0084007C0883138000C52AC52AFA1FF829D9
:1003EE00F929222AFF30F000FF30F1007A08F301DC
:1003FE00F3077908F201F2070A128A1521240A126C
:10040E008A117108FA01FA077008F901F9072D30FF
:10041E00FC007B0884007C08831380000130FC0004
:10042E007C08FB07013083120313A0070318A10AEF
:10043E000030A107222A7A08A301A3077908A20196
:10044E00A2072308803AFF0080307F02031D312A65
:10045E00013022020318342A352A372A622A622AE8
:10046E000A30F0000030F100831203132308F30169
:10047E00F3072208F201F2070A128A15B9260A12A8
:10048E008A11710883120313A301A3077008A20136
:10049E00A2070130FC007C08FB072308803AFF000E
:1004AE0080307F02031D5D2A013022020318602A6C
:1004BE00612A372A622A7B088400831380017A0816
:1004CE0083120313A301A3077908A201A20723082D
:1004DE00803AFF0080307F02031D772A013022020E
:1004EE0003187A2A7B2A7D2AC52AC52A0A30F000EB
:1004FE000030F100831203132308F301F3072208DF
:10050E00F201F2070A128A1553260A128A1170088E
:10051E00303EFC000130FB027B0884007C08831314
:10052E008000013083120313A0070318A10A0030C4
:10053E00A1070A30F0000030F1002308F301F307A1
:10054E002208F201F2070A128A15B9260A128A1136
:10055E00710883120313A301A3077008A201A20757
:10056E002308803AFF0080307F02031DC02A01302D
:10057E0022020318C32AC42A7D2AC52A0800831220
:10058E000313C001C101123084008830FF000A122B
:10059E008A1500200A128A11F2000A128A1500200A
:1005AE000A128A11F3004108803AF4007308803A67
:1005BE007402031DE42A72084002031CE72AE82A8B
:1005CE00EA2A2D2B2D2B83120313400AF2007108F9
:1005DE00F4007008F300F62A0310F30DF40DF20B7D
:1005EE00F32A0030F41B0130F500F6014008F70045
:1005FE007707203E8400750883138000840A7608EE
:10060E0080000130C0070318C10A0030C107123044
:10061E0084008830FF000A128A1500200A128A11FF
:10062E00F2000A128A1500200A128A11F3004108FC
:10063E00803AF4007308803A7402031D282B720866
:10064E004002031C2B2B2C2BEA2A2D2B123084005C
:10065E00883083120313FF000A128A1500200A1233
:10066E008A11F2007207FE3E203E840083130008BA
:10067E00F300840A0008F4007318462B4A2B8312E9
:10068E00031308144D2B8312031308101230840029
:10069E008830FF000A128A1500200A128A11F20011
:1006AE007207FC3E203E840083130008F300840A88
:1006BE000008F4007318642B682B8312031388143C
:1006CE006B2B831203138810123084008830FF00C6
:1006DE000A128A1500200A128A11F2007207FA3ED7
:1006EE00203E840083130008F300840A0008F400FF
:1006FE007318822B862B831203130815892B8312F2
:10070E0003130811123084008830FF000A128A1574
:10071E0000200A128A11F2007207F83E203E840071
:10072E0083130008F300840A0008F4007318A02B4A
:10073E00A42B831203138815A72B8312031388117E
:10074E00123084008830FF000A128A1500200A1227
:10075E008A11F2007207F63E203E840083130008D1
:10076E00F300840A0008F4007318BE2BC22B831208
:10077E0003130816C52B83120313081212308400BC
:10078E008830FF000A128A1500200A128A11F20020
:10079E007207F43E203E840083130008F300840A9F
:1007AE000008F4007318DC2BE02B83120313881659
:1007BE00E32B831203138812123084008830FF005B
:1007CE000A128A1500200A128A11F2007207F23EEE
:1007DE00203E840083130008F300840A0008F4000E
:1007EE007318FA2BFE2B831203130817012C831296
:1007FE0003130813123084008830FF000A128A1582
:10080E0000200A128A11F2007207F03E203E840088
:10081E0083130008F300840A0008F4007318182CE0
:10082E001C2C8312031388171F2C83120313881397
:10083E000800143083120313C8008830C90000303A
:10084E00CA000030CB000A128A152D270A128A110F
:10085E00C2308400903083120313DD000408DE00E2
:10086E001030DF005D08840083170008E000DD0A09
:10087E005E088400831360088000DE0ADF0B392CCB
:10088E0083160313D401D501D201D301C001C101D6
:10089E00D601D701A23083120313C2008830C300E1
:1008AE000130C4000030C5000130C6000030C70062
:1008BE000A128A15EF250A128A11BC30831203130D
:1008CE00C2008830C3000230C4000030C5000030C2
:1008DE00C6000030C7000A128A15EF250A128A11C7
:1008EE00782C0130831603136A066B04031D802CCB
:1008FE00812C8B2CEA01EB01E401E501E601E70115
:10090E00E801E901FF2FFF2F0A128A11F3200A12C4
:10091E008A11750883160313D901D9077408D801F3
:10092E00D807013058065904031D9E2C9F2CA72C66
:10093E000130E4000030E500E601E701E801E901DD
:10094E00023058065904031DAD2CAE2CB62CE40112
:10095E00E5010130E6000030E700E801E90103306F
:10096E0058065904031DBC2CBD2CCA2CE401E5010C
:10097E00E601E7010130E8000030E9000130EA004D
:10098E000030EB00CA2C650864040319CF2CD02C60
:10099E00D62C0A128A1111200A128A11782C83166B
:1009AE000313670866040319DD2CDE2CE62CE40124
:1009BE00E501E601E701E801E901FC2C782C690864
:1009CE0068040319EB2CEC2C782CE401E501E6010C
:1009DE00E701E801E9010130EA000030EB00782C74
:1009EE00782C782C782C782CFC2C3A30831203132C
:1009FE00C2008830C3000130C4000030C500013091
:100A0E00C6000030C7000A128A15EF250A128A1195
:100A1E008830F0001330F1000A128A1584230A126E
:100A2E008A1183160313D401D501D601D701A03044
:100A3E00F0000030F1005530F2008830F3000A1259
:100A4E008A1575240A128A11A03083120313C2006C
:100A5E000030C3000130C4000030C5000130C600B4
:100A6E000030C7000A128A15EF250A128A11DA30F1
:100A7E0083120313C2000030C3000230C4000030E2
:100A8E00C5000030C6000030C7000A128A15EF25D7
:100A9E000A128A110A128A11F3200A128A11750893
:100AAE0083160313D901D9077408D801D80701306A
:100ABE00580659040319642D652D6C2D59085804D8
:100ACE00031D6A2D6B2DDB2D6C2D55085404031D53
:100ADE00712D722DDE2D57085604031D772D782D9E
:100AEE00852DDA30F0000030F1006830F2008830E9
:100AFE00F3000A128A1575240A128A111430831211
:100B0E000313C2008930C3000230C4000030C50098
:100B1E000030C6000030C7000A128A15EF250A12EF
:100B2E008A11831603135908FA01FA075808F901B6
:100B3E00F907C23083120313DD005D08FB000A12B1
:100B4E008A11DB210A128A11DA30F0000030F1002E
:100B5E00C23083120313DD005D08F2000A128A15FB
:100B6E00A7240A128A11DA3083120313C20000304E
:100B7E00C3000230C4000030C5000030C600003093
:100B8E00C7000A128A15EF250A128A110130831640
:100B9E000313D4000030D5000130D6070318D70A4E
:100BAE000030D707DE2DDE2DD401D501DE2D5708FE
:100BBE00803AFF0080307F02031DE72D033056027E
:100BCE00031CEA2DEB2DED2D0F2E0F2E023083166A
:100BDE00031358065904031DF52DF62D022E530846
:100BEE005204031DFB2DFC2D512D0130D20000307F
:100BFE00D3000F2E512D633058065904031D082EB5
:100C0E00092E512DD201D301512D512D512D512D82
:100C1E0083160313D401D501D601D701A030F000FD
:100C2E000030F1006930F2008830F3000A128A15A4
:100C3E0075240A128A11A03083120313C2000030E9
:100C4E00C3000130C4000030C5000130C6000030C2
:100C5E00C7000A128A15EF250A128A11DF30831295
:100C6E000313C2000030C3000230C4000030C500C0
:100C7E000030C6000030C7000A128A15EF250A128E
:100C8E008A11492E0A128A11F3200A128A11750846
:100C9E0083160313D901D9077408D801D807013078
:100CAE005806590403195C2E5D2E642E59085804FB
:100CBE00031D622E632ED32E642E55085404031D7D
:100CCE00692E6A2ED62E57085604031D6F2E702ECF
:100CDE007D2EDF30F0000030F1006830F2008830F9
:100CEE00F3000A128A1575240A128A11143083121F
:100CFE000313C2008930C3000230C4000030C500A7
:100D0E000030C6000030C7000A128A15EF250A12FD
:100D1E008A11831603135908FA01FA075808F901C4
:100D2E00F907C23083120313DD005D08FB000A12BF
:100D3E008A11DB210A128A11DF30F0000030F10037
:100D4E00C23083120313DD005D08F2000A128A1509
:100D5E00A7240A128A11DF3083120313C200003057
:100D6E00C3000230C4000030C5000030C6000030A1
:100D7E00C7000A128A15EF250A128A11013083164E
:100D8E000313D4000030D5000130D6070318D70A5C
:100D9E000030D707D62ED62ED401D501D62E570821
:100DAE00803AFF0080307F02031DDF2E0330560293
:100DBE00031CE22EE32EE52E072F072F023083169B
:100DCE00031358065904031DED2EEE2EFA2E53086A
:100DDE005204031DF32EF42E492E0130D2000030A2
:100DEE00D300072F492E633058065904031D002FD8
:100DFE00012F492ED201D301492E492E492E492EBB
:100E0E0083160313D401D501D601D701A030F0000B
:100E1E000030F1007D30F2008830F3000A128A159E
:100E2E0075240A128A11A03083120313C2000030F7
:100E3E00C3000130C4000030C5000130C6000030D0
:100E4E00C7000A128A15EF250A128A11A5308312DD
:100E5E000313C2000130C3000230C4000030C500CD
:100E6E000030C6000030C7000A128A15EF250A129C
:100E7E008A11412F0A128A11F3200A128A1175085B
:100E8E0083160313D901D9077408D801D807013086
:100E9E00580659040319542F552F5C2F590858041E
:100EAE00031D5A2F5B2FCB2F5C2F55085404031DA7
:100EBE00612F622FCE2F57085604031D672F682F00
:100ECE00752FA530F0000130F1006830F200883047
:100EDE00F3000A128A1575240A128A11143083122D
:100EEE000313C2008930C3000230C4000030C500B5
:100EFE000030C6000030C7000A128A15EF250A120C
:100F0E008A11831603135908FA01FA075808F901D2
:100F1E00F907C23083120313DD005D08FB000A12CD
:100F2E008A11DB210A128A11A530F0000130F1007E
:100F3E00C23083120313DD005D08F2000A128A1517
:100F4E00A7240A128A11A53083120313C20001309E
:100F5E00C3000230C4000030C5000030C6000030AF
:100F6E00C7000A128A15EF250A128A11013083165C
:100F7E000313D4000030D5000130D6070318D70A6A
:100F8E000030D707CE2FCE2FD401D501CE2F570844
:100F9E00803AFF0080307F02031DD72F03305602A8
:100FAE00031CDA2FDB2FDD2FFF2FFF2F02308316CE
:100FBE00031358065904031DE52FE62FF22F53088D
:100FCE005204031DEB2FEC2F412F0130D2000030C5
:100FDE00D300FF2F412F633058065904031DF82FFD
:100FEE00F92F412FD201D301412F412F412F412FF4
:100FFE000800FF1B0A2883137F1883170008840A32
:10100E000319FF0A08007F087F398A000408840A42
:10101E000319FF0A820010340034573445344C341F
:10102E0043344F344D344534203421342034543439
:10103E004F342034503452344F34473452344134C8
:10104E004D34413442344C344534203448344F34DA
:10105E004D34453420344134553454344D344134B8
:10106E0054344E3400345034723465347334733423
:10107E00203432342E3420342D34203453346B3417
:10108E0069347034203466346F347234203444340E
:10109E0065347634693463346534003445346E34E3
:1010AE0074346534723420344C346F34673469349C
:1010BE006334203444344534563431343A34203495
:1010CE002034003445346E34743465347234203434
:1010DE004C346F34673469346334203444344534CB
:1010EE00563432343A3420342034003445346E349D
:1010FE0074346534723420344C346F34673469344C
:10110E006334203444344534563433343A34203442
:10111E0020340034503472346534733473342034D4
:10112E003234203474346F342034523445345034D5
:10113E0052344734003431342E345334573454340B
:10114E002034203432342E34523445345034523418
:10115E0047340034533465346E34733469346E342A
:10116E0067342E342E342E34003433342E3452342D
:10117E004534533445345434003430343034303400
:10118E003034003431343034303430340034303490
:10119E00313430343034003431343134303430344E
:1011AE00003430343034313430340034313430346F
:1011BE00313430340034303431343134303400345E
:1011CE00313431343134303400343034303430341E
:1011DE00313400343134303430343134003430343E
:1011EE0031343034313400343134313430343134FC
:1011FE00003430343034313431340034313430341E
:10120E00313431340034303431343134313400340B
:10121E00313431343134313400342D342D342D34D5
:02122E0000348A
:10167C0030343034303430340034831203130711D7
:10168C008711061386130800831203138601C030DA
:10169C00831603138600080064008001840A040684
:1016AC00031900340406532B0130F8000030F90004
:1016BC000A128A15B1230A128A1508003134303403
:1016CC0030340034003430343134303400340034AD
:1016DC00303430343034303400347E088A007F08A3
:1016EC00820073230A128A158000840A04087D067E
:1016FC0003190034FF0A0319FE0A772B862B862B5D
:10170C000130F0020030031CF103F102FF307106CE
:10171C00031D922BFF307006031D952B962B862BE9
:10172C00972B08000F308316031386000A128A15B4
:10173C004B240A128A150A128A154A230A128A1590
:10174C00A72B0A128A1120240A128A15A72BA72B61
:10175C000A128A1100287908F101F1077808F001C2
:10176C00F0070A128A11C6220A128A158312031371
:10177C00071086161430F0000030F1000A128A159A
:10178C0084230A128A158312031386121430F00074
:10179C000030F1000A128A1584230A128A150800F7
:1017AC007908F101F1077808F001F0070A128A11A3
:1017BC00C6220A128A1583120313071486161430D4
:1017CC00F0000030F1000A128A1584230A128A15DF
:1017DC008312031386121430F0000030F1000A1249
:1017EC008A1584230A128A150800831203136408CD
:1017FC006304031D022C032C202C3030831603139E
:10180C0085008312031385010130E3000030E400EE
:10181C00B130C2008830C3000130C4000030C500B4
:10182C000130C6000030C7000A128A15EF250A12D3
:10183C008A15202C0800F401F501242C701C272C8F
:10184C00282C2E2C7208F4070318F50A7308F507D8
:10185C0001300310F20DF30DFF3E031D2F2C013050
:10186C000310F10CF00CFF3E031D362C71087004B4
:10187C00031D412C422C242C432C7508F101F1073B
:10188C007408F001F0074A2C08003E30831603134D
:10189C00870088013830F8000030F9000A128A15E8
:1018AC00B1230A128A150C30F8000030F9000A1224
:1018BC008A15B1230A128A150130F8000030F9009C
:1018CC000A128A15B1230A128A158030F8000030EA
:1018DC00F9000A128A15B1230A128A150800710838
:1018EC00FA01FA077008F901F9077D2C7D2C7308B1
:1018FC00F5007208F4000130F2070318F30A7508BA
:10190C0083120313FF00740884000A128A15002046
:10191C000A128A15F6007A08F8007908F7000130E7
:10192C00F9070318FA0A770884008317781C8313C5
:10193C00760880008008031DA42CA52C7D2CA62CD9
:10194C0008007108F701F7077008F601F607B52CC7
:10195C000130F6070318F70A0030F707B52C7608A4
:10196C0084008317771C83138008031DBE2CBF2CA7
:10197C00AE2CC22CC22CC22C720884000130F2078F
:10198C0083130008F3007708F5007608F4000130A3
:10199C00F6070318F70A740884008317751C831361
:1019AC00730880008008031DDC2CDD2CC22CDE2C7F
:1019BC000800F700E22CE22C77088400831300085F
:1019CC00F2007108F4007008F3000130F0070318FE
:1019DC00F10A740883120313FF00730884000A12BF
:1019EC008A1500200A128A15FF3A013E7207F5008B
:1019FC007508F600F608031D042D052D112D77082A
:101A0C0084000130F70783138008031D0E2D0F2D62
:101A1C00E22C112D112D7608F000F101F01BF103D1
:101A2C00172D08000A128A1543230A128A15013051
:101A3C0072067304031D232D242D282D83120313EA
:101A4C0006144C2D023072067304031D2E2D2F2DFF
:101A5C00332D8312031386144C2D0330720673043A
:101A6C00031D392D3A2D3E2D8312031306154C2DD3
:101A7C00043072067304031D442D452D4C2D831226
:101A8C00031386154C2D4C2D4C2D4C2DC830F000CD
:101A9C000030F1000A128A1584230A128A150800F4
:101AAC00E101E201E301E401E501E6018313E43025
:101ABC008400EC300A128A1552230A128A158317F5
:101ACC0090308400A0300A128A1552230A128A150B
:101ADC00AF30FD000B30FE006430FF00A0308400FE
:101AEC000A128A1577230A128A158313E430FD0033
:101AFC000030FE000730FF00DA3084000A128A152D
:101B0C0077230A128A156C30FD000B30FE003E3034
:101B1C00FF00673084000A128A1577230A128A158F
:101B2C0083010A128A15982BF500F601F701F601CC
:101B3C00F7017708803AFF0080307F02031DA82D43
:101B4C0004307602031CAB2DAC2DAE2DE92DE92D06
:101B5C0076087507F2007208840083130008303A87
:101B6C00031DB92DBA2DD52D76087007F300710819
:101B7C00F2000318F20AF61FC42DF2037208F400E7
:101B8C00730884008317741C83130008313A031DF7
:101B9C00D02DD12DD52DF001F101EE2DEE2D0130F2
:101BAC00F6070318F70A0030F7077708803AFF00AA
:101BBC0080307F02031DE42D04307602031CE72DD8
:101BCC00E82DAE2DE92D0130F0000030F100EE2DA6
:101BDC00080001308312031346064704031DF72D3A
:101BEC00F82DFE2D0A128A155A230A128A15FE2D7B
:101BFC0002308312031344064504031D062E072EE0
:101C0C00112EC030F8000030F9000A128A15B123E9
:101C1C000A128A151B2E0230F8000030F9000A1245
:101C2C008A15B1230A128A151B2EFC01FD013E2ECA
:101C3C007C08831203134207840043080318430AE9
:101C4C00FF000A128A1500200A128A15FA00FB01FD
:101C5C007A08F8007B08F9000A128A15D6230A12B2
:101C6C008A150130FC070318FD0A0030FD073E2ED3
:101C7C007C08831203134207840043080318430AA9
:101C8C00FF000A128A1500200A128A150038031D5B
:101C9C00502E512E1E2E522E0800F601F31F572ED9
:101CAC00582E612EF209F309F20A0319F30AF60110
:101CBC000314F60D612EF11F642E652E6B2EF009A8
:101CCC00F109F00A0319F10A6B2E7108700403195B
:101CDC00702E712EA72EF5010314F50D812E0130F7
:101CEC000310F00DF10DFF3E031D762E0130F400B4
:101CFC007408F507812EF11F842E852E752E872EE4
:101D0C00872E71087302031D8D2E70087202031C3E
:101D1C00902E912E982E7008F2027108031CF3037A
:101D2C00F302982E01300310F10CF00CFF3E031D52
:101D3C00992E0130F502031DA42EA52E872EA72E59
:101D4C00A72E7608031DAB2EB12EF209F309F20A69
:101D5C000319F30AB12E7308F101F1077208F001AF
:101D6C00F007B82E0800F601F11FBD2EBE2EC72EAF
:101D7C00F009F109F00A0319F10AF6010314F60D42
:101D8C00C72EF31FCA2ECB2ED52EF209F309F20A59
:101D9C000319F30A0130F4007408F606D52EF70186
:101DAC00F801710870040319DC2EDD2E1B2FF501D0
:101DBC000314F50DED2E01300310F00DF10DFF3E67
:101DCC00031DE22E0130F4007408F507ED2EF11F0F
:101DDC00F02EF12EE12EF32EF32E01300310F70D21
:101DEC00F80DFF3E031DF42E71087302031D002F26
:101DFC0070087202031C032F042F0C2F7008F202C0
:101E0C007108031CF303F30277140C2F0130031039
:101E1C00F10CF00CFF3E031D0D2F0130F502031DDC
:101E2C00182F192FF32E1B2F1B2F7608031D1F2F76
:101E3C00252FF709F809F70A0319F80A252F78084E
:101E4C00F101F1077708F001F0072C2F080083123D
:101E5C0003134908C301C3074808C201C207013074
:101E6C00C4000030C5000030C6000030C7000A12A4
:101E7C008A15EF250A128A1583120313D701D8018C
:101E8C00D901DA01CF01D001582F0130DB0703183B
:101E9C00DC0A0030DC070130D9070318DA0A0030FD
:101EAC00DA07582F5B084807840049080318490AC9
:101EBC00FF000A128A1500200A128A150038031D29
:101ECC00682F692F4B2F6A2F5908FF3ED1005A08F3
:101EDC000318013EFF3ED2005A08803AFF008030C2
:101EEC007F02031D7B2F21305902031C7E2F7F2F75
:101EFC00FF2F83120313D301D4011F30D500003000
:101F0C00D600882F83120313DB01DC01A02FB8301D
:101F1C00F0000B30F1000A128A1584230A128A157C
:101F2C001E30F8000030F9000A128A15B1230A128B
:101F3C008A15A02F013083120313DB070318DC0A68
:101F4C000030DC075C08803AFF0080307F02031D04
:101F5C00B12F21305B02031CB42FB52F8D2FB62F60
:101F6C0083120313DB01DC01CE2FB830F0000B30F1
:101F7C00F1000A128A1584230A128A151830F80007
:101F8C000030F9000A128A15B1230A128A15CE2FD5
:101F9C00013083120313DB070318DC0A0030DC0763
:101FAC005C08803AFF0080307F02031DDF2F213058
:101FBC005B02031CE22FE32FBB2FE42F83120313CE
:101FCC005808CD005708CC000130D7070318D80AA1
:101FDC004D08803ACE004B08803A4E02031DF82F74
:101FEC004A084C020318FB2FFC2FFF2F882F882F39
:041FFC00FF2F0800AB
:00000001FF
