:060000000A128A15E12C32
:10000E000A128A15F0220A128A110130720673043E
:10001E00031D1228132817288312031386153B2855
:10002E00023072067304031D1D281E282228831217
:10003E00031306153B28033072067304031D28288C
:10004E0029282D288312031386143B2804307206A8
:10005E007304031D332834283B288312031306141C
:10006E003B283B283B283B28C830F0000030F100ED
:10007E000A128A154B230A128A110800F601F11F83
:10008E0049284A285328F009F109F00A0319F10A00
:10009E00F6010314F60D5328F31F5628572861282E
:1000AE00F209F309F20A0319F30A0130F400740895
:1000BE00F6066128F701F801710870040319682823
:1000CE006928A728F5010314F50D792801300310CE
:1000DE00F00DF10DFF3E031D6E280130F400740883
:1000EE00F5077928F11F7C287D286D287F287F2829
:1000FE0001300310F70DF80DFF3E031D8028710827
:10010E007302031D8C2870087202031C8F2890281E
:10011E0098287008F2027108031CF303F302771497
:10012E00982801300310F10CF00CFF3E031D9928A6
:10013E000130F502031DA428A5287F28A728A7288B
:10014E007608031DAB28B128F709F809F70A031939
:10015E00F80AB1287808F101F1077708F001F007E5
:10016E00B828080083120313A001A101FB08031D88
:10017E00C128C228C428A329A3297A087904031DFB
:10018E00C928CA28D3283030FC007B0884007C089C
:10019E0083138000A329A329FA1FD628D728002964
:1001AE00FF30F000FF30F1007A08F301F307790811
:1001BE00F201F2070A128A15EA230A128A1171084D
:1001CE00FA01FA077008F901F9072D30FC007B08D7
:1001DE0084007C08831380000130FC007C08FB0740
:1001EE00013083120313A0070318A10A0030A107E0
:1001FE0000297A08A301A3077908A201A207230800
:10020E00803AFF0080307F02031D0F290130220249
:10021E000318122913291529402940290A30F00004
:10022E000030F100831203132308F301F3072208B1
:10023E00F201F2070A128A1145200A128A11710878
:10024E0083120313A301A3077008A201A2070130B2
:10025E00FC007C08FB072308803AFF0080307F02F9
:10026E00031D3B290130220203183E293F2915297F
:10027E0040297B088400831380017A0883120313BC
:10028E00A301A3077908A201A2072308803AFF0061
:10029E0080307F02031D5529013022020318582990
:1002AE0059295B29A329A3290A30F0000030F10057
:1002BE00831203132308F301F3072208F201F20756
:1002CE000A128A15DF250A128A117008303EFC00C8
:1002DE000130FB027B0884007C0883138000013010
:1002EE0083120313A0070318A10A0030A1070A30D6
:1002FE00F0000030F1002308F301F3072208F201A9
:10030E00F2070A128A1145200A128A117108831205
:10031E000313A301A3077008A201A2072308803AC2
:10032E00FF0080307F02031D9E2901302202031838
:10033E00A129A2295B29A32908000A128A15C22322
:10034E000A128A11AA30F0000130F1006830F20072
:10035E000030F3000A128A153E240A128A11683000
:10036E00F0000030F100CA30F2008830F3000A12BB
:10037E008A153E240A128A1183120313051CC829FA
:10038E00C929CE293130C8004808E800CE29851C7D
:10039E00D129D229D7293130C8004808E900D729F8
:1003AE00051DDA29DB29E0293130C8004808EA00AA
:1003BE00E0296208E601E6076108E501E507E101CB
:1003CE00E2019630C2008830C3000230C400003013
:1003DE00C5000030C6000030C7000A128A157B2502
:1003EE000A128A11AA30F0000130F10068300A12A8
:1003FE008A15A8240A128A11710870040319082A92
:10040E00092AB82A683083120313C2000030C300D1
:10041E000130C4000030C5000130C6000030C700F6
:10042E000A128A157B250A128A11DA30F000003082
:10043E00F10068300A128A1526250A128A117108EF
:10044E00700403192B2A2C2A352A01308312031328
:10045E006104E10000306204E2003E2A063083129D
:10046E0003136105E10000306205E2003E2ADF3031
:10047E00F0000030F10068300A128A1526250A12A3
:10048E008A117108700403194D2A4E2A572A023018
:10049E00831203136104E10000306204E200602A5B
:1004AE000530831203136105E10000306205E2009E
:1004BE00602AA530F0000130F10068300A128A156A
:1004CE0026250A128A117108700403196F2A702AE0
:1004DE00792A0430831203136104E10000306204B0
:1004EE00E200822A0330831203136105E10000301B
:1004FE006205E200822A6118852A892A8312031373
:10050E0007168C2A8312031307126208C9006108AA
:10051E00C8000130FF00490DC90CC80CFF0B922A10
:10052E0048189A2A9E2A831203138716A12A831229
:10053E00031387126208C9006108C8000230FF0069
:10054E00490DC90CC80CFF0BA72A4818AF2AB32AAD
:10055E00831203130717B62A831203130713B82A3D
:10056E00B82A080083120313C001C101173084009A
:10057E008830FF000A128A1500200A128A11F20032
:10058E000A128A1500200A128A11F3004108803AD5
:10059E00F4007308803A7402031DD72A72084002D1
:1005AE00031CDA2ADB2ADD2A202B202B83120313CD
:1005BE00400AF2007108F4007008F300E92A0310F3
:1005CE00F30DF40DF20BE62A0030F41B0130F500AA
:1005DE00F6014008F7007707203E84007508831364
:1005EE008000840A760880000130C0070318C10A13
:1005FE000030C107173084008830FF000A128A15B8
:10060E0000200A128A11F2000A128A1500200A121C
:10061E008A11F3004108803AF4007308803A74029C
:10062E00031D1B2B72084002031C1E2B1F2BDD2AE1
:10063E00202B17308400883083120313FF000A1218
:10064E008A1500200A128A11F2007207FE3E203E21
:10065E00840083130008F300840A0008F400731862
:10066E00392B3D2B831203138815402B8312031352
:10067E008811173084008830FF000A128A15002076
:10068E000A128A11F2007207FC3E203E8400831388
:10069E000008F300840A0008F4007318572B5B2B34
:1006AE008312031308155E2B8312031308111730E0
:1006BE0084008830FF000A128A1500200A128A115F
:1006CE00F2007207FA3E203E840083130008F30006
:1006DE00840A0008F4007318752B792B8312031308
:1006EE0088147C2B831203138810173084008830F3
:1006FE00FF000A128A1500200A128A11F2007207F0
:10070E00F83E203E840083130008F300840A00089C
:10071E00F4007318932B972B8312031308149A2B40
:10072E00831203130810173084008830FF000A125A
:10073E008A1500200A128A11F2007207F63E203E38
:10074E00840083130008F300840A0008F400731871
:10075E00B12BB52B831203138715B82B83120313FA
:10076E008711173084008830FF000A128A15002086
:10077E000A128A11F2007207F43E203E840083139F
:10078E000008F300840A0008F4007318CF2BD32B53
:10079E00831203130715D62B831203130711173079
:1007AE0084008830FF000A128A1500200A128A116E
:1007BE00F2007207F23E203E840083130008F3001D
:1007CE00840A0008F4007318ED2BF12B8312031327
:1007DE008714F42B8312031387101730840088308C
:1007EE00FF000A128A1500200A128A11F2007207FF
:1007FE00F03E203E840083130008F300840A0008B4
:10080E00F40073180B2C0F2C831203130714122CE5
:10081E008312031307100800193083120313C80044
:10082E008830C9000030CA000030CB000A128A1589
:10083E0045260A128A11C2308400903083120313A7
:10084E00DD000408DE001030DF005D088400831731
:10085E000008E000DD0A5E08840083136008800053
:10086E00DE0ADF0B2C2C83160313D401D501D20123
:10087E00D301C001C101D601D701A73083120313E2
:10088E00C2008830C3000130C4000030C500013002
:10089E00C6000030C7000A128A157B250A128A117B
:1008AE00C13083120313C2008830C3000230C4006B
:1008BE000030C5000030C6000030C7000A128A158D
:1008CE007B250A128A116B2C0130831603136A06DC
:1008DE006B04031D732C742C7E2CEA01EB01E401D6
:1008EE00E501E601E701E801E901FF2FFF2F0A12FA
:1008FE008A1518270A128A11750883160313D9014F
:10090E00D9077408D801D8075908F101F10758081A
:10091E00F001F0070A128A152A230A128A110130F1
:10092E008316031358065904031D9E2C9F2CA72CC7
:10093E000130E4000030E500E601E701E801E901DD
:10094E00023058065904031DAD2CAE2CB62CE40112
:10095E00E5010130E6000030E700E801E90103306F
:10096E0058065904031DBC2CBD2CCA2CE401E5010C
:10097E00E601E7010130E8000030E9000130EA004D
:10098E000030EB00CA2C650864040319CF2CD02C60
:10099E00D62C0A128A11A4210A128A116B2C8316E4
:1009AE000313670866040319DD2CDE2CE62CE40124
:1009BE00E501E601E701E801E901FC2C6B2C690871
:1009CE0068040319EB2CEC2C6B2CE401E501E60119
:1009DE00E701E801E9010130EA000030EB006B2C81
:1009EE006B2C6B2C6B2C6B2CFC2C3F30831203135B
:1009FE00C2008830C3000130C4000030C500013091
:100A0E00C6000030C7000A128A157B250A128A1109
:100A1E008830F0001330F1000A128A154B230A12A7
:100A2E008A1183160313D401D501D601D701A03044
:100A3E00F0000030F1005A30F2008830F3000A1254
:100A4E008A153E240A128A11A03083120313C200A3
:100A5E000030C3000130C4000030C5000130C600B4
:100A6E000030C7000A128A157B250A128A11DA3065
:100A7E0083120313C2000030C3000230C4000030E2
:100A8E00C5000030C6000030C7000A128A157B254B
:100A9E000A128A110A128A1518270A128A11750863
:100AAE0083160313D901D9077408D801D80701306A
:100ABE00580659040319642D652D6C2D59085804D8
:100ACE00031D6A2D6B2DDB2D6C2D55085404031D53
:100ADE00712D722DDE2D57085604031D772D782D9E
:100AEE00852DDA30F0000030F1006D30F2008830E4
:100AFE00F3000A128A153E240A128A111930831243
:100B0E000313C2008930C3000230C4000030C50098
:100B1E000030C6000030C7000A128A157B250A1263
:100B2E008A11831603135908FA01FA075808F901B6
:100B3E00F907C23083120313DD005D08FB000A12B1
:100B4E008A11B9200A128A11DA30F0000030F10051
:100B5E00C23083120313DD005D08F2000A128A15FB
:100B6E0070240A128A11DA3083120313C200003085
:100B7E00C3000230C4000030C5000030C600003093
:100B8E00C7000A128A157B250A128A1101308316B4
:100B9E000313D4000030D5000130D6070318D70A4E
:100BAE000030D707DE2DDE2DD401D501DE2D5708FE
:100BBE00803AFF0080307F02031DE72D033056027E
:100BCE00031CEA2DEB2DED2D0F2E0F2E023083166A
:100BDE00031358065904031DF52DF62D022E530846
:100BEE005204031DFB2DFC2D512D0130D20000307F
:100BFE00D3000F2E512D633058065904031D082EB5
:100C0E00092E512DD201D301512D512D512D512D82
:100C1E0083160313D401D501D601D701A030F000FD
:100C2E000030F1006E30F2008830F3000A128A159F
:100C3E003E240A128A11A03083120313C200003020
:100C4E00C3000130C4000030C5000130C6000030C2
:100C5E00C7000A128A157B250A128A11DF30831209
:100C6E000313C2000030C3000230C4000030C500C0
:100C7E000030C6000030C7000A128A157B250A1202
:100C8E008A11492E0A128A1518270A128A11750816
:100C9E0083160313D901D9077408D801D807013078
:100CAE005806590403195C2E5D2E642E59085804FB
:100CBE00031D622E632ED32E642E55085404031D7D
:100CCE00692E6A2ED62E57085604031D6F2E702ECF
:100CDE007D2EDF30F0000030F1006D30F2008830F4
:100CEE00F3000A128A153E240A128A111930831251
:100CFE000313C2008930C3000230C4000030C500A7
:100D0E000030C6000030C7000A128A157B250A1271
:100D1E008A11831603135908FA01FA075808F901C4
:100D2E00F907C23083120313DD005D08FB000A12BF
:100D3E008A11B9200A128A11DF30F0000030F1005A
:100D4E00C23083120313DD005D08F2000A128A1509
:100D5E0070240A128A11DF3083120313C20000308E
:100D6E00C3000230C4000030C5000030C6000030A1
:100D7E00C7000A128A157B250A128A1101308316C2
:100D8E000313D4000030D5000130D6070318D70A5C
:100D9E000030D707D62ED62ED401D501D62E570821
:100DAE00803AFF0080307F02031DDF2E0330560293
:100DBE00031CE22EE32EE52E072F072F023083169B
:100DCE00031358065904031DED2EEE2EFA2E53086A
:100DDE005204031DF32EF42E492E0130D2000030A2
:100DEE00D300072F492E633058065904031D002FD8
:100DFE00012F492ED201D301492E492E492E492EBB
:100E0E0083160313D401D501D601D701A030F0000B
:100E1E000030F1008230F2008830F3000A128A1599
:100E2E003E240A128A11A03083120313C20000302E
:100E3E00C3000130C4000030C5000130C6000030D0
:100E4E00C7000A128A157B250A128A11A530831251
:100E5E000313C2000130C3000230C4000030C500CD
:100E6E000030C6000030C7000A128A157B250A1210
:100E7E008A11412F0A128A1518270A128A1175082B
:100E8E0083160313D901D9077408D801D807013086
:100E9E00580659040319542F552F5C2F590858041E
:100EAE00031D5A2F5B2FCB2F5C2F55085404031DA7
:100EBE00612F622FCE2F57085604031D672F682F00
:100ECE00752FA530F0000130F1006D30F200883042
:100EDE00F3000A128A153E240A128A11193083125F
:100EEE000313C2008930C3000230C4000030C500B5
:100EFE000030C6000030C7000A128A157B250A1280
:100F0E008A11831603135908FA01FA075808F901D2
:100F1E00F907C23083120313DD005D08FB000A12CD
:100F2E008A11B9200A128A11A530F0000130F100A1
:100F3E00C23083120313DD005D08F2000A128A1517
:100F4E0070240A128A11A53083120313C2000130D5
:100F5E00C3000230C4000030C5000030C6000030AF
:100F6E00C7000A128A157B250A128A1101308316D0
:100F7E000313D4000030D5000130D6070318D70A6A
:100F8E000030D707CE2FCE2FD401D501CE2F570844
:100F9E00803AFF0080307F02031DD72F03305602A8
:100FAE00031CDA2FDB2FDD2FFF2FFF2F02308316CE
:100FBE00031358065904031DE52FE62FF22F53088D
:100FCE005204031DEB2FEC2F412F0130D2000030C5
:100FDE00D300FF2F412F633058065904031DF82FFD
:100FEE00F92F412FD201D301412F412F412F412FF4
:100FFE000800FF1B0A2883137F1883170008840A32
:10100E000319FF0A08007F087F398A000408840A42
:10101E000319FF0A82000034043408340C340F34F0
:10102E0010340034573445344C3443344F344D343B
:10103E00453420342134203454344F342034503449
:10104E0052344F344734523441344D3441344234A7
:10105E004C344534203448344F344D3445342034E8
:10106E004134553454344D34413454344E340034B8
:10107E0050347234653473347334203432342E3435
:10108E0020342D34203453346B346934703420348E
:10109E0066346F34723420344434653476346934B3
:1010AE0063346534003445346E34743465347234CC
:1010BE0020344C346F346734693463342034443410
:1010CE004534563431343A342034203400344534E7
:1010DE006E3474346534723420344C346F34673467
:1010EE0069346334203444344534563432343A341B
:1010FE0020342034003445346E3474346534723404
:10110E0020344C346F3467346934633420344434BF
:10111E004534563433343A34203420340034503489
:10112E00723465347334733420343234203474346E
:10113E006F342034523445345034523447340034F2
:10114E0031342E3453345734543420342034323422
:10115E002E345234453450345234473400345334E0
:10116E0065346E34733469346E3467342E342E34F1
:10117E002E34003433342E34523445345334453403
:10118E00543400343034303430343034003431346C
:10119E003034303430340034303431343034303450
:1011AE00003431343134303430340034303430346F
:1011BE00313430340034313430343134303400345E
:1011CE00303431343134303400343134313431341C
:1011DE00303400343034303430343134003431343F
:1011EE0030343034313400343034313430343134FE
:1011FE00003431343134303431340034303430341E
:10120E00313431340034313430343134313400340B
:10121E0030343134313431340034313431343134CA
:0C122E00313400342D342D342D340034C4
:1015D600303430343034303400348312031308137B
:1015E6008813061386130800831203138601D0306E
:1015F600831603138600080064008001840A04062B
:10160600031900340406002B0130F8000030F900FD
:101616000A128A1578230A128A15080031343034E2
:101626003034003400343034313430340034003453
:1016360031343034303400340034303431343034E2
:1016460000340034303430343034303400346330D5
:10165600700671040319302B312B352B83120313BB
:101666008616392B831203138612392B08007E083F
:101676008A007F0882003A230A128A158000840AAB
:1016860004087D0603190034FF0A0319FE0A3E2BDF
:101696004D2B4D2B0130F0020030031CF103F102FB
:1016A600FF307106031D592BFF307006031D5C2B9E
:1016B6005D2B4D2B5E2B08000F308316031386001F
:1016C6000A128A1514240A128A150A128A15F72292
:1016D6000A128A156E2B0A128A1113240A128A1507
:1016E6006E2B6E2B0A128A1100287908F101F10778
:1016F6007808F001F0070A128A11B9220A128A152F
:1017060083120313881208161430F0000030F1001B
:101716000A128A154B230A128A158312031308121A
:101726001430F0000030F1000A128A154B230A1219
:101736008A1508007908F101F1077808F001F00729
:101746000A128A11B9220A128A15831203138816FD
:1017560008161430F0000030F1000A128A154B23E7
:101766000A128A158312031308121430F00000308F
:10177600F1000A128A154B230A128A1508008312F1
:10178600031364086304031DC92BCA2BE92B0F300E
:10179600831603138500831603178801013083120D
:1017A6000313E3000030E400B630C2008830C30003
:1017B6000130C4000030C5000130C6000030C7004B
:1017C6000A128A157B250A128A15E92B0800F401EC
:1017D600F501ED2B701CF02BF12BF72B7208F4079B
:1017E6000318F50A7308F50701300310F20DF30D1F
:1017F600FF3E031DF82B01300310F10CF00CFF3EE9
:10180600031DFF2B71087004031D0A2C0B2CED2BF6
:101816000C2C7508F101F1077408F001F007132C80
:101826000800831603138701C03088003830F8009B
:101836000030F9000A128A1578230A128A150C302C
:10184600F8000030F9000A128A1578230A128A1560
:101856000130F8000030F9000A128A1578230A12BE
:101866008A158030F8000030F9000A128A157823AC
:101876000A128A1508007108FA01FA077008F901B8
:10188600F907462C462C7308F5007208F40001305F
:10189600F2070318F30A750883120313FF0074088E
:1018A60084000A128A1500200A128A15F6007A08A0
:1018B600F8007908F7000130F9070318FA0A7708E3
:1018C60084008317781C8313760880008008031D24
:1018D6006D2C6E2C462C6F2C08007108F701F7074B
:1018E6007008F601F6077E2C0130F6070318F70A92
:1018F6000030F7077E2C760884008317771C831345
:101906008008031D872C882C772C8B2C8B2C8B2CFA
:10191600720884000130F20783130008F300770889
:10192600F5007608F4000130F6070318F70A740884
:1019360084008317751C8313730880008008031DB9
:10194600A52CA62C8B2CA72C0800F700AB2CAB2CB7
:101956007708840083130008F2007108F400700809
:10196600F3000130F0070318F10A74088312031319
:10197600FF00730884000A128A1500200A128A15CD
:10198600FF3A013E7207F5007508F600F608031DDA
:10199600CD2CCE2CDA2C770884000130F707831380
:1019A6008008031DD72CD82CAB2CDA2CDA2C760821
:1019B600F000F101F01BF103E02C0800E101E20167
:1019C600E301E401E501E601E7018313E430840065
:1019D600EC300A128A15FF220A128A1583179030F4
:1019E6008400A0300A128A15FF220A128A15AF3027
:1019F600FD000B30FE001B30FF00A03084000A12F1
:101A06008A153E230A128A158313E430FD000B3033
:101A1600FE001130FF00DA3084000A128A153E23D8
:101A26000A128A156D30FD000A30FE00EB30FF0009
:101A3600683084000A128A153E230A128A15830129
:101A46000A128A155F2BF500F601F701F601F70178
:101A56007708803AFF0080307F02031D342D043062
:101A66007602031C372D382D3A2D752D752D7608E7
:101A76007507F2007208840083130008303A031DCC
:101A8600452D462D612D76087007F3007108F2008A
:101A96000318F20AF61F502DF2037208F4007308B9
:101AA60084008317741C83130008313A031D5C2DD0
:101AB6005D2D612DF001F1017A2D7A2D0130F607A9
:101AC6000318F70A0030F7077708803AFF008030DE
:101AD6007F02031D702D04307602031C732D742DB6
:101AE6003A2D752D0130F0000030F1007A2D0800F6
:101AF60001308312031346064704031D832D842DEC
:101B06008A2D0A128A1507230A128A158A2D02308F
:101B16008312031344064504031D922D932D9D2D18
:101B2600C030F8000030F9000A128A1578230A122C
:101B36008A15A72D0230F8000030F9000A128A151E
:101B460078230A128A15A72DFC01FD01CA2D7C08EF
:101B5600831203134207840043080318430AFF0055
:101B66000A128A1500200A128A15FA00FB017A0861
:101B7600F8007B08F9000A128A159D230A128A15B5
:101B86000130FC070318FD0A0030FD07CA2D7C084A
:101B9600831203134207840043080318430AFF0015
:101BA6000A128A1500200A128A150038031DDC2D38
:101BB600DD2DAA2DDE2D0800F601F31FE32DE42D01
:101BC600ED2DF209F309F20A0319F30AF6010314DB
:101BD600F60DED2DF11FF02DF12DF72DF009F10980
:101BE600F00A0319F10AF72D710870040319FC2D88
:101BF600FD2D332EF5010314F50D0D2E01300310C6
:101C0600F00DF10DFF3E031D022E0130F4007408A5
:101C1600F5070D2EF11F102E112E012E132E132E49
:101C260071087302031D192E70087202031C1C2E04
:101C36001D2E242E7008F2027108031CF303F30212
:101C4600242E01300310F10CF00CFF3E031D252E4F
:101C56000130F502031D302E312E132E332E332E76
:101C66007608031D372E3D2EF209F309F20A0319F1
:101C7600F30A3D2E7308F101F1077208F001F0072F
:101C8600442E0800831203134908C301C3074808FA
:101C9600C201C2070130C4000030C5000030C600D2
:101CA6000030C7000A128A157B250A128A1583128C
:101CB6000313D701D801D901DA01CF01D001702E63
:101CC6000130DB070318DC0A0030DC070130D907D6
:101CD6000318DA0A0030DA07702E5B08480784001A
:101CE60049080318490AFF000A128A1500200A1239
:101CF6008A150038031D802E812E632E822E5908E8
:101D0600FF3ED1005A080318013EFF3ED2005A0892
:101D1600803AFF0080307F02031D932E2130590246
:101D2600031C962E972E172F83120313D301D4016B
:101D36001F30D5000030D600A02E83120313DB011E
:101D4600DC01B82EB830F0000B30F1000A128A150B
:101D56004B230A128A151E30F8000030F9000A12C9
:101D66008A1578230A128A15B82E013083120313B6
:101D7600DB070318DC0A0030DC075C08803AFF004A
:101D860080307F02031DC92E21305B02031CCC2E3E
:101D9600CD2EA52ECE2E83120313DB01DC01E62EFB
:101DA600B830F0000B30F1000A128A154B230A12E4
:101DB6008A151830F8000030F9000A128A157823BF
:101DC6000A128A15E62E013083120313DB07031865
:101DD600DC0A0030DC075C08803AFF0080307F02B6
:101DE600031DF72E21305B02031CFA2EFB2ED32E89
:101DF600FC2E831203135808CD005708CC0001307F
:101E0600D7070318D80A4D08803ACE004B08803A07
:101E16004E02031D102F4A084C020318132F142FCD
:101E2600172FA02EA02E172F08000130F200003029
:101E3600F3000A128A1107200A128A158312031365
:101E4600081F262F272F2C2FF401F501FF2FFF2F18
:101E56004F2F881F2F2F302F372F0130F4000030DF
:101E6600F500FF2FFF2F4F2F061F3A2F3B2F422F34
:101E76000230F4000030F500FF2FFF2F4F2F861F92
:101E8600452F462F4F2F0330F4000030F500FF2F6B
:101E9600FF2F4F2F4F2F4F2F0230F2000030F3004D
:101EA6000A128A1107200A128A1583120313081FC1
:101EB6005D2F5E2F652F0430F4000030F500FF2FF4
:101EC600FF2F882F881F682F692F702F0530F40089
:101ED6000030F500FF2FFF2F882F061F732F742F5A
:101EE6007B2F0630F4000030F500FF2FFF2F882FE0
:101EF600861F7E2F7F2F882F0730F4000030F500D5
:101F0600FF2FFF2F882F882F882F0330F2000030F5
:101F1600F3000A128A1107200A128A158312031384
:101F2600081F962F972F9E2F0830F4000030F500DB
:101F3600FF2FFF2FC12F881FA12FA22FA92F0930F6
:101F4600F4000030F500FF2FFF2FC12F061FAC2F26
:101F5600AD2FB42F0A30F4000030F500FF2FFF2F0D
:101F6600C12F861FB72FB82FC12F0B30F4000030BA
:101F7600F500FF2FFF2FC12FC12FC12F0430F20014
:101F86000030F3000A128A1107200A128A158312FA
:101F96000313081FCF2FD02FD72F0C30F40000309B
:101FA600F500FF2FFF2FFA2F881FDA2FDB2FE22FE6
:101FB6000D30F4000030F500FF2FFF2FFA2F061F1B
:101FC600E52FE62FED2F0E30F4000030F500FF2F41
:101FD600FF2FFA2F861FF02FF12FFA2F0F30F40064
:101FE6000030F500FF2FFF2FFA2FFA2FFA2F63305C
:0A1FF600F4000030F500FF2F080092
:00000001FF
