:060000000A128A11122809
:10000800FE00030EF2000408F3000A08F40083124D
:1000180003137F08F5000A128A113A280A128A1176
:100028007B28831603138701880183120313870132
:10003800880108308316031381008312031381019A
:100048000B118B178B1628288312031308098700B6
:100058002030F6004E30F7000A128A1153200A1297
:100068008A11282828280A128A1112280B118101BE
:1000780088096430F0000030F1000A128A11672004
:100088000A128A11750883120313FF0074088A0084
:1000980073088400720E8300FE0E7E0E0900552838
:1000A80055280130F6020030031CF703F702FF3031
:1000B8007706031D6128FF307606031D642865282E
:1000C800552866280800692869280130F0020030A0
:1000D800031CF103F102FF307106031D7528FF3080
:1000E8007006031D7828792869287A280800830172
:0600F8000A128A1115280E
:00000001FF
