:060000000A128A112E2FE6
:100E3A007E088A007F0882001D270A128A11800014
:100E4A00840A04087D0603190034FF0A0319FE0AFE
:100E5A00212F83134C30FD000730FE004030FF0085
:100E6A00383084000A128A1121270A128A11830152
:100E7A000A128A11542FBF34003486340034DB340A
:100E8A000034CF340034E6340034ED340034FD3419
:100E9A00003487340034FF340034EF340034203017
:100EAA0084003830F0000408F1001430F2007008B1
:100EBA00840083130008F300F00A710884007308A1
:100ECA008000F10AF20B5C2F83120313B601B701FB
:100EDA001030B4002730B500831603138701752F2D
:100EEA0083120313B601B7013708803AFF00803036
:100EFA007F02031D822F0A303602031C852F862F9C
:100F0A00882FB72FB72F831203133608F000700704
:100F1A00203E8400831300088700942F942FFF300B
:100F2A00B4070318B50AFF30B507B51F9D2F9E2FCA
:100F3A00942F9F2F1030B4002730B5000130B60728
:100F4A000318B70A0030B7073708803AFF00803025
:100F5A007F02031DB22F0A303602031CB52FB62FAB
:100F6A00882FB72F093083120313B6000030B70059
:100F7A003708803AFF0080307F02031DC62F0130F8
:100F8A0036020318C92FCA2FCC2F752F752F83123B
:100F9A0003133608F0007007203E8400831300080C
:100FAA008700D82FD82FFF30B4070318B50AFF30AF
:100FBA00B507B51FE12FE22FD82FE32F1030B40069
:100FCA002730B500FF30B6070318B70AFF30B70756
:100FDA003708803AFF0080307F02031DF62F013068
:100FEA0036020318F92FFA2FCC2F752F752F752F6C
:060FFA000A128A11002812
:00000001FF
